{"abi":[{"type":"constructor","inputs":[{"name":"_keeper","type":"address","internalType":"address"},{"name":"_doc","type":"address","internalType":"address"},{"name":"_moc","type":"address","internalType":"address"},{"name":"_kdoc","type":"address","internalType":"address"},{"name":"_krbtc","type":"address","internalType":"address"}],"stateMutability":"nonpayable"},{"type":"receive","stateMutability":"payable"},{"type":"function","name":"DOC","inputs":[],"outputs":[{"name":"","type":"address","internalType":"contract IERC20"}],"stateMutability":"view"},{"type":"function","name":"FEE_BPS","inputs":[],"outputs":[{"name":"","type":"uint256","internalType":"uint256"}],"stateMutability":"view"},{"type":"function","name":"KDOC","inputs":[],"outputs":[{"name":"","type":"address","internalType":"contract ICToken"}],"stateMutability":"view"},{"type":"function","name":"KRBTC","inputs":[],"outputs":[{"name":"","type":"address","internalType":"contract ICRbtc"}],"stateMutability":"view"},{"type":"function","name":"MIN_PERIOD","inputs":[],"outputs":[{"name":"","type":"uint256","internalType":"uint256"}],"stateMutability":"view"},{"type":"function","name":"MIN_PURCHASE_AMOUNT","inputs":[],"outputs":[{"name":"","type":"uint256","internalType":"uint256"}],"stateMutability":"view"},{"type":"function","name":"MOC","inputs":[],"outputs":[{"name":"","type":"address","internalType":"contract IMoC"}],"stateMutability":"view"},{"type":"function","name":"batchExecuteDca","inputs":[{"name":"_users","type":"address[]","internalType":"address[]"}],"outputs":[],"stateMutability":"nonpayable"},{"type":"function","name":"cancelSchedule","inputs":[],"outputs":[],"stateMutability":"nonpayable"},{"type":"function","name":"createSchedule","inputs":[{"name":"depositAmount","type":"uint256","internalType":"uint256"},{"name":"purchaseAmount","type":"uint256","internalType":"uint256"},{"name":"purchasePeriod","type":"uint256","internalType":"uint256"}],"outputs":[],"stateMutability":"nonpayable"},{"type":"function","name":"depositMore","inputs":[{"name":"amount","type":"uint256","internalType":"uint256"}],"outputs":[],"stateMutability":"nonpayable"},{"type":"function","name":"executeDca","inputs":[{"name":"user","type":"address","internalType":"address"}],"outputs":[],"stateMutability":"nonpayable"},{"type":"function","name":"executeDcaSelf","inputs":[{"name":"user","type":"address","internalType":"address"}],"outputs":[],"stateMutability":"nonpayable"},{"type":"function","name":"feeAccumulated","inputs":[],"outputs":[{"name":"","type":"uint256","internalType":"uint256"}],"stateMutability":"view"},{"type":"function","name":"getDocBalance","inputs":[{"name":"user","type":"address","internalType":"address"}],"outputs":[{"name":"","type":"uint256","internalType":"uint256"}],"stateMutability":"view"},{"type":"function","name":"getDueUsers","inputs":[],"outputs":[{"name":"","type":"address[]","internalType":"address[]"}],"stateMutability":"view"},{"type":"function","name":"getPendingRbtc","inputs":[{"name":"user","type":"address","internalType":"address"}],"outputs":[{"name":"","type":"uint256","internalType":"uint256"}],"stateMutability":"view"},{"type":"function","name":"getSchedule","inputs":[{"name":"user","type":"address","internalType":"address"}],"outputs":[{"name":"","type":"tuple","internalType":"struct SatsPilotDCA.Schedule","components":[{"name":"docBalance","type":"uint256","internalType":"uint256"},{"name":"purchaseAmount","type":"uint256","internalType":"uint256"},{"name":"purchasePeriod","type":"uint256","internalType":"uint256"},{"name":"lastExecution","type":"uint256","internalType":"uint256"},{"name":"accumulatedRbtc","type":"uint256","internalType":"uint256"},{"name":"active","type":"bool","internalType":"bool"}]}],"stateMutability":"view"},{"type":"function","name":"getUserCount","inputs":[],"outputs":[{"name":"","type":"uint256","internalType":"uint256"}],"stateMutability":"view"},{"type":"function","name":"isDue","inputs":[{"name":"user","type":"address","internalType":"address"}],"outputs":[{"name":"","type":"bool","internalType":"bool"}],"stateMutability":"view"},{"type":"function","name":"isUser","inputs":[{"name":"","type":"address","internalType":"address"}],"outputs":[{"name":"","type":"bool","internalType":"bool"}],"stateMutability":"view"},{"type":"function","name":"keeper","inputs":[],"outputs":[{"name":"","type":"address","internalType":"address"}],"stateMutability":"view"},{"type":"function","name":"owner","inputs":[],"outputs":[{"name":"","type":"address","internalType":"address"}],"stateMutability":"view"},{"type":"function","name":"schedules","inputs":[{"name":"","type":"address","internalType":"address"}],"outputs":[{"name":"docBalance","type":"uint256","internalType":"uint256"},{"name":"purchaseAmount","type":"uint256","internalType":"uint256"},{"name":"purchasePeriod","type":"uint256","internalType":"uint256"},{"name":"lastExecution","type":"uint256","internalType":"uint256"},{"name":"accumulatedRbtc","type":"uint256","internalType":"uint256"},{"name":"active","type":"bool","internalType":"bool"}],"stateMutability":"view"},{"type":"function","name":"setKeeper","inputs":[{"name":"_keeper","type":"address","internalType":"address"}],"outputs":[],"stateMutability":"nonpayable"},{"type":"function","name":"transferOwnership","inputs":[{"name":"newOwner","type":"address","internalType":"address"}],"outputs":[],"stateMutability":"nonpayable"},{"type":"function","name":"updateSchedule","inputs":[{"name":"newPurchaseAmount","type":"uint256","internalType":"uint256"},{"name":"newPurchasePeriod","type":"uint256","internalType":"uint256"}],"outputs":[],"stateMutability":"nonpayable"},{"type":"function","name":"users","inputs":[{"name":"","type":"uint256","internalType":"uint256"}],"outputs":[{"name":"","type":"address","internalType":"address"}],"stateMutability":"view"},{"type":"function","name":"withdrawDoc","inputs":[{"name":"amount","type":"uint256","internalType":"uint256"}],"outputs":[],"stateMutability":"nonpayable"},{"type":"function","name":"withdrawFees","inputs":[],"outputs":[],"stateMutability":"nonpayable"},{"type":"function","name":"withdrawRbtc","inputs":[],"outputs":[],"stateMutability":"nonpayable"},{"type":"event","name":"DCAExecuted","inputs":[{"name":"user","type":"address","indexed":true,"internalType":"address"},{"name":"docSpent","type":"uint256","indexed":false,"internalType":"uint256"},{"name":"rbtcReceived","type":"uint256","indexed":false,"internalType":"uint256"},{"name":"fee","type":"uint256","indexed":false,"internalType":"uint256"}],"anonymous":false},{"type":"event","name":"DCAFailed","inputs":[{"name":"user","type":"address","indexed":true,"internalType":"address"},{"name":"reason","type":"bytes","indexed":false,"internalType":"bytes"}],"anonymous":false},{"type":"event","name":"Deposited","inputs":[{"name":"user","type":"address","indexed":true,"internalType":"address"},{"name":"amount","type":"uint256","indexed":false,"internalType":"uint256"}],"anonymous":false},{"type":"event","name":"DocWithdrawn","inputs":[{"name":"user","type":"address","indexed":true,"internalType":"address"},{"name":"amount","type":"uint256","indexed":false,"internalType":"uint256"}],"anonymous":false},{"type":"event","name":"KeeperUpdated","inputs":[{"name":"oldKeeper","type":"address","indexed":true,"internalType":"address"},{"name":"newKeeper","type":"address","indexed":true,"internalType":"address"}],"anonymous":false},{"type":"event","name":"RbtcWithdrawn","inputs":[{"name":"user","type":"address","indexed":true,"internalType":"address"},{"name":"amount","type":"uint256","indexed":false,"internalType":"uint256"}],"anonymous":false},{"type":"event","name":"ScheduleCancelled","inputs":[{"name":"user","type":"address","indexed":true,"internalType":"address"},{"name":"docRefunded","type":"uint256","indexed":false,"internalType":"uint256"}],"anonymous":false},{"type":"event","name":"ScheduleCreated","inputs":[{"name":"user","type":"address","indexed":true,"internalType":"address"},{"name":"depositAmount","type":"uint256","indexed":false,"internalType":"uint256"},{"name":"purchaseAmount","type":"uint256","indexed":false,"internalType":"uint256"},{"name":"purchasePeriod","type":"uint256","indexed":false,"internalType":"uint256"}],"anonymous":false},{"type":"event","name":"ScheduleDeactivated","inputs":[{"name":"user","type":"address","indexed":true,"internalType":"address"}],"anonymous":false},{"type":"event","name":"ScheduleUpdated","inputs":[{"name":"user","type":"address","indexed":true,"internalType":"address"},{"name":"purchaseAmount","type":"uint256","indexed":false,"internalType":"uint256"},{"name":"purchasePeriod","type":"uint256","indexed":false,"internalType":"uint256"}],"anonymous":false}],"bytecode":{"object":"0x6101006040523480156200001257600080fd5b5060405162004e9b38038062004e9b8339818101604052810190620000389190620001ff565b33600460006101000a81548173ffffffffffffffffffffffffffffffffffffffff021916908373ffffffffffffffffffffffffffffffffffffffff16021790555084600560006101000a81548173ffffffffffffffffffffffffffffffffffffffff021916908373ffffffffffffffffffffffffffffffffffffffff1602179055508373ffffffffffffffffffffffffffffffffffffffff1660808173ffffffffffffffffffffffffffffffffffffffff16815250508273ffffffffffffffffffffffffffffffffffffffff1660c08173ffffffffffffffffffffffffffffffffffffffff16815250508173ffffffffffffffffffffffffffffffffffffffff1660a08173ffffffffffffffffffffffffffffffffffffffff16815250508073ffffffffffffffffffffffffffffffffffffffff1660e08173ffffffffffffffffffffffffffffffffffffffff1681525050505050505062000287565b600080fd5b600073ffffffffffffffffffffffffffffffffffffffff82169050919050565b6000620001c7826200019a565b9050919050565b620001d981620001ba565b8114620001e557600080fd5b50565b600081519050620001f981620001ce565b92915050565b600080600080600060a086880312156200021e576200021d62000195565b5b60006200022e88828901620001e8565b95505060206200024188828901620001e8565b94505060406200025488828901620001e8565b93505060606200026788828901620001e8565b92505060806200027a88828901620001e8565b9150509295509295909350565b60805160a05160c05160e051614b4e6200034d6000396000818161023701528181612283015281816126fe015281816127cb0152818161288501526130a30152600081816101e201528181610e380152612f17015260008181611d230152818161297101528181612a9501528181612b5a0152612c00015260008181610c2d015281816111dc01528181611486015281816117a401528181611b94015281816120be01528181612a5801528181612b1e01528181612e760152612fa40152614b4e6000f3fe6080604052600436106101db5760003560e01c806383039d5d11610102578063ba7db95211610095578063d39fee3411610064578063d39fee341461079f578063e6671f90146107dc578063ec57eb2014610805578063f2fde38b14610842576102fc565b8063ba7db952146106f5578063bbccf15414610720578063bf333f2c1461074b578063d27b4f7114610776576102fc565b8063a0943142116100d1578063a09431421461064b578063a8bef5ef14610676578063aced16611461069f578063b5cb15f7146106ca576102fc565b806383039d5d146105a3578063894fa721146105cc5780638da5cb5b146105f75780639b92e68814610622576102fc565b80634209fff11161017a5780635baa3a07116101495780635baa3a07146104e25780636d370ff21461050d578063748747e61461053857806380c3780f14610561576102fc565b80634209fff11461043a578063476343ee146104775780635294bac81461048e57806354545bfb146104b7576102fc565b806323444a04116101b657806323444a041461036c578063365b98b21461039757806336954cc7146103d457806339ef448414610411576102fc565b8062112c5d146103015780630a971ecb1461033e5780630c3ccb0e14610355576102fc565b366102fc577f000000000000000000000000000000000000000000000000000000000000000073ffffffffffffffffffffffffffffffffffffffff163373ffffffffffffffffffffffffffffffffffffffff16148061028557507f000000000000000000000000000000000000000000000000000000000000000073ffffffffffffffffffffffffffffffffffffffff163373ffffffffffffffffffffffffffffffffffffffff16145b806102bb57503073ffffffffffffffffffffffffffffffffffffffff163373ffffffffffffffffffffffffffffffffffffffff16145b6102fa576040517f08c379a00000000000000000000000000000000000000000000000000000000081526004016102f190613379565b60405180910390fd5b005b600080fd5b34801561030d57600080fd5b5061032860048036038101906103239190613401565b61086b565b6040516103359190613447565b60405180910390f35b34801561034a57600080fd5b506103536108b7565b005b34801561036157600080fd5b5061036a610ada565b005b34801561037857600080fd5b50610381610e36565b60405161038e91906134c1565b60405180910390f35b3480156103a357600080fd5b506103be60048036038101906103b99190613508565b610e5a565b6040516103cb9190613544565b60405180910390f35b3480156103e057600080fd5b506103fb60048036038101906103f69190613401565b610e99565b6040516104089190613447565b60405180910390f35b34801561041d57600080fd5b50610438600480360381019061043391906135c4565b610ee5565b005b34801561044657600080fd5b50610461600480360381019061045c9190613401565b6110d8565b60405161046e919061362c565b60405180910390f35b34801561048357600080fd5b5061048c6110f8565b005b34801561049a57600080fd5b506104b560048036038101906104b09190613647565b6112dc565b005b3480156104c357600080fd5b506104cc611795565b6040516104d99190613447565b60405180910390f35b3480156104ee57600080fd5b506104f76117a2565b60405161050491906136bb565b60405180910390f35b34801561051957600080fd5b506105226117c6565b60405161052f9190613447565b60405180910390f35b34801561054457600080fd5b5061055f600480360381019061055a9190613401565b6117cc565b005b34801561056d57600080fd5b5061058860048036038101906105839190613401565b61198b565b60405161059a969594939291906136d6565b60405180910390f35b3480156105af57600080fd5b506105ca60048036038101906105c59190613508565b6119d4565b005b3480156105d857600080fd5b506105e1611d21565b6040516105ee9190613758565b60405180910390f35b34801561060357600080fd5b5061060c611d45565b6040516106199190613544565b60405180910390f35b34801561062e57600080fd5b5061064960048036038101906106449190613401565b611d6b565b005b34801561065757600080fd5b50610660611e07565b60405161066d9190613831565b60405180910390f35b34801561068257600080fd5b5061069d60048036038101906106989190613508565b611fea565b005b3480156106ab57600080fd5b506106b461224e565b6040516106c19190613544565b60405180910390f35b3480156106d657600080fd5b506106df612274565b6040516106ec9190613447565b60405180910390f35b34801561070157600080fd5b5061070a612281565b6040516107179190613874565b60405180910390f35b34801561072c57600080fd5b506107356122a5565b6040516107429190613447565b60405180910390f35b34801561075757600080fd5b506107606122ac565b60405161076d9190613447565b60405180910390f35b34801561078257600080fd5b5061079d60048036038101906107989190613401565b6122b1565b005b3480156107ab57600080fd5b506107c660048036038101906107c19190613401565b61232b565b6040516107d39190613928565b60405180910390f35b3480156107e857600080fd5b5061080360048036038101906107fe9190613943565b6123d1565b005b34801561081157600080fd5b5061082c60048036038101906108279190613401565b6125a5565b604051610839919061362c565b60405180910390f35b34801561084e57600080fd5b5061086960048036038101906108649190613401565b6125b7565b005b6000600160008373ffffffffffffffffffffffffffffffffffffffff1673ffffffffffffffffffffffffffffffffffffffff168152602001908152602001600020600001549050919050565b60008054906101000a900460ff1615610905576040517f08c379a00000000000000000000000000000000000000000000000000000000081526004016108fc906139cf565b60405180910390fd5b60016000806101000a81548160ff0219169083151502179055506000600160003373ffffffffffffffffffffffffffffffffffffffff1673ffffffffffffffffffffffffffffffffffffffff1681526020019081526020016000209050600081600401549050600081116109ae576040517f08c379a00000000000000000000000000000000000000000000000000000000081526004016109a590613a3b565b60405180910390fd5b600082600401819055506109c1816126fa565b60003373ffffffffffffffffffffffffffffffffffffffff16826040516109e790613a8c565b60006040518083038185875af1925050503d8060008114610a24576040519150601f19603f3d011682016040523d82523d6000602084013e610a29565b606091505b5050905080610a6d576040517f08c379a0000000000000000000000000000000000000000000000000000000008152600401610a6490613aed565b60405180910390fd5b3373ffffffffffffffffffffffffffffffffffffffff167fc02359ae5b9520fe5b9526985687758fac3218ba9521711728056b0abadd3d6883604051610ab39190613447565b60405180910390a250505060008060006101000a81548160ff021916908315150217905550565b60008054906101000a900460ff1615610b28576040517f08c379a0000000000000000000000000000000000000000000000000000000008152600401610b1f906139cf565b60405180910390fd5b60016000806101000a81548160ff0219169083151502179055506000600160003373ffffffffffffffffffffffffffffffffffffffff1673ffffffffffffffffffffffffffffffffffffffff16815260200190815260200160002090508060050160009054906101000a900460ff16610bd6576040517f08c379a0000000000000000000000000000000000000000000000000000000008152600401610bcd90613b59565b60405180910390fd5b60008160000154905060008260040154905060008360050160006101000a81548160ff02191690831515021790555060008360000181905550600083600401819055506000821115610d0957610c2b8261296d565b7f000000000000000000000000000000000000000000000000000000000000000073ffffffffffffffffffffffffffffffffffffffff1663a9059cbb33846040518363ffffffff1660e01b8152600401610c86929190613b79565b6020604051808303816000875af1158015610ca5573d6000803e3d6000fd5b505050506040513d601f19601f82011682018060405250810190610cc99190613bce565b610d08576040517f08c379a0000000000000000000000000000000000000000000000000000000008152600401610cff90613c47565b60405180910390fd5b5b6000811115610dc957610d1b816126fa565b60003373ffffffffffffffffffffffffffffffffffffffff1682604051610d4190613a8c565b60006040518083038185875af1925050503d8060008114610d7e576040519150601f19603f3d011682016040523d82523d6000602084013e610d83565b606091505b5050905080610dc7576040517f08c379a0000000000000000000000000000000000000000000000000000000008152600401610dbe90613cb3565b60405180910390fd5b505b3373ffffffffffffffffffffffffffffffffffffffff167faba046ef324ae07859488900d542d47a094f3a89259cd5a3c3fa44f9a12b144a83604051610e0f9190613447565b60405180910390a250505060008060006101000a81548160ff021916908315150217905550565b7f000000000000000000000000000000000000000000000000000000000000000081565b60028181548110610e6a57600080fd5b906000526020600020016000915054906101000a900473ffffffffffffffffffffffffffffffffffffffff1681565b6000600160008373ffffffffffffffffffffffffffffffffffffffff1673ffffffffffffffffffffffffffffffffffffffff168152602001908152602001600020600401549050919050565b600560009054906101000a900473ffffffffffffffffffffffffffffffffffffffff1673ffffffffffffffffffffffffffffffffffffffff163373ffffffffffffffffffffffffffffffffffffffff1614610f75576040517f08c379a0000000000000000000000000000000000000000000000000000000008152600401610f6c90613d1f565b60405180910390fd5b60005b828290508110156110d3573073ffffffffffffffffffffffffffffffffffffffff1663d27b4f71848484818110610fb257610fb1613d3f565b5b9050602002016020810190610fc79190613401565b6040518263ffffffff1660e01b8152600401610fe39190613544565b600060405180830381600087803b158015610ffd57600080fd5b505af192505050801561100e575060015b6110bf573d806000811461103e576040519150601f19603f3d011682016040523d82523d6000602084013e611043565b606091505b5083838381811061105757611056613d3f565b5b905060200201602081019061106c9190613401565b73ffffffffffffffffffffffffffffffffffffffff167ff2432448bd7f4f83571af712c44c366acd66e1c64f00b76f244ffe5d48383e09826040516110b19190613dfe565b60405180910390a2506110c0565b5b80806110cb90613e4f565b915050610f78565b505050565b60036020528060005260406000206000915054906101000a900460ff1681565b600460009054906101000a900473ffffffffffffffffffffffffffffffffffffffff1673ffffffffffffffffffffffffffffffffffffffff163373ffffffffffffffffffffffffffffffffffffffff1614611188576040517f08c379a000000000000000000000000000000000000000000000000000000000815260040161117f90613ee3565b60405180910390fd5b60006006549050600081116111d2576040517f08c379a00000000000000000000000000000000000000000000000000000000081526004016111c990613f4f565b60405180910390fd5b60006006819055507f000000000000000000000000000000000000000000000000000000000000000073ffffffffffffffffffffffffffffffffffffffff1663a9059cbb600460009054906101000a900473ffffffffffffffffffffffffffffffffffffffff16836040518363ffffffff1660e01b8152600401611257929190613b79565b6020604051808303816000875af1158015611276573d6000803e3d6000fd5b505050506040513d601f19601f8201168201806040525081019061129a9190613bce565b6112d9576040517f08c379a00000000000000000000000000000000000000000000000000000000081526004016112d090613fbb565b60405180910390fd5b50565b600160003373ffffffffffffffffffffffffffffffffffffffff1673ffffffffffffffffffffffffffffffffffffffff16815260200190815260200160002060050160009054906101000a900460ff161561136c576040517f08c379a000000000000000000000000000000000000000000000000000000000815260040161136390614027565b60405180910390fd5b600083116113af576040517f08c379a00000000000000000000000000000000000000000000000000000000081526004016113a690614093565b60405180910390fd5b68015af1d78b58c400008210156113fb576040517f08c379a00000000000000000000000000000000000000000000000000000000081526004016113f290614125565b60405180910390fd5b62015180811015611441576040517f08c379a000000000000000000000000000000000000000000000000000000000815260040161143890614191565b60405180910390fd5b82821115611484576040517f08c379a000000000000000000000000000000000000000000000000000000000815260040161147b906141fd565b60405180910390fd5b7f000000000000000000000000000000000000000000000000000000000000000073ffffffffffffffffffffffffffffffffffffffff166323b872dd3330866040518463ffffffff1660e01b81526004016114e19392919061421d565b6020604051808303816000875af1158015611500573d6000803e3d6000fd5b505050506040513d601f19601f820116820180604052508101906115249190613bce565b611563576040517f08c379a000000000000000000000000000000000000000000000000000000000815260040161155a906142a0565b60405180910390fd5b61156c83612a54565b600360003373ffffffffffffffffffffffffffffffffffffffff1673ffffffffffffffffffffffffffffffffffffffff16815260200190815260200160002060009054906101000a900460ff16611679576002339080600181540180825580915050600190039060005260206000200160009091909190916101000a81548173ffffffffffffffffffffffffffffffffffffffff021916908373ffffffffffffffffffffffffffffffffffffffff1602179055506001600360003373ffffffffffffffffffffffffffffffffffffffff1673ffffffffffffffffffffffffffffffffffffffff16815260200190815260200160002060006101000a81548160ff0219169083151502179055505b6040518060c001604052808481526020018381526020018281526020014281526020016000815260200160011515815250600160003373ffffffffffffffffffffffffffffffffffffffff1673ffffffffffffffffffffffffffffffffffffffff168152602001908152602001600020600082015181600001556020820151816001015560408201518160020155606082015181600301556080820151816004015560a08201518160050160006101000a81548160ff0219169083151502179055509050503373ffffffffffffffffffffffffffffffffffffffff167f5ab0cb75fe24f04dbfe14b847f8579bc91baa153ee5b2758fcfa59f33675b162848484604051611788939291906142c0565b60405180910390a2505050565b68015af1d78b58c4000081565b7f000000000000000000000000000000000000000000000000000000000000000081565b60065481565b600460009054906101000a900473ffffffffffffffffffffffffffffffffffffffff1673ffffffffffffffffffffffffffffffffffffffff163373ffffffffffffffffffffffffffffffffffffffff161461185c576040517f08c379a000000000000000000000000000000000000000000000000000000000815260040161185390613ee3565b60405180910390fd5b600073ffffffffffffffffffffffffffffffffffffffff168173ffffffffffffffffffffffffffffffffffffffff16036118cb576040517f08c379a00000000000000000000000000000000000000000000000000000000081526004016118c290614343565b60405180910390fd5b8073ffffffffffffffffffffffffffffffffffffffff16600560009054906101000a900473ffffffffffffffffffffffffffffffffffffffff1673ffffffffffffffffffffffffffffffffffffffff167f53d3703fe259def57584466f32d1b94c30278008c683c21b04501c4966f13a6960405160405180910390a380600560006101000a81548173ffffffffffffffffffffffffffffffffffffffff021916908373ffffffffffffffffffffffffffffffffffffffff16021790555050565b60016020528060005260406000206000915090508060000154908060010154908060020154908060030154908060040154908060050160009054906101000a900460ff16905086565b60008054906101000a900460ff1615611a22576040517f08c379a0000000000000000000000000000000000000000000000000000000008152600401611a19906139cf565b60405180910390fd5b60016000806101000a81548160ff0219169083151502179055506000600160003373ffffffffffffffffffffffffffffffffffffffff1673ffffffffffffffffffffffffffffffffffffffff16815260200190815260200160002090508060050160009054906101000a900460ff16611ad0576040517f08c379a0000000000000000000000000000000000000000000000000000000008152600401611ac790613b59565b60405180910390fd5b600082118015611ae4575080600001548211155b611b23576040517f08c379a0000000000000000000000000000000000000000000000000000000008152600401611b1a906143af565b60405180910390fd5b6000828260000154611b3591906143cf565b90506000811480611b4a575081600101548110155b611b89576040517f08c379a0000000000000000000000000000000000000000000000000000000008152600401611b809061444f565b60405180910390fd5b611b928361296d565b7f000000000000000000000000000000000000000000000000000000000000000073ffffffffffffffffffffffffffffffffffffffff1663a9059cbb33856040518363ffffffff1660e01b8152600401611bed929190613b79565b6020604051808303816000875af1158015611c0c573d6000803e3d6000fd5b505050506040513d601f19601f82011682018060405250810190611c309190613bce565b611c6f576040517f08c379a0000000000000000000000000000000000000000000000000000000008152600401611c66906142a0565b60405180910390fd5b82826000016000828254611c8391906143cf565b925050819055506000826000015403611cb45760008260050160006101000a81548160ff0219169083151502179055505b3373ffffffffffffffffffffffffffffffffffffffff167f93fb9cc0cf6b85f4aae7dbb495816dfd988aee8c18418e470998deabb855e74f84604051611cfa9190613447565b60405180910390a2505060008060006101000a81548160ff02191690831515021790555050565b7f000000000000000000000000000000000000000000000000000000000000000081565b600460009054906101000a900473ffffffffffffffffffffffffffffffffffffffff1681565b600560009054906101000a900473ffffffffffffffffffffffffffffffffffffffff1673ffffffffffffffffffffffffffffffffffffffff163373ffffffffffffffffffffffffffffffffffffffff1614611dfb576040517f08c379a0000000000000000000000000000000000000000000000000000000008152600401611df290613d1f565b60405180910390fd5b611e0481612ce4565b50565b6060600060028054905090506000805b82811015611e8d57611e6660028281548110611e3657611e35613d3f565b5b9060005260206000200160009054906101000a900473ffffffffffffffffffffffffffffffffffffffff16613253565b15611e7a578180611e7690613e4f565b9250505b8080611e8590613e4f565b915050611e17565b5060008167ffffffffffffffff811115611eaa57611ea961446f565b5b604051908082528060200260200182016040528015611ed85781602001602082028036833780820191505090505b5090506000805b84811015611fdf57611f2e60028281548110611efe57611efd613d3f565b5b9060005260206000200160009054906101000a900473ffffffffffffffffffffffffffffffffffffffff16613253565b15611fcc5760028181548110611f4757611f46613d3f565b5b9060005260206000200160009054906101000a900473ffffffffffffffffffffffffffffffffffffffff16838380611f7e90613e4f565b945081518110611f9157611f90613d3f565b5b602002602001019073ffffffffffffffffffffffffffffffffffffffff16908173ffffffffffffffffffffffffffffffffffffffff16815250505b8080611fd790613e4f565b915050611edf565b508194505050505090565b600160003373ffffffffffffffffffffffffffffffffffffffff1673ffffffffffffffffffffffffffffffffffffffff16815260200190815260200160002060050160009054906101000a900460ff16612079576040517f08c379a000000000000000000000000000000000000000000000000000000000815260040161207090613b59565b60405180910390fd5b600081116120bc576040517f08c379a00000000000000000000000000000000000000000000000000000000081526004016120b3906144ea565b60405180910390fd5b7f000000000000000000000000000000000000000000000000000000000000000073ffffffffffffffffffffffffffffffffffffffff166323b872dd3330846040518463ffffffff1660e01b81526004016121199392919061421d565b6020604051808303816000875af1158015612138573d6000803e3d6000fd5b505050506040513d601f19601f8201168201806040525081019061215c9190613bce565b61219b576040517f08c379a0000000000000000000000000000000000000000000000000000000008152600401612192906142a0565b60405180910390fd5b6121a481612a54565b80600160003373ffffffffffffffffffffffffffffffffffffffff1673ffffffffffffffffffffffffffffffffffffffff16815260200190815260200160002060000160008282546121f6919061450a565b925050819055503373ffffffffffffffffffffffffffffffffffffffff167f2da466a7b24304f47e87fa2e1e5a81b9831ce54fec19055ce277ca2f39ba42c4826040516122439190613447565b60405180910390a250565b600560009054906101000a900473ffffffffffffffffffffffffffffffffffffffff1681565b6000600280549050905090565b7f000000000000000000000000000000000000000000000000000000000000000081565b6201518081565b603281565b3073ffffffffffffffffffffffffffffffffffffffff163373ffffffffffffffffffffffffffffffffffffffff161461231f576040517f08c379a00000000000000000000000000000000000000000000000000000000081526004016123169061458a565b60405180910390fd5b61232881612ce4565b50565b6123336132e4565b600160008373ffffffffffffffffffffffffffffffffffffffff1673ffffffffffffffffffffffffffffffffffffffff1681526020019081526020016000206040518060c001604052908160008201548152602001600182015481526020016002820154815260200160038201548152602001600482015481526020016005820160009054906101000a900460ff1615151515815250509050919050565b6000600160003373ffffffffffffffffffffffffffffffffffffffff1673ffffffffffffffffffffffffffffffffffffffff16815260200190815260200160002090508060050160009054906101000a900460ff16612465576040517f08c379a000000000000000000000000000000000000000000000000000000000815260040161245c90613b59565b60405180910390fd5b68015af1d78b58c400008310156124b1576040517f08c379a00000000000000000000000000000000000000000000000000000000081526004016124a8906145f6565b60405180910390fd5b620151808210156124f7576040517f08c379a00000000000000000000000000000000000000000000000000000000081526004016124ee90614662565b60405180910390fd5b806000015483111561253e576040517f08c379a0000000000000000000000000000000000000000000000000000000008152600401612535906146ce565b60405180910390fd5b8281600101819055508181600201819055503373ffffffffffffffffffffffffffffffffffffffff167f37b50b476a1c3aad70878aea9298883f0df1f4a4a73a2a1a624fe6be4ad5588384846040516125989291906146ee565b60405180910390a2505050565b60006125b082613253565b9050919050565b600460009054906101000a900473ffffffffffffffffffffffffffffffffffffffff1673ffffffffffffffffffffffffffffffffffffffff163373ffffffffffffffffffffffffffffffffffffffff1614612647576040517f08c379a000000000000000000000000000000000000000000000000000000000815260040161263e90613ee3565b60405180910390fd5b600073ffffffffffffffffffffffffffffffffffffffff168173ffffffffffffffffffffffffffffffffffffffff16036126b6576040517f08c379a00000000000000000000000000000000000000000000000000000000081526004016126ad90614343565b60405180910390fd5b80600460006101000a81548173ffffffffffffffffffffffffffffffffffffffff021916908373ffffffffffffffffffffffffffffffffffffffff16021790555050565b60007f000000000000000000000000000000000000000000000000000000000000000073ffffffffffffffffffffffffffffffffffffffff1663182df0f56040518163ffffffff1660e01b8152600401602060405180830381865afa158015612767573d6000803e3d6000fd5b505050506040513d601f19601f8201168201806040525081019061278b919061472c565b9050600081600183670de0b6b3a7640000866127a79190614759565b6127b1919061450a565b6127bb91906143cf565b6127c591906147ca565b905060007f000000000000000000000000000000000000000000000000000000000000000073ffffffffffffffffffffffffffffffffffffffff166370a08231306040518263ffffffff1660e01b81526004016128229190613544565b602060405180830381865afa15801561283f573d6000803e3d6000fd5b505050506040513d601f19601f82011682018060405250810190612863919061472c565b905060008183116128745782612876565b815b905060008111156129665760007f000000000000000000000000000000000000000000000000000000000000000073ffffffffffffffffffffffffffffffffffffffff1663db006a75836040518263ffffffff1660e01b81526004016128dc9190613447565b6020604051808303816000875af11580156128fb573d6000803e3d6000fd5b505050506040513d601f19601f8201168201806040525081019061291f919061472c565b905060008114612964576040517f08c379a000000000000000000000000000000000000000000000000000000000815260040161295b90614847565b60405180910390fd5b505b5050505050565b60007f000000000000000000000000000000000000000000000000000000000000000073ffffffffffffffffffffffffffffffffffffffff1663852a12e3836040518263ffffffff1660e01b81526004016129c89190613447565b6020604051808303816000875af11580156129e7573d6000803e3d6000fd5b505050506040513d601f19601f82011682018060405250810190612a0b919061472c565b905060008114612a50576040517f08c379a0000000000000000000000000000000000000000000000000000000008152600401612a47906148b3565b60405180910390fd5b5050565b60007f000000000000000000000000000000000000000000000000000000000000000073ffffffffffffffffffffffffffffffffffffffff1663dd62ed3e307f00000000000000000000000000000000000000000000000000000000000000006040518363ffffffff1660e01b8152600401612ad19291906148d3565b602060405180830381865afa158015612aee573d6000803e3d6000fd5b505050506040513d601f19601f82011682018060405250810190612b12919061472c565b905081811015612bfc577f000000000000000000000000000000000000000000000000000000000000000073ffffffffffffffffffffffffffffffffffffffff1663095ea7b37f00000000000000000000000000000000000000000000000000000000000000007fffffffffffffffffffffffffffffffffffffffffffffffffffffffffffffffff6040518363ffffffff1660e01b8152600401612bb7929190613b79565b6020604051808303816000875af1158015612bd6573d6000803e3d6000fd5b505050506040513d601f19601f82011682018060405250810190612bfa9190613bce565b505b60007f000000000000000000000000000000000000000000000000000000000000000073ffffffffffffffffffffffffffffffffffffffff1663a0712d68846040518263ffffffff1660e01b8152600401612c579190613447565b6020604051808303816000875af1158015612c76573d6000803e3d6000fd5b505050506040513d601f19601f82011682018060405250810190612c9a919061472c565b905060008114612cdf576040517f08c379a0000000000000000000000000000000000000000000000000000000008152600401612cd690614948565b60405180910390fd5b505050565b6000600160008373ffffffffffffffffffffffffffffffffffffffff1673ffffffffffffffffffffffffffffffffffffffff16815260200190815260200160002090508060050160009054906101000a900460ff16612d78576040517f08c379a0000000000000000000000000000000000000000000000000000000008152600401612d6f906149b4565b60405180910390fd5b80600201548160030154612d8c919061450a565b421015612dce576040517f08c379a0000000000000000000000000000000000000000000000000000000008152600401612dc590614a20565b60405180910390fd5b806001015481600001541015612e19576040517f08c379a0000000000000000000000000000000000000000000000000000000008152600401612e1090614a8c565b60405180910390fd5b600081600101549050612e2b8161296d565b6000612710603283612e3d9190614759565b612e4791906147ca565b905060008183612e5791906143cf565b90508160066000828254612e6b919061450a565b9250508190555060007f000000000000000000000000000000000000000000000000000000000000000073ffffffffffffffffffffffffffffffffffffffff166370a08231306040518263ffffffff1660e01b8152600401612ecd9190613544565b602060405180830381865afa158015612eea573d6000803e3d6000fd5b505050506040513d601f19601f82011682018060405250810190612f0e919061472c565b905060004790507f000000000000000000000000000000000000000000000000000000000000000073ffffffffffffffffffffffffffffffffffffffff166350771849846040518263ffffffff1660e01b8152600401612f6e9190613447565b600060405180830381600087803b158015612f8857600080fd5b505af1158015612f9c573d6000803e3d6000fd5b5050505060007f000000000000000000000000000000000000000000000000000000000000000073ffffffffffffffffffffffffffffffffffffffff166370a08231306040518263ffffffff1660e01b8152600401612ffb9190613544565b602060405180830381865afa158015613018573d6000803e3d6000fd5b505050506040513d601f19601f8201168201806040525081019061303c919061472c565b90506000824761304c91906143cf565b90506000828561305c91906143cf565b9050600082116130a1576040517f08c379a000000000000000000000000000000000000000000000000000000000815260040161309890614af8565b60405180910390fd5b7f000000000000000000000000000000000000000000000000000000000000000073ffffffffffffffffffffffffffffffffffffffff16631249c58b836040518263ffffffff1660e01b815260040160206040518083038185885af115801561310e573d6000803e3d6000fd5b50505050506040513d601f19601f82011682018060405250810190613133919061472c565b5060008782613142919061450a565b9050808a600001600082825461315891906143cf565b92505081905550828a6004016000828254613173919061450a565b92505081905550428a6003018190555089600101548a6000015410156131f45760008a60050160006101000a81548160ff0219169083151502179055508a73ffffffffffffffffffffffffffffffffffffffff167f2d69daea880a48b9ba3d6212ecaf359bcccb6a1d6cd877b45ac710871112379d60405160405180910390a25b8a73ffffffffffffffffffffffffffffffffffffffff167f15777b4b303a33d44b8a36b2b09cc7c9470c9a4bf551312cc5c23dd025c0477a8a858b60405161323e939291906142c0565b60405180910390a25050505050505050505050565b600080600160008473ffffffffffffffffffffffffffffffffffffffff1673ffffffffffffffffffffffffffffffffffffffff16815260200190815260200160002090508060050160009054906101000a900460ff1680156132c85750806002015481600301546132c4919061450a565b4210155b80156132dc57508060010154816000015410155b915050919050565b6040518060c0016040528060008152602001600081526020016000815260200160008152602001600081526020016000151581525090565b600082825260208201905092915050565b7f4f6e6c79204d6f432f6b52425443000000000000000000000000000000000000600082015250565b6000613363600e8361331c565b915061336e8261332d565b602082019050919050565b6000602082019050818103600083015261339281613356565b9050919050565b600080fd5b600080fd5b600073ffffffffffffffffffffffffffffffffffffffff82169050919050565b60006133ce826133a3565b9050919050565b6133de816133c3565b81146133e957600080fd5b50565b6000813590506133fb816133d5565b92915050565b60006020828403121561341757613416613399565b5b6000613425848285016133ec565b91505092915050565b6000819050919050565b6134418161342e565b82525050565b600060208201905061345c6000830184613438565b92915050565b6000819050919050565b600061348761348261347d846133a3565b613462565b6133a3565b9050919050565b60006134998261346c565b9050919050565b60006134ab8261348e565b9050919050565b6134bb816134a0565b82525050565b60006020820190506134d660008301846134b2565b92915050565b6134e58161342e565b81146134f057600080fd5b50565b600081359050613502816134dc565b92915050565b60006020828403121561351e5761351d613399565b5b600061352c848285016134f3565b91505092915050565b61353e816133c3565b82525050565b60006020820190506135596000830184613535565b92915050565b600080fd5b600080fd5b600080fd5b60008083601f8401126135845761358361355f565b5b8235905067ffffffffffffffff8111156135a1576135a0613564565b5b6020830191508360208202830111156135bd576135bc613569565b5b9250929050565b600080602083850312156135db576135da613399565b5b600083013567ffffffffffffffff8111156135f9576135f861339e565b5b6136058582860161356e565b92509250509250929050565b60008115159050919050565b61362681613611565b82525050565b6000602082019050613641600083018461361d565b92915050565b6000806000606084860312156136605761365f613399565b5b600061366e868287016134f3565b935050602061367f868287016134f3565b9250506040613690868287016134f3565b9150509250925092565b60006136a58261348e565b9050919050565b6136b58161369a565b82525050565b60006020820190506136d060008301846136ac565b92915050565b600060c0820190506136eb6000830189613438565b6136f86020830188613438565b6137056040830187613438565b6137126060830186613438565b61371f6080830185613438565b61372c60a083018461361d565b979650505050505050565b60006137428261348e565b9050919050565b61375281613737565b82525050565b600060208201905061376d6000830184613749565b92915050565b600081519050919050565b600082825260208201905092915050565b6000819050602082019050919050565b6137a8816133c3565b82525050565b60006137ba838361379f565b60208301905092915050565b6000602082019050919050565b60006137de82613773565b6137e8818561377e565b93506137f38361378f565b8060005b8381101561382457815161380b88826137ae565b9750613816836137c6565b9250506001810190506137f7565b5085935050505092915050565b6000602082019050818103600083015261384b81846137d3565b905092915050565b600061385e8261348e565b9050919050565b61386e81613853565b82525050565b60006020820190506138896000830184613865565b92915050565b6138988161342e565b82525050565b6138a781613611565b82525050565b60c0820160008201516138c3600085018261388f565b5060208201516138d6602085018261388f565b5060408201516138e9604085018261388f565b5060608201516138fc606085018261388f565b50608082015161390f608085018261388f565b5060a082015161392260a085018261389e565b50505050565b600060c08201905061393d60008301846138ad565b92915050565b6000806040838503121561395a57613959613399565b5b6000613968858286016134f3565b9250506020613979858286016134f3565b9150509250929050565b7f5265656e7472616e740000000000000000000000000000000000000000000000600082015250565b60006139b960098361331c565b91506139c482613983565b602082019050919050565b600060208201905081810360008301526139e8816139ac565b9050919050565b7f4e6f205242544320746f20776974686472617700000000000000000000000000600082015250565b6000613a2560138361331c565b9150613a30826139ef565b602082019050919050565b60006020820190508181036000830152613a5481613a18565b9050919050565b600081905092915050565b50565b6000613a76600083613a5b565b9150613a8182613a66565b600082019050919050565b6000613a9782613a69565b9150819050919050565b7f52425443207472616e73666572206661696c6564000000000000000000000000600082015250565b6000613ad760148361331c565b9150613ae282613aa1565b602082019050919050565b60006020820190508181036000830152613b0681613aca565b9050919050565b7f4e6f20616374697665207363686564756c650000000000000000000000000000600082015250565b6000613b4360128361331c565b9150613b4e82613b0d565b602082019050919050565b60006020820190508181036000830152613b7281613b36565b9050919050565b6000604082019050613b8e6000830185613535565b613b9b6020830184613438565b9392505050565b613bab81613611565b8114613bb657600080fd5b50565b600081519050613bc881613ba2565b92915050565b600060208284031215613be457613be3613399565b5b6000613bf284828501613bb9565b91505092915050565b7f444f4320726566756e64206661696c6564000000000000000000000000000000600082015250565b6000613c3160118361331c565b9150613c3c82613bfb565b602082019050919050565b60006020820190508181036000830152613c6081613c24565b9050919050565b7f5242544320726566756e64206661696c65640000000000000000000000000000600082015250565b6000613c9d60128361331c565b9150613ca882613c67565b602082019050919050565b60006020820190508181036000830152613ccc81613c90565b9050919050565b7f4e6f74206b656570657200000000000000000000000000000000000000000000600082015250565b6000613d09600a8361331c565b9150613d1482613cd3565b602082019050919050565b60006020820190508181036000830152613d3881613cfc565b9050919050565b7f4e487b7100000000000000000000000000000000000000000000000000000000600052603260045260246000fd5b600081519050919050565b600082825260208201905092915050565b60005b83811015613da8578082015181840152602081019050613d8d565b60008484015250505050565b6000601f19601f8301169050919050565b6000613dd082613d6e565b613dda8185613d79565b9350613dea818560208601613d8a565b613df381613db4565b840191505092915050565b60006020820190508181036000830152613e188184613dc5565b905092915050565b7f4e487b7100000000000000000000000000000000000000000000000000000000600052601160045260246000fd5b6000613e5a8261342e565b91507fffffffffffffffffffffffffffffffffffffffffffffffffffffffffffffffff8203613e8c57613e8b613e20565b5b600182019050919050565b7f4e6f74206f776e65720000000000000000000000000000000000000000000000600082015250565b6000613ecd60098361331c565b9150613ed882613e97565b602082019050919050565b60006020820190508181036000830152613efc81613ec0565b9050919050565b7f4e6f206665657300000000000000000000000000000000000000000000000000600082015250565b6000613f3960078361331c565b9150613f4482613f03565b602082019050919050565b60006020820190508181036000830152613f6881613f2c565b9050919050565b7f466565207472616e73666572206661696c656400000000000000000000000000600082015250565b6000613fa560138361331c565b9150613fb082613f6f565b602082019050919050565b60006020820190508181036000830152613fd481613f98565b9050919050565b7f5363686564756c6520616c726561647920657869737473000000000000000000600082015250565b600061401160178361331c565b915061401c82613fdb565b602082019050919050565b6000602082019050818103600083015261404081614004565b9050919050565b7f4465706f736974206d757374206265203e203000000000000000000000000000600082015250565b600061407d60138361331c565b915061408882614047565b602082019050919050565b600060208201905081810360008301526140ac81614070565b9050919050565b7f507572636861736520616d6f756e7420746f6f206c6f7720286d696e2032352060008201527f444f432900000000000000000000000000000000000000000000000000000000602082015250565b600061410f60248361331c565b915061411a826140b3565b604082019050919050565b6000602082019050818103600083015261413e81614102565b9050919050565b7f506572696f6420746f6f2073686f727420286d696e2031206461792900000000600082015250565b600061417b601c8361331c565b915061418682614145565b602082019050919050565b600060208201905081810360008301526141aa8161416e565b9050919050565b7f507572636861736520616d6f756e74203e206465706f73697400000000000000600082015250565b60006141e760198361331c565b91506141f2826141b1565b602082019050919050565b60006020820190508181036000830152614216816141da565b9050919050565b60006060820190506142326000830186613535565b61423f6020830185613535565b61424c6040830184613438565b949350505050565b7f444f43207472616e73666572206661696c656400000000000000000000000000600082015250565b600061428a60138361331c565b915061429582614254565b602082019050919050565b600060208201905081810360008301526142b98161427d565b9050919050565b60006060820190506142d56000830186613438565b6142e26020830185613438565b6142ef6040830184613438565b949350505050565b7f5a65726f20616464726573730000000000000000000000000000000000000000600082015250565b600061432d600c8361331c565b9150614338826142f7565b602082019050919050565b6000602082019050818103600083015261435c81614320565b9050919050565b7f496e76616c696420616d6f756e74000000000000000000000000000000000000600082015250565b6000614399600e8361331c565b91506143a482614363565b602082019050919050565b600060208201905081810360008301526143c88161438c565b9050919050565b60006143da8261342e565b91506143e58361342e565b92508282039050818111156143fd576143fc613e20565b5b92915050565b7f52656d61696e696e6720746f6f206c6f7720666f722044434100000000000000600082015250565b600061443960198361331c565b915061444482614403565b602082019050919050565b600060208201905081810360008301526144688161442c565b9050919050565b7f4e487b7100000000000000000000000000000000000000000000000000000000600052604160045260246000fd5b7f416d6f756e74206d757374206265203e20300000000000000000000000000000600082015250565b60006144d460128361331c565b91506144df8261449e565b602082019050919050565b60006020820190508181036000830152614503816144c7565b9050919050565b60006145158261342e565b91506145208361342e565b925082820190508082111561453857614537613e20565b5b92915050565b7f4f6e6c792073656c660000000000000000000000000000000000000000000000600082015250565b600061457460098361331c565b915061457f8261453e565b602082019050919050565b600060208201905081810360008301526145a381614567565b9050919050565b7f507572636861736520616d6f756e7420746f6f206c6f77000000000000000000600082015250565b60006145e060178361331c565b91506145eb826145aa565b602082019050919050565b6000602082019050818103600083015261460f816145d3565b9050919050565b7f506572696f6420746f6f2073686f727400000000000000000000000000000000600082015250565b600061464c60108361331c565b915061465782614616565b602082019050919050565b6000602082019050818103600083015261467b8161463f565b9050919050565b7f507572636861736520616d6f756e74203e2062616c616e636500000000000000600082015250565b60006146b860198361331c565b91506146c382614682565b602082019050919050565b600060208201905081810360008301526146e7816146ab565b9050919050565b60006040820190506147036000830185613438565b6147106020830184613438565b9392505050565b600081519050614726816134dc565b92915050565b60006020828403121561474257614741613399565b5b600061475084828501614717565b91505092915050565b60006147648261342e565b915061476f8361342e565b925082820261477d8161342e565b9150828204841483151761479457614793613e20565b5b5092915050565b7f4e487b7100000000000000000000000000000000000000000000000000000000600052601260045260246000fd5b60006147d58261342e565b91506147e08361342e565b9250826147f0576147ef61479b565b5b828204905092915050565b7f6b524254432072656465656d206661696c656400000000000000000000000000600082015250565b600061483160138361331c565b915061483c826147fb565b602082019050919050565b6000602082019050818103600083015261486081614824565b9050919050565b7f6b444f432072656465656d206661696c65640000000000000000000000000000600082015250565b600061489d60128361331c565b91506148a882614867565b602082019050919050565b600060208201905081810360008301526148cc81614890565b9050919050565b60006040820190506148e86000830185613535565b6148f56020830184613535565b9392505050565b7f6b444f43206d696e74206661696c656400000000000000000000000000000000600082015250565b600061493260108361331c565b915061493d826148fc565b602082019050919050565b6000602082019050818103600083015261496181614925565b9050919050565b7f5363686564756c65206e6f742061637469766500000000000000000000000000600082015250565b600061499e60138361331c565b91506149a982614968565b602082019050919050565b600060208201905081810360008301526149cd81614991565b9050919050565b7f546f6f206561726c790000000000000000000000000000000000000000000000600082015250565b6000614a0a60098361331c565b9150614a15826149d4565b602082019050919050565b60006020820190508181036000830152614a39816149fd565b9050919050565b7f496e73756666696369656e7420444f4300000000000000000000000000000000600082015250565b6000614a7660108361331c565b9150614a8182614a40565b602082019050919050565b60006020820190508181036000830152614aa581614a69565b9050919050565b7f4d6f4320726564656d7074696f6e2072657475726e6564203000000000000000600082015250565b6000614ae260198361331c565b9150614aed82614aac565b602082019050919050565b60006020820190508181036000830152614b1181614ad5565b905091905056fea2646970667358221220c979cd058ea9eab0b2ab08059bc268c65b4a1878f735276185e9e7ef3337d4de64736f6c63430008130033","linkReferences":{}},"methodIdentifiers":{"DOC()":"5baa3a07","FEE_BPS()":"bf333f2c","KDOC()":"894fa721","KRBTC()":"ba7db952","MIN_PERIOD()":"bbccf154","MIN_PURCHASE_AMOUNT()":"54545bfb","MOC()":"23444a04","batchExecuteDca(address[])":"39ef4484","cancelSchedule()":"0c3ccb0e","createSchedule(uint256,uint256,uint256)":"5294bac8","depositMore(uint256)":"a8bef5ef","executeDca(address)":"9b92e688","executeDcaSelf(address)":"d27b4f71","feeAccumulated()":"6d370ff2","getDocBalance(address)":"00112c5d","getDueUsers()":"a0943142","getPendingRbtc(address)":"36954cc7","getSchedule(address)":"d39fee34","getUserCount()":"b5cb15f7","isDue(address)":"ec57eb20","isUser(address)":"4209fff1","keeper()":"aced1661","owner()":"8da5cb5b","schedules(address)":"80c3780f","setKeeper(address)":"748747e6","transferOwnership(address)":"f2fde38b","updateSchedule(uint256,uint256)":"e6671f90","users(uint256)":"365b98b2","withdrawDoc(uint256)":"83039d5d","withdrawFees()":"476343ee","withdrawRbtc()":"0a971ecb"},"id":16}