{"abi":[{"type":"constructor","inputs":[{"name":"_keeper","type":"address","internalType":"address"}],"stateMutability":"nonpayable"},{"type":"receive","stateMutability":"payable"},{"type":"function","name":"DOC","inputs":[],"outputs":[{"name":"","type":"address","internalType":"contract IERC20"}],"stateMutability":"view"},{"type":"function","name":"FEE_BPS","inputs":[],"outputs":[{"name":"","type":"uint256","internalType":"uint256"}],"stateMutability":"view"},{"type":"function","name":"KDOC","inputs":[],"outputs":[{"name":"","type":"address","internalType":"contract ICToken"}],"stateMutability":"view"},{"type":"function","name":"KRBTC","inputs":[],"outputs":[{"name":"","type":"address","internalType":"contract ICRbtc"}],"stateMutability":"view"},{"type":"function","name":"MIN_PERIOD","inputs":[],"outputs":[{"name":"","type":"uint256","internalType":"uint256"}],"stateMutability":"view"},{"type":"function","name":"MIN_PURCHASE_AMOUNT","inputs":[],"outputs":[{"name":"","type":"uint256","internalType":"uint256"}],"stateMutability":"view"},{"type":"function","name":"MOC","inputs":[],"outputs":[{"name":"","type":"address","internalType":"contract IMoC"}],"stateMutability":"view"},{"type":"function","name":"batchExecuteDca","inputs":[{"name":"_users","type":"address[]","internalType":"address[]"}],"outputs":[],"stateMutability":"nonpayable"},{"type":"function","name":"cancelSchedule","inputs":[],"outputs":[],"stateMutability":"nonpayable"},{"type":"function","name":"createSchedule","inputs":[{"name":"depositAmount","type":"uint256","internalType":"uint256"},{"name":"purchaseAmount","type":"uint256","internalType":"uint256"},{"name":"purchasePeriod","type":"uint256","internalType":"uint256"}],"outputs":[],"stateMutability":"nonpayable"},{"type":"function","name":"depositMore","inputs":[{"name":"amount","type":"uint256","internalType":"uint256"}],"outputs":[],"stateMutability":"nonpayable"},{"type":"function","name":"executeDca","inputs":[{"name":"user","type":"address","internalType":"address"}],"outputs":[],"stateMutability":"nonpayable"},{"type":"function","name":"executeDcaSelf","inputs":[{"name":"user","type":"address","internalType":"address"}],"outputs":[],"stateMutability":"nonpayable"},{"type":"function","name":"feeAccumulated","inputs":[],"outputs":[{"name":"","type":"uint256","internalType":"uint256"}],"stateMutability":"view"},{"type":"function","name":"getDocBalance","inputs":[{"name":"user","type":"address","internalType":"address"}],"outputs":[{"name":"","type":"uint256","internalType":"uint256"}],"stateMutability":"view"},{"type":"function","name":"getDueUsers","inputs":[],"outputs":[{"name":"","type":"address[]","internalType":"address[]"}],"stateMutability":"view"},{"type":"function","name":"getPendingRbtc","inputs":[{"name":"user","type":"address","internalType":"address"}],"outputs":[{"name":"","type":"uint256","internalType":"uint256"}],"stateMutability":"view"},{"type":"function","name":"getSchedule","inputs":[{"name":"user","type":"address","internalType":"address"}],"outputs":[{"name":"","type":"tuple","internalType":"struct SatsPilotDCA.Schedule","components":[{"name":"docBalance","type":"uint256","internalType":"uint256"},{"name":"purchaseAmount","type":"uint256","internalType":"uint256"},{"name":"purchasePeriod","type":"uint256","internalType":"uint256"},{"name":"lastExecution","type":"uint256","internalType":"uint256"},{"name":"accumulatedRbtc","type":"uint256","internalType":"uint256"},{"name":"active","type":"bool","internalType":"bool"}]}],"stateMutability":"view"},{"type":"function","name":"getUserCount","inputs":[],"outputs":[{"name":"","type":"uint256","internalType":"uint256"}],"stateMutability":"view"},{"type":"function","name":"isDue","inputs":[{"name":"user","type":"address","internalType":"address"}],"outputs":[{"name":"","type":"bool","internalType":"bool"}],"stateMutability":"view"},{"type":"function","name":"isUser","inputs":[{"name":"","type":"address","internalType":"address"}],"outputs":[{"name":"","type":"bool","internalType":"bool"}],"stateMutability":"view"},{"type":"function","name":"keeper","inputs":[],"outputs":[{"name":"","type":"address","internalType":"address"}],"stateMutability":"view"},{"type":"function","name":"owner","inputs":[],"outputs":[{"name":"","type":"address","internalType":"address"}],"stateMutability":"view"},{"type":"function","name":"schedules","inputs":[{"name":"","type":"address","internalType":"address"}],"outputs":[{"name":"docBalance","type":"uint256","internalType":"uint256"},{"name":"purchaseAmount","type":"uint256","internalType":"uint256"},{"name":"purchasePeriod","type":"uint256","internalType":"uint256"},{"name":"lastExecution","type":"uint256","internalType":"uint256"},{"name":"accumulatedRbtc","type":"uint256","internalType":"uint256"},{"name":"active","type":"bool","internalType":"bool"}],"stateMutability":"view"},{"type":"function","name":"setKeeper","inputs":[{"name":"_keeper","type":"address","internalType":"address"}],"outputs":[],"stateMutability":"nonpayable"},{"type":"function","name":"transferOwnership","inputs":[{"name":"newOwner","type":"address","internalType":"address"}],"outputs":[],"stateMutability":"nonpayable"},{"type":"function","name":"updateSchedule","inputs":[{"name":"newPurchaseAmount","type":"uint256","internalType":"uint256"},{"name":"newPurchasePeriod","type":"uint256","internalType":"uint256"}],"outputs":[],"stateMutability":"nonpayable"},{"type":"function","name":"users","inputs":[{"name":"","type":"uint256","internalType":"uint256"}],"outputs":[{"name":"","type":"address","internalType":"address"}],"stateMutability":"view"},{"type":"function","name":"withdrawDoc","inputs":[{"name":"amount","type":"uint256","internalType":"uint256"}],"outputs":[],"stateMutability":"nonpayable"},{"type":"function","name":"withdrawFees","inputs":[],"outputs":[],"stateMutability":"nonpayable"},{"type":"function","name":"withdrawRbtc","inputs":[],"outputs":[],"stateMutability":"nonpayable"},{"type":"event","name":"DCAExecuted","inputs":[{"name":"user","type":"address","indexed":true,"internalType":"address"},{"name":"docSpent","type":"uint256","indexed":false,"internalType":"uint256"},{"name":"rbtcReceived","type":"uint256","indexed":false,"internalType":"uint256"},{"name":"fee","type":"uint256","indexed":false,"internalType":"uint256"}],"anonymous":false},{"type":"event","name":"DCAFailed","inputs":[{"name":"user","type":"address","indexed":true,"internalType":"address"},{"name":"reason","type":"bytes","indexed":false,"internalType":"bytes"}],"anonymous":false},{"type":"event","name":"Deposited","inputs":[{"name":"user","type":"address","indexed":true,"internalType":"address"},{"name":"amount","type":"uint256","indexed":false,"internalType":"uint256"}],"anonymous":false},{"type":"event","name":"DocWithdrawn","inputs":[{"name":"user","type":"address","indexed":true,"internalType":"address"},{"name":"amount","type":"uint256","indexed":false,"internalType":"uint256"}],"anonymous":false},{"type":"event","name":"KeeperUpdated","inputs":[{"name":"oldKeeper","type":"address","indexed":true,"internalType":"address"},{"name":"newKeeper","type":"address","indexed":true,"internalType":"address"}],"anonymous":false},{"type":"event","name":"RbtcWithdrawn","inputs":[{"name":"user","type":"address","indexed":true,"internalType":"address"},{"name":"amount","type":"uint256","indexed":false,"internalType":"uint256"}],"anonymous":false},{"type":"event","name":"ScheduleCancelled","inputs":[{"name":"user","type":"address","indexed":true,"internalType":"address"},{"name":"docRefunded","type":"uint256","indexed":false,"internalType":"uint256"}],"anonymous":false},{"type":"event","name":"ScheduleCreated","inputs":[{"name":"user","type":"address","indexed":true,"internalType":"address"},{"name":"depositAmount","type":"uint256","indexed":false,"internalType":"uint256"},{"name":"purchaseAmount","type":"uint256","indexed":false,"internalType":"uint256"},{"name":"purchasePeriod","type":"uint256","indexed":false,"internalType":"uint256"}],"anonymous":false},{"type":"event","name":"ScheduleDeactivated","inputs":[{"name":"user","type":"address","indexed":true,"internalType":"address"}],"anonymous":false},{"type":"event","name":"ScheduleUpdated","inputs":[{"name":"user","type":"address","indexed":true,"internalType":"address"},{"name":"purchaseAmount","type":"uint256","indexed":false,"internalType":"uint256"},{"name":"purchasePeriod","type":"uint256","indexed":false,"internalType":"uint256"}],"anonymous":false}],"bytecode":{"object":"0x608060405234801561000f575f5ffd5b5060405161496b38038061496b83398181016040528101906100319190610115565b3360045f6101000a81548173ffffffffffffffffffffffffffffffffffffffff021916908373ffffffffffffffffffffffffffffffffffffffff1602179055508060055f6101000a81548173ffffffffffffffffffffffffffffffffffffffff021916908373ffffffffffffffffffffffffffffffffffffffff16021790555050610140565b5f5ffd5b5f73ffffffffffffffffffffffffffffffffffffffff82169050919050565b5f6100e4826100bb565b9050919050565b6100f4816100da565b81146100fe575f5ffd5b50565b5f8151905061010f816100eb565b92915050565b5f6020828403121561012a576101296100b7565b5b5f61013784828501610101565b91505092915050565b61481e8061014d5f395ff3fe6080604052600436106101da575f3560e01c806383039d5d11610101578063ba7db95211610094578063d39fee3411610063578063d39fee341461076a578063e6671f90146107a6578063ec57eb20146107ce578063f2fde38b1461080a576102e3565b8063ba7db952146106c4578063bbccf154146106ee578063bf333f2c14610718578063d27b4f7114610742576102e3565b8063a0943142116100d0578063a09431421461061e578063a8bef5ef14610648578063aced166114610670578063b5cb15f71461069a576102e3565b806383039d5d1461057a578063894fa721146105a25780638da5cb5b146105cc5780639b92e688146105f6576102e3565b80634209fff1116101795780635baa3a07116101485780635baa3a07146104bd5780636d370ff2146104e7578063748747e61461051157806380c3780f14610539576102e3565b80634209fff114610419578063476343ee146104555780635294bac81461046b57806354545bfb14610493576102e3565b806323444a04116101b557806323444a041461034f578063365b98b21461037957806336954cc7146103b557806339ef4484146103f1576102e3565b8062112c5d146102e75780630a971ecb146103235780630c3ccb0e14610339576102e3565b366102e35773f773b590af754d597770937fa8ea7abdf266837073ffffffffffffffffffffffffffffffffffffffff163373ffffffffffffffffffffffffffffffffffffffff16148061026c5750730aeadb9d4c6a80462a47e87e76e487fa8b9a37d773ffffffffffffffffffffffffffffffffffffffff163373ffffffffffffffffffffffffffffffffffffffff16145b806102a257503073ffffffffffffffffffffffffffffffffffffffff163373ffffffffffffffffffffffffffffffffffffffff16145b6102e1576040517f08c379a00000000000000000000000000000000000000000000000000000000081526004016102d890613149565b60405180910390fd5b005b5f5ffd5b3480156102f2575f5ffd5b5061030d600480360381019061030891906131c9565b610832565b60405161031a919061320c565b60405180910390f35b34801561032e575f5ffd5b5061033761087a565b005b348015610344575f5ffd5b5061034d610a90565b005b34801561035a575f5ffd5b50610363610dc8565b6040516103709190613280565b60405180910390f35b348015610384575f5ffd5b5061039f600480360381019061039a91906132c3565b610de0565b6040516103ac91906132fd565b60405180910390f35b3480156103c0575f5ffd5b506103db60048036038101906103d691906131c9565b610e1b565b6040516103e8919061320c565b60405180910390f35b3480156103fc575f5ffd5b5061041760048036038101906104129190613377565b610e64565b005b348015610424575f5ffd5b5061043f600480360381019061043a91906131c9565b61104d565b60405161044c91906133dc565b60405180910390f35b348015610460575f5ffd5b5061046961106a565b005b348015610476575f5ffd5b50610491600480360381019061048c91906133f5565b61123a565b005b34801561049e575f5ffd5b506104a76116d1565b6040516104b4919061320c565b60405180910390f35b3480156104c8575f5ffd5b506104d16116de565b6040516104de9190613465565b60405180910390f35b3480156104f2575f5ffd5b506104fb6116f6565b604051610508919061320c565b60405180910390f35b34801561051c575f5ffd5b50610537600480360381019061053291906131c9565b6116fc565b005b348015610544575f5ffd5b5061055f600480360381019061055a91906131c9565b6118b7565b6040516105719695949392919061347e565b60405180910390f35b348015610585575f5ffd5b506105a0600480360381019061059b91906132c3565b6118fb565b005b3480156105ad575f5ffd5b506105b6611c27565b6040516105c391906134fd565b60405180910390f35b3480156105d7575f5ffd5b506105e0611c3f565b6040516105ed91906132fd565b60405180910390f35b348015610601575f5ffd5b5061061c600480360381019061061791906131c9565b611c64565b005b348015610629575f5ffd5b50610632611cff565b60405161063f91906135cd565b60405180910390f35b348015610653575f5ffd5b5061066e600480360381019061066991906132c3565b611ed5565b005b34801561067b575f5ffd5b50610684612122565b60405161069191906132fd565b60405180910390f35b3480156106a5575f5ffd5b506106ae612147565b6040516106bb919061320c565b60405180910390f35b3480156106cf575f5ffd5b506106d8612153565b6040516106e5919061360d565b60405180910390f35b3480156106f9575f5ffd5b5061070261216b565b60405161070f919061320c565b60405180910390f35b348015610723575f5ffd5b5061072c612172565b604051610739919061320c565b60405180910390f35b34801561074d575f5ffd5b50610768600480360381019061076391906131c9565b612177565b005b348015610775575f5ffd5b50610790600480360381019061078b91906131c9565b6121f1565b60405161079d91906136bd565b60405180910390f35b3480156107b1575f5ffd5b506107cc60048036038101906107c791906136d6565b612293565b005b3480156107d9575f5ffd5b506107f460048036038101906107ef91906131c9565b612462565b60405161080191906133dc565b60405180910390f35b348015610815575f5ffd5b50610830600480360381019061082b91906131c9565b612473565b005b5f60015f8373ffffffffffffffffffffffffffffffffffffffff1673ffffffffffffffffffffffffffffffffffffffff1681526020019081526020015f205f01549050919050565b5f5f9054906101000a900460ff16156108c8576040517f08c379a00000000000000000000000000000000000000000000000000000000081526004016108bf9061375e565b60405180910390fd5b60015f5f6101000a81548160ff0219169083151502179055505f60015f3373ffffffffffffffffffffffffffffffffffffffff1673ffffffffffffffffffffffffffffffffffffffff1681526020019081526020015f2090505f816004015490505f811161096b576040517f08c379a0000000000000000000000000000000000000000000000000000000008152600401610962906137c6565b60405180910390fd5b5f826004018190555061097d816125b3565b5f3373ffffffffffffffffffffffffffffffffffffffff16826040516109a290613811565b5f6040518083038185875af1925050503d805f81146109dc576040519150601f19603f3d011682016040523d82523d5f602084013e6109e1565b606091505b5050905080610a25576040517f08c379a0000000000000000000000000000000000000000000000000000000008152600401610a1c9061386f565b60405180910390fd5b3373ffffffffffffffffffffffffffffffffffffffff167fc02359ae5b9520fe5b9526985687758fac3218ba9521711728056b0abadd3d6883604051610a6b919061320c565b60405180910390a25050505f5f5f6101000a81548160ff021916908315150217905550565b5f5f9054906101000a900460ff1615610ade576040517f08c379a0000000000000000000000000000000000000000000000000000000008152600401610ad59061375e565b60405180910390fd5b60015f5f6101000a81548160ff0219169083151502179055505f60015f3373ffffffffffffffffffffffffffffffffffffffff1673ffffffffffffffffffffffffffffffffffffffff1681526020019081526020015f209050806005015f9054906101000a900460ff16610b87576040517f08c379a0000000000000000000000000000000000000000000000000000000008152600401610b7e906138d7565b60405180910390fd5b5f815f015490505f826004015490505f836005015f6101000a81548160ff0219169083151502179055505f835f01819055505f83600401819055505f821115610ca257610bd3826127f4565b73e700691da7b9851f2f35f8b8182c69c53ccad9db73ffffffffffffffffffffffffffffffffffffffff1663a9059cbb33846040518363ffffffff1660e01b8152600401610c229291906138f5565b6020604051808303815f875af1158015610c3e573d5f5f3e3d5ffd5b505050506040513d601f19601f82011682018060405250810190610c629190613946565b610ca1576040517f08c379a0000000000000000000000000000000000000000000000000000000008152600401610c98906139bb565b60405180910390fd5b5b5f811115610d5d57610cb3816125b3565b5f3373ffffffffffffffffffffffffffffffffffffffff1682604051610cd890613811565b5f6040518083038185875af1925050503d805f8114610d12576040519150601f19603f3d011682016040523d82523d5f602084013e610d17565b606091505b5050905080610d5b576040517f08c379a0000000000000000000000000000000000000000000000000000000008152600401610d5290613a23565b60405180910390fd5b505b3373ffffffffffffffffffffffffffffffffffffffff167faba046ef324ae07859488900d542d47a094f3a89259cd5a3c3fa44f9a12b144a83604051610da3919061320c565b60405180910390a25050505f5f5f6101000a81548160ff021916908315150217905550565b73f773b590af754d597770937fa8ea7abdf266837081565b60028181548110610def575f80fd5b905f5260205f20015f915054906101000a900473ffffffffffffffffffffffffffffffffffffffff1681565b5f60015f8373ffffffffffffffffffffffffffffffffffffffff1673ffffffffffffffffffffffffffffffffffffffff1681526020019081526020015f20600401549050919050565b60055f9054906101000a900473ffffffffffffffffffffffffffffffffffffffff1673ffffffffffffffffffffffffffffffffffffffff163373ffffffffffffffffffffffffffffffffffffffff1614610ef3576040517f08c379a0000000000000000000000000000000000000000000000000000000008152600401610eea90613a8b565b60405180910390fd5b5f5f90505b82829050811015611048573073ffffffffffffffffffffffffffffffffffffffff1663d27b4f71848484818110610f3257610f31613aa9565b5b9050602002016020810190610f4791906131c9565b6040518263ffffffff1660e01b8152600401610f6391906132fd565b5f604051808303815f87803b158015610f7a575f5ffd5b505af1925050508015610f8b575060015b61103a573d805f8114610fb9576040519150601f19603f3d011682016040523d82523d5f602084013e610fbe565b606091505b50838383818110610fd257610fd1613aa9565b5b9050602002016020810190610fe791906131c9565b73ffffffffffffffffffffffffffffffffffffffff167ff2432448bd7f4f83571af712c44c366acd66e1c64f00b76f244ffe5d48383e098260405161102c9190613b46565b60405180910390a25061103b565b5b8080600101915050610ef8565b505050565b6003602052805f5260405f205f915054906101000a900460ff1681565b60045f9054906101000a900473ffffffffffffffffffffffffffffffffffffffff1673ffffffffffffffffffffffffffffffffffffffff163373ffffffffffffffffffffffffffffffffffffffff16146110f9576040517f08c379a00000000000000000000000000000000000000000000000000000000081526004016110f090613bb0565b60405180910390fd5b5f60065490505f8111611141576040517f08c379a000000000000000000000000000000000000000000000000000000000815260040161113890613c18565b60405180910390fd5b5f60068190555073e700691da7b9851f2f35f8b8182c69c53ccad9db73ffffffffffffffffffffffffffffffffffffffff1663a9059cbb60045f9054906101000a900473ffffffffffffffffffffffffffffffffffffffff16836040518363ffffffff1660e01b81526004016111b89291906138f5565b6020604051808303815f875af11580156111d4573d5f5f3e3d5ffd5b505050506040513d601f19601f820116820180604052508101906111f89190613946565b611237576040517f08c379a000000000000000000000000000000000000000000000000000000000815260040161122e90613c80565b60405180910390fd5b50565b60015f3373ffffffffffffffffffffffffffffffffffffffff1673ffffffffffffffffffffffffffffffffffffffff1681526020019081526020015f206005015f9054906101000a900460ff16156112c7576040517f08c379a00000000000000000000000000000000000000000000000000000000081526004016112be90613ce8565b60405180910390fd5b5f8311611309576040517f08c379a000000000000000000000000000000000000000000000000000000000815260040161130090613d50565b60405180910390fd5b68015af1d78b58c40000821015611355576040517f08c379a000000000000000000000000000000000000000000000000000000000815260040161134c90613dde565b60405180910390fd5b6201518081101561139b576040517f08c379a000000000000000000000000000000000000000000000000000000000815260040161139290613e46565b60405180910390fd5b828211156113de576040517f08c379a00000000000000000000000000000000000000000000000000000000081526004016113d590613eae565b60405180910390fd5b73e700691da7b9851f2f35f8b8182c69c53ccad9db73ffffffffffffffffffffffffffffffffffffffff166323b872dd3330866040518463ffffffff1660e01b815260040161142f93929190613ecc565b6020604051808303815f875af115801561144b573d5f5f3e3d5ffd5b505050506040513d601f19601f8201168201806040525081019061146f9190613946565b6114ae576040517f08c379a00000000000000000000000000000000000000000000000000000000081526004016114a590613f4b565b60405180910390fd5b6114b7836128ca565b60035f3373ffffffffffffffffffffffffffffffffffffffff1673ffffffffffffffffffffffffffffffffffffffff1681526020019081526020015f205f9054906101000a900460ff166115bb57600233908060018154018082558091505060019003905f5260205f20015f9091909190916101000a81548173ffffffffffffffffffffffffffffffffffffffff021916908373ffffffffffffffffffffffffffffffffffffffff160217905550600160035f3373ffffffffffffffffffffffffffffffffffffffff1673ffffffffffffffffffffffffffffffffffffffff1681526020019081526020015f205f6101000a81548160ff0219169083151502179055505b6040518060c001604052808481526020018381526020018281526020014281526020015f81526020016001151581525060015f3373ffffffffffffffffffffffffffffffffffffffff1673ffffffffffffffffffffffffffffffffffffffff1681526020019081526020015f205f820151815f01556020820151816001015560408201518160020155606082015181600301556080820151816004015560a0820151816005015f6101000a81548160ff0219169083151502179055509050503373ffffffffffffffffffffffffffffffffffffffff167f5ab0cb75fe24f04dbfe14b847f8579bc91baa153ee5b2758fcfa59f33675b1628484846040516116c493929190613f69565b60405180910390a2505050565b68015af1d78b58c4000081565b73e700691da7b9851f2f35f8b8182c69c53ccad9db81565b60065481565b60045f9054906101000a900473ffffffffffffffffffffffffffffffffffffffff1673ffffffffffffffffffffffffffffffffffffffff163373ffffffffffffffffffffffffffffffffffffffff161461178b576040517f08c379a000000000000000000000000000000000000000000000000000000000815260040161178290613bb0565b60405180910390fd5b5f73ffffffffffffffffffffffffffffffffffffffff168173ffffffffffffffffffffffffffffffffffffffff16036117f9576040517f08c379a00000000000000000000000000000000000000000000000000000000081526004016117f090613fe8565b60405180910390fd5b8073ffffffffffffffffffffffffffffffffffffffff1660055f9054906101000a900473ffffffffffffffffffffffffffffffffffffffff1673ffffffffffffffffffffffffffffffffffffffff167f53d3703fe259def57584466f32d1b94c30278008c683c21b04501c4966f13a6960405160405180910390a38060055f6101000a81548173ffffffffffffffffffffffffffffffffffffffff021916908373ffffffffffffffffffffffffffffffffffffffff16021790555050565b6001602052805f5260405f205f91509050805f015490806001015490806002015490806003015490806004015490806005015f9054906101000a900460ff16905086565b5f5f9054906101000a900460ff1615611949576040517f08c379a00000000000000000000000000000000000000000000000000000000081526004016119409061375e565b60405180910390fd5b60015f5f6101000a81548160ff0219169083151502179055505f60015f3373ffffffffffffffffffffffffffffffffffffffff1673ffffffffffffffffffffffffffffffffffffffff1681526020019081526020015f209050806005015f9054906101000a900460ff166119f2576040517f08c379a00000000000000000000000000000000000000000000000000000000081526004016119e9906138d7565b60405180910390fd5b5f82118015611a045750805f01548211155b611a43576040517f08c379a0000000000000000000000000000000000000000000000000000000008152600401611a3a90614050565b60405180910390fd5b5f82825f0154611a53919061409b565b90505f811480611a67575081600101548110155b611aa6576040517f08c379a0000000000000000000000000000000000000000000000000000000008152600401611a9d90614118565b60405180910390fd5b611aaf836127f4565b73e700691da7b9851f2f35f8b8182c69c53ccad9db73ffffffffffffffffffffffffffffffffffffffff1663a9059cbb33856040518363ffffffff1660e01b8152600401611afe9291906138f5565b6020604051808303815f875af1158015611b1a573d5f5f3e3d5ffd5b505050506040513d601f19601f82011682018060405250810190611b3e9190613946565b611b7d576040517f08c379a0000000000000000000000000000000000000000000000000000000008152600401611b7490613f4b565b60405180910390fd5b82825f015f828254611b8f919061409b565b925050819055505f825f015403611bbc575f826005015f6101000a81548160ff0219169083151502179055505b3373ffffffffffffffffffffffffffffffffffffffff167f93fb9cc0cf6b85f4aae7dbb495816dfd988aee8c18418e470998deabb855e74f84604051611c02919061320c565b60405180910390a250505f5f5f6101000a81548160ff02191690831515021790555050565b73544eb90e766b405134b3b3f62b6b4c23fcd5fda281565b60045f9054906101000a900473ffffffffffffffffffffffffffffffffffffffff1681565b60055f9054906101000a900473ffffffffffffffffffffffffffffffffffffffff1673ffffffffffffffffffffffffffffffffffffffff163373ffffffffffffffffffffffffffffffffffffffff1614611cf3576040517f08c379a0000000000000000000000000000000000000000000000000000000008152600401611cea90613a8b565b60405180910390fd5b611cfc81612b13565b50565b60605f60028054905090505f5f90505f5f90505b82811015611d8057611d5f60028281548110611d3257611d31613aa9565b5b905f5260205f20015f9054906101000a900473ffffffffffffffffffffffffffffffffffffffff16613031565b15611d73578180611d6f90614136565b9250505b8080600101915050611d13565b505f8167ffffffffffffffff811115611d9c57611d9b61417d565b5b604051908082528060200260200182016040528015611dca5781602001602082028036833780820191505090505b5090505f5f90505f5f90505b84811015611eca57611e2260028281548110611df557611df4613aa9565b5b905f5260205f20015f9054906101000a900473ffffffffffffffffffffffffffffffffffffffff16613031565b15611ebd5760028181548110611e3b57611e3a613aa9565b5b905f5260205f20015f9054906101000a900473ffffffffffffffffffffffffffffffffffffffff16838380611e6f90614136565b945081518110611e8257611e81613aa9565b5b602002602001019073ffffffffffffffffffffffffffffffffffffffff16908173ffffffffffffffffffffffffffffffffffffffff16815250505b8080600101915050611dd6565b508194505050505090565b60015f3373ffffffffffffffffffffffffffffffffffffffff1673ffffffffffffffffffffffffffffffffffffffff1681526020019081526020015f206005015f9054906101000a900460ff16611f61576040517f08c379a0000000000000000000000000000000000000000000000000000000008152600401611f58906138d7565b60405180910390fd5b5f8111611fa3576040517f08c379a0000000000000000000000000000000000000000000000000000000008152600401611f9a906141f4565b60405180910390fd5b73e700691da7b9851f2f35f8b8182c69c53ccad9db73ffffffffffffffffffffffffffffffffffffffff166323b872dd3330846040518463ffffffff1660e01b8152600401611ff493929190613ecc565b6020604051808303815f875af1158015612010573d5f5f3e3d5ffd5b505050506040513d601f19601f820116820180604052508101906120349190613946565b612073576040517f08c379a000000000000000000000000000000000000000000000000000000000815260040161206a90613f4b565b60405180910390fd5b61207c816128ca565b8060015f3373ffffffffffffffffffffffffffffffffffffffff1673ffffffffffffffffffffffffffffffffffffffff1681526020019081526020015f205f015f8282546120ca9190614212565b925050819055503373ffffffffffffffffffffffffffffffffffffffff167f2da466a7b24304f47e87fa2e1e5a81b9831ce54fec19055ce277ca2f39ba42c482604051612117919061320c565b60405180910390a250565b60055f9054906101000a900473ffffffffffffffffffffffffffffffffffffffff1681565b5f600280549050905090565b730aeadb9d4c6a80462a47e87e76e487fa8b9a37d781565b6201518081565b603281565b3073ffffffffffffffffffffffffffffffffffffffff163373ffffffffffffffffffffffffffffffffffffffff16146121e5576040517f08c379a00000000000000000000000000000000000000000000000000000000081526004016121dc9061428f565b60405180910390fd5b6121ee81612b13565b50565b6121f96130bd565b60015f8373ffffffffffffffffffffffffffffffffffffffff1673ffffffffffffffffffffffffffffffffffffffff1681526020019081526020015f206040518060c00160405290815f820154815260200160018201548152602001600282015481526020016003820154815260200160048201548152602001600582015f9054906101000a900460ff1615151515815250509050919050565b5f60015f3373ffffffffffffffffffffffffffffffffffffffff1673ffffffffffffffffffffffffffffffffffffffff1681526020019081526020015f209050806005015f9054906101000a900460ff16612323576040517f08c379a000000000000000000000000000000000000000000000000000000000815260040161231a906138d7565b60405180910390fd5b68015af1d78b58c4000083101561236f576040517f08c379a0000000000000000000000000000000000000000000000000000000008152600401612366906142f7565b60405180910390fd5b620151808210156123b5576040517f08c379a00000000000000000000000000000000000000000000000000000000081526004016123ac9061435f565b60405180910390fd5b805f01548311156123fb576040517f08c379a00000000000000000000000000000000000000000000000000000000081526004016123f2906143c7565b60405180910390fd5b8281600101819055508181600201819055503373ffffffffffffffffffffffffffffffffffffffff167f37b50b476a1c3aad70878aea9298883f0df1f4a4a73a2a1a624fe6be4ad5588384846040516124559291906143e5565b60405180910390a2505050565b5f61246c82613031565b9050919050565b60045f9054906101000a900473ffffffffffffffffffffffffffffffffffffffff1673ffffffffffffffffffffffffffffffffffffffff163373ffffffffffffffffffffffffffffffffffffffff1614612502576040517f08c379a00000000000000000000000000000000000000000000000000000000081526004016124f990613bb0565b60405180910390fd5b5f73ffffffffffffffffffffffffffffffffffffffff168173ffffffffffffffffffffffffffffffffffffffff1603612570576040517f08c379a000000000000000000000000000000000000000000000000000000000815260040161256790613fe8565b60405180910390fd5b8060045f6101000a81548173ffffffffffffffffffffffffffffffffffffffff021916908373ffffffffffffffffffffffffffffffffffffffff16021790555050565b5f730aeadb9d4c6a80462a47e87e76e487fa8b9a37d773ffffffffffffffffffffffffffffffffffffffff1663182df0f56040518163ffffffff1660e01b8152600401602060405180830381865afa158015612611573d5f5f3e3d5ffd5b505050506040513d601f19601f820116820180604052508101906126359190614420565b90505f81600183670de0b6b3a764000086612650919061444b565b61265a9190614212565b612664919061409b565b61266e91906144b9565b90505f730aeadb9d4c6a80462a47e87e76e487fa8b9a37d773ffffffffffffffffffffffffffffffffffffffff166370a08231306040518263ffffffff1660e01b81526004016126be91906132fd565b602060405180830381865afa1580156126d9573d5f5f3e3d5ffd5b505050506040513d601f19601f820116820180604052508101906126fd9190614420565b90505f81831161270d578261270f565b815b90505f8111156127ed575f730aeadb9d4c6a80462a47e87e76e487fa8b9a37d773ffffffffffffffffffffffffffffffffffffffff1663db006a75836040518263ffffffff1660e01b8152600401612767919061320c565b6020604051808303815f875af1158015612783573d5f5f3e3d5ffd5b505050506040513d601f19601f820116820180604052508101906127a79190614420565b90505f81146127eb576040517f08c379a00000000000000000000000000000000000000000000000000000000081526004016127e290614533565b60405180910390fd5b505b5050505050565b5f73544eb90e766b405134b3b3f62b6b4c23fcd5fda273ffffffffffffffffffffffffffffffffffffffff1663852a12e3836040518263ffffffff1660e01b8152600401612842919061320c565b6020604051808303815f875af115801561285e573d5f5f3e3d5ffd5b505050506040513d601f19601f820116820180604052508101906128829190614420565b90505f81146128c6576040517f08c379a00000000000000000000000000000000000000000000000000000000081526004016128bd9061459b565b60405180910390fd5b5050565b5f73e700691da7b9851f2f35f8b8182c69c53ccad9db73ffffffffffffffffffffffffffffffffffffffff1663dd62ed3e3073544eb90e766b405134b3b3f62b6b4c23fcd5fda26040518363ffffffff1660e01b815260040161292e9291906145b9565b602060405180830381865afa158015612949573d5f5f3e3d5ffd5b505050506040513d601f19601f8201168201806040525081019061296d9190614420565b905081811015612a3c5773e700691da7b9851f2f35f8b8182c69c53ccad9db73ffffffffffffffffffffffffffffffffffffffff1663095ea7b373544eb90e766b405134b3b3f62b6b4c23fcd5fda27fffffffffffffffffffffffffffffffffffffffffffffffffffffffffffffffff6040518363ffffffff1660e01b81526004016129fa9291906138f5565b6020604051808303815f875af1158015612a16573d5f5f3e3d5ffd5b505050506040513d601f19601f82011682018060405250810190612a3a9190613946565b505b5f73544eb90e766b405134b3b3f62b6b4c23fcd5fda273ffffffffffffffffffffffffffffffffffffffff1663a0712d68846040518263ffffffff1660e01b8152600401612a8a919061320c565b6020604051808303815f875af1158015612aa6573d5f5f3e3d5ffd5b505050506040513d601f19601f82011682018060405250810190612aca9190614420565b90505f8114612b0e576040517f08c379a0000000000000000000000000000000000000000000000000000000008152600401612b059061462a565b60405180910390fd5b505050565b5f60015f8373ffffffffffffffffffffffffffffffffffffffff1673ffffffffffffffffffffffffffffffffffffffff1681526020019081526020015f209050806005015f9054906101000a900460ff16612ba3576040517f08c379a0000000000000000000000000000000000000000000000000000000008152600401612b9a90614692565b60405180910390fd5b80600201548160030154612bb79190614212565b421015612bf9576040517f08c379a0000000000000000000000000000000000000000000000000000000008152600401612bf0906146fa565b60405180910390fd5b8060010154815f01541015612c43576040517f08c379a0000000000000000000000000000000000000000000000000000000008152600401612c3a90614762565b60405180910390fd5b5f81600101549050612c54816127f4565b5f612710603283612c65919061444b565b612c6f91906144b9565b90505f8183612c7e919061409b565b90508160065f828254612c919190614212565b925050819055505f73e700691da7b9851f2f35f8b8182c69c53ccad9db73ffffffffffffffffffffffffffffffffffffffff166370a08231306040518263ffffffff1660e01b8152600401612ce691906132fd565b602060405180830381865afa158015612d01573d5f5f3e3d5ffd5b505050506040513d601f19601f82011682018060405250810190612d259190614420565b90505f47905073f773b590af754d597770937fa8ea7abdf266837073ffffffffffffffffffffffffffffffffffffffff166350771849846040518263ffffffff1660e01b8152600401612d78919061320c565b5f604051808303815f87803b158015612d8f575f5ffd5b505af1158015612da1573d5f5f3e3d5ffd5b505050505f73e700691da7b9851f2f35f8b8182c69c53ccad9db73ffffffffffffffffffffffffffffffffffffffff166370a08231306040518263ffffffff1660e01b8152600401612df391906132fd565b602060405180830381865afa158015612e0e573d5f5f3e3d5ffd5b505050506040513d601f19601f82011682018060405250810190612e329190614420565b90505f8247612e41919061409b565b90505f8285612e50919061409b565b90505f8211612e94576040517f08c379a0000000000000000000000000000000000000000000000000000000008152600401612e8b906147ca565b60405180910390fd5b730aeadb9d4c6a80462a47e87e76e487fa8b9a37d773ffffffffffffffffffffffffffffffffffffffff16631249c58b836040518263ffffffff1660e01b815260040160206040518083038185885af1158015612ef3573d5f5f3e3d5ffd5b50505050506040513d601f19601f82011682018060405250810190612f189190614420565b505f8782612f269190614212565b9050808a5f015f828254612f3a919061409b565b92505081905550828a6004015f828254612f549190614212565b92505081905550428a6003018190555089600101548a5f01541015612fd2575f8a6005015f6101000a81548160ff0219169083151502179055508a73ffffffffffffffffffffffffffffffffffffffff167f2d69daea880a48b9ba3d6212ecaf359bcccb6a1d6cd877b45ac710871112379d60405160405180910390a25b8a73ffffffffffffffffffffffffffffffffffffffff167f15777b4b303a33d44b8a36b2b09cc7c9470c9a4bf551312cc5c23dd025c0477a8a858b60405161301c93929190613f69565b60405180910390a25050505050505050505050565b5f5f60015f8473ffffffffffffffffffffffffffffffffffffffff1673ffffffffffffffffffffffffffffffffffffffff1681526020019081526020015f209050806005015f9054906101000a900460ff1680156130a257508060020154816003015461309e9190614212565b4210155b80156130b557508060010154815f015410155b915050919050565b6040518060c001604052805f81526020015f81526020015f81526020015f81526020015f81526020015f151581525090565b5f82825260208201905092915050565b7f4f6e6c79204d6f432f6b524254430000000000000000000000000000000000005f82015250565b5f613133600e836130ef565b915061313e826130ff565b602082019050919050565b5f6020820190508181035f83015261316081613127565b9050919050565b5f5ffd5b5f5ffd5b5f73ffffffffffffffffffffffffffffffffffffffff82169050919050565b5f6131988261316f565b9050919050565b6131a88161318e565b81146131b2575f5ffd5b50565b5f813590506131c38161319f565b92915050565b5f602082840312156131de576131dd613167565b5b5f6131eb848285016131b5565b91505092915050565b5f819050919050565b613206816131f4565b82525050565b5f60208201905061321f5f8301846131fd565b92915050565b5f819050919050565b5f61324861324361323e8461316f565b613225565b61316f565b9050919050565b5f6132598261322e565b9050919050565b5f61326a8261324f565b9050919050565b61327a81613260565b82525050565b5f6020820190506132935f830184613271565b92915050565b6132a2816131f4565b81146132ac575f5ffd5b50565b5f813590506132bd81613299565b92915050565b5f602082840312156132d8576132d7613167565b5b5f6132e5848285016132af565b91505092915050565b6132f78161318e565b82525050565b5f6020820190506133105f8301846132ee565b92915050565b5f5ffd5b5f5ffd5b5f5ffd5b5f5f83601f84011261333757613336613316565b5b8235905067ffffffffffffffff8111156133545761335361331a565b5b6020830191508360208202830111156133705761336f61331e565b5b9250929050565b5f5f6020838503121561338d5761338c613167565b5b5f83013567ffffffffffffffff8111156133aa576133a961316b565b5b6133b685828601613322565b92509250509250929050565b5f8115159050919050565b6133d6816133c2565b82525050565b5f6020820190506133ef5f8301846133cd565b92915050565b5f5f5f6060848603121561340c5761340b613167565b5b5f613419868287016132af565b935050602061342a868287016132af565b925050604061343b868287016132af565b9150509250925092565b5f61344f8261324f565b9050919050565b61345f81613445565b82525050565b5f6020820190506134785f830184613456565b92915050565b5f60c0820190506134915f8301896131fd565b61349e60208301886131fd565b6134ab60408301876131fd565b6134b860608301866131fd565b6134c560808301856131fd565b6134d260a08301846133cd565b979650505050505050565b5f6134e78261324f565b9050919050565b6134f7816134dd565b82525050565b5f6020820190506135105f8301846134ee565b92915050565b5f81519050919050565b5f82825260208201905092915050565b5f819050602082019050919050565b6135488161318e565b82525050565b5f613559838361353f565b60208301905092915050565b5f602082019050919050565b5f61357b82613516565b6135858185613520565b935061359083613530565b805f5b838110156135c05781516135a7888261354e565b97506135b283613565565b925050600181019050613593565b5085935050505092915050565b5f6020820190508181035f8301526135e58184613571565b905092915050565b5f6135f78261324f565b9050919050565b613607816135ed565b82525050565b5f6020820190506136205f8301846135fe565b92915050565b61362f816131f4565b82525050565b61363e816133c2565b82525050565b60c082015f8201516136585f850182613626565b50602082015161366b6020850182613626565b50604082015161367e6040850182613626565b5060608201516136916060850182613626565b5060808201516136a46080850182613626565b5060a08201516136b760a0850182613635565b50505050565b5f60c0820190506136d05f830184613644565b92915050565b5f5f604083850312156136ec576136eb613167565b5b5f6136f9858286016132af565b925050602061370a858286016132af565b9150509250929050565b7f5265656e7472616e7400000000000000000000000000000000000000000000005f82015250565b5f6137486009836130ef565b915061375382613714565b602082019050919050565b5f6020820190508181035f8301526137758161373c565b9050919050565b7f4e6f205242544320746f207769746864726177000000000000000000000000005f82015250565b5f6137b06013836130ef565b91506137bb8261377c565b602082019050919050565b5f6020820190508181035f8301526137dd816137a4565b9050919050565b5f81905092915050565b50565b5f6137fc5f836137e4565b9150613807826137ee565b5f82019050919050565b5f61381b826137f1565b9150819050919050565b7f52425443207472616e73666572206661696c65640000000000000000000000005f82015250565b5f6138596014836130ef565b915061386482613825565b602082019050919050565b5f6020820190508181035f8301526138868161384d565b9050919050565b7f4e6f20616374697665207363686564756c6500000000000000000000000000005f82015250565b5f6138c16012836130ef565b91506138cc8261388d565b602082019050919050565b5f6020820190508181035f8301526138ee816138b5565b9050919050565b5f6040820190506139085f8301856132ee565b61391560208301846131fd565b9392505050565b613925816133c2565b811461392f575f5ffd5b50565b5f815190506139408161391c565b92915050565b5f6020828403121561395b5761395a613167565b5b5f61396884828501613932565b91505092915050565b7f444f4320726566756e64206661696c65640000000000000000000000000000005f82015250565b5f6139a56011836130ef565b91506139b082613971565b602082019050919050565b5f6020820190508181035f8301526139d281613999565b9050919050565b7f5242544320726566756e64206661696c656400000000000000000000000000005f82015250565b5f613a0d6012836130ef565b9150613a18826139d9565b602082019050919050565b5f6020820190508181035f830152613a3a81613a01565b9050919050565b7f4e6f74206b6565706572000000000000000000000000000000000000000000005f82015250565b5f613a75600a836130ef565b9150613a8082613a41565b602082019050919050565b5f6020820190508181035f830152613aa281613a69565b9050919050565b7f4e487b71000000000000000000000000000000000000000000000000000000005f52603260045260245ffd5b5f81519050919050565b5f82825260208201905092915050565b8281835e5f83830152505050565b5f601f19601f8301169050919050565b5f613b1882613ad6565b613b228185613ae0565b9350613b32818560208601613af0565b613b3b81613afe565b840191505092915050565b5f6020820190508181035f830152613b5e8184613b0e565b905092915050565b7f4e6f74206f776e657200000000000000000000000000000000000000000000005f82015250565b5f613b9a6009836130ef565b9150613ba582613b66565b602082019050919050565b5f6020820190508181035f830152613bc781613b8e565b9050919050565b7f4e6f2066656573000000000000000000000000000000000000000000000000005f82015250565b5f613c026007836130ef565b9150613c0d82613bce565b602082019050919050565b5f6020820190508181035f830152613c2f81613bf6565b9050919050565b7f466565207472616e73666572206661696c6564000000000000000000000000005f82015250565b5f613c6a6013836130ef565b9150613c7582613c36565b602082019050919050565b5f6020820190508181035f830152613c9781613c5e565b9050919050565b7f5363686564756c6520616c7265616479206578697374730000000000000000005f82015250565b5f613cd26017836130ef565b9150613cdd82613c9e565b602082019050919050565b5f6020820190508181035f830152613cff81613cc6565b9050919050565b7f4465706f736974206d757374206265203e2030000000000000000000000000005f82015250565b5f613d3a6013836130ef565b9150613d4582613d06565b602082019050919050565b5f6020820190508181035f830152613d6781613d2e565b9050919050565b7f507572636861736520616d6f756e7420746f6f206c6f7720286d696e203235205f8201527f444f432900000000000000000000000000000000000000000000000000000000602082015250565b5f613dc86024836130ef565b9150613dd382613d6e565b604082019050919050565b5f6020820190508181035f830152613df581613dbc565b9050919050565b7f506572696f6420746f6f2073686f727420286d696e20312064617929000000005f82015250565b5f613e30601c836130ef565b9150613e3b82613dfc565b602082019050919050565b5f6020820190508181035f830152613e5d81613e24565b9050919050565b7f507572636861736520616d6f756e74203e206465706f736974000000000000005f82015250565b5f613e986019836130ef565b9150613ea382613e64565b602082019050919050565b5f6020820190508181035f830152613ec581613e8c565b9050919050565b5f606082019050613edf5f8301866132ee565b613eec60208301856132ee565b613ef960408301846131fd565b949350505050565b7f444f43207472616e73666572206661696c6564000000000000000000000000005f82015250565b5f613f356013836130ef565b9150613f4082613f01565b602082019050919050565b5f6020820190508181035f830152613f6281613f29565b9050919050565b5f606082019050613f7c5f8301866131fd565b613f8960208301856131fd565b613f9660408301846131fd565b949350505050565b7f5a65726f206164647265737300000000000000000000000000000000000000005f82015250565b5f613fd2600c836130ef565b9150613fdd82613f9e565b602082019050919050565b5f6020820190508181035f830152613fff81613fc6565b9050919050565b7f496e76616c696420616d6f756e740000000000000000000000000000000000005f82015250565b5f61403a600e836130ef565b915061404582614006565b602082019050919050565b5f6020820190508181035f8301526140678161402e565b9050919050565b7f4e487b71000000000000000000000000000000000000000000000000000000005f52601160045260245ffd5b5f6140a5826131f4565b91506140b0836131f4565b92508282039050818111156140c8576140c761406e565b5b92915050565b7f52656d61696e696e6720746f6f206c6f7720666f7220444341000000000000005f82015250565b5f6141026019836130ef565b915061410d826140ce565b602082019050919050565b5f6020820190508181035f83015261412f816140f6565b9050919050565b5f614140826131f4565b91507fffffffffffffffffffffffffffffffffffffffffffffffffffffffffffffffff82036141725761417161406e565b5b600182019050919050565b7f4e487b71000000000000000000000000000000000000000000000000000000005f52604160045260245ffd5b7f416d6f756e74206d757374206265203e203000000000000000000000000000005f82015250565b5f6141de6012836130ef565b91506141e9826141aa565b602082019050919050565b5f6020820190508181035f83015261420b816141d2565b9050919050565b5f61421c826131f4565b9150614227836131f4565b925082820190508082111561423f5761423e61406e565b5b92915050565b7f4f6e6c792073656c6600000000000000000000000000000000000000000000005f82015250565b5f6142796009836130ef565b915061428482614245565b602082019050919050565b5f6020820190508181035f8301526142a68161426d565b9050919050565b7f507572636861736520616d6f756e7420746f6f206c6f770000000000000000005f82015250565b5f6142e16017836130ef565b91506142ec826142ad565b602082019050919050565b5f6020820190508181035f83015261430e816142d5565b9050919050565b7f506572696f6420746f6f2073686f7274000000000000000000000000000000005f82015250565b5f6143496010836130ef565b915061435482614315565b602082019050919050565b5f6020820190508181035f8301526143768161433d565b9050919050565b7f507572636861736520616d6f756e74203e2062616c616e6365000000000000005f82015250565b5f6143b16019836130ef565b91506143bc8261437d565b602082019050919050565b5f6020820190508181035f8301526143de816143a5565b9050919050565b5f6040820190506143f85f8301856131fd565b61440560208301846131fd565b9392505050565b5f8151905061441a81613299565b92915050565b5f6020828403121561443557614434613167565b5b5f6144428482850161440c565b91505092915050565b5f614455826131f4565b9150614460836131f4565b925082820261446e816131f4565b915082820484148315176144855761448461406e565b5b5092915050565b7f4e487b71000000000000000000000000000000000000000000000000000000005f52601260045260245ffd5b5f6144c3826131f4565b91506144ce836131f4565b9250826144de576144dd61448c565b5b828204905092915050565b7f6b524254432072656465656d206661696c6564000000000000000000000000005f82015250565b5f61451d6013836130ef565b9150614528826144e9565b602082019050919050565b5f6020820190508181035f83015261454a81614511565b9050919050565b7f6b444f432072656465656d206661696c656400000000000000000000000000005f82015250565b5f6145856012836130ef565b915061459082614551565b602082019050919050565b5f6020820190508181035f8301526145b281614579565b9050919050565b5f6040820190506145cc5f8301856132ee565b6145d960208301846132ee565b9392505050565b7f6b444f43206d696e74206661696c6564000000000000000000000000000000005f82015250565b5f6146146010836130ef565b915061461f826145e0565b602082019050919050565b5f6020820190508181035f83015261464181614608565b9050919050565b7f5363686564756c65206e6f7420616374697665000000000000000000000000005f82015250565b5f61467c6013836130ef565b915061468782614648565b602082019050919050565b5f6020820190508181035f8301526146a981614670565b9050919050565b7f546f6f206561726c7900000000000000000000000000000000000000000000005f82015250565b5f6146e46009836130ef565b91506146ef826146b0565b602082019050919050565b5f6020820190508181035f830152614711816146d8565b9050919050565b7f496e73756666696369656e7420444f43000000000000000000000000000000005f82015250565b5f61474c6010836130ef565b915061475782614718565b602082019050919050565b5f6020820190508181035f83015261477981614740565b9050919050565b7f4d6f4320726564656d7074696f6e2072657475726e65642030000000000000005f82015250565b5f6147b46019836130ef565b91506147bf82614780565b602082019050919050565b5f6020820190508181035f8301526147e1816147a8565b905091905056fea264697066735822122034364ddec9e19398dfd27741fc0a1669c3958546c3df34872e44ea517a82991a64736f6c634300081e0033","linkReferences":{}},"methodIdentifiers":{"DOC()":"5baa3a07","FEE_BPS()":"bf333f2c","KDOC()":"894fa721","KRBTC()":"ba7db952","MIN_PERIOD()":"bbccf154","MIN_PURCHASE_AMOUNT()":"54545bfb","MOC()":"23444a04","batchExecuteDca(address[])":"39ef4484","cancelSchedule()":"0c3ccb0e","createSchedule(uint256,uint256,uint256)":"5294bac8","depositMore(uint256)":"a8bef5ef","executeDca(address)":"9b92e688","executeDcaSelf(address)":"d27b4f71","feeAccumulated()":"6d370ff2","getDocBalance(address)":"00112c5d","getDueUsers()":"a0943142","getPendingRbtc(address)":"36954cc7","getSchedule(address)":"d39fee34","getUserCount()":"b5cb15f7","isDue(address)":"ec57eb20","isUser(address)":"4209fff1","keeper()":"aced1661","owner()":"8da5cb5b","schedules(address)":"80c3780f","setKeeper(address)":"748747e6","transferOwnership(address)":"f2fde38b","updateSchedule(uint256,uint256)":"e6671f90","users(uint256)":"365b98b2","withdrawDoc(uint256)":"83039d5d","withdrawFees()":"476343ee","withdrawRbtc()":"0a971ecb"},"id":16}