{"abi":[{"type":"constructor","inputs":[{"name":"_keeper","type":"address","internalType":"address"}],"stateMutability":"nonpayable"},{"type":"receive","stateMutability":"payable"},{"type":"function","name":"DOC","inputs":[],"outputs":[{"name":"","type":"address","internalType":"contract IERC20"}],"stateMutability":"view"},{"type":"function","name":"FEE_BPS","inputs":[],"outputs":[{"name":"","type":"uint256","internalType":"uint256"}],"stateMutability":"view"},{"type":"function","name":"KDOC","inputs":[],"outputs":[{"name":"","type":"address","internalType":"contract ICToken"}],"stateMutability":"view"},{"type":"function","name":"MIN_PERIOD","inputs":[],"outputs":[{"name":"","type":"uint256","internalType":"uint256"}],"stateMutability":"view"},{"type":"function","name":"MIN_PURCHASE_AMOUNT","inputs":[],"outputs":[{"name":"","type":"uint256","internalType":"uint256"}],"stateMutability":"view"},{"type":"function","name":"MOC","inputs":[],"outputs":[{"name":"","type":"address","internalType":"contract IMoC"}],"stateMutability":"view"},{"type":"function","name":"batchExecuteDca","inputs":[{"name":"_users","type":"address[]","internalType":"address[]"}],"outputs":[],"stateMutability":"nonpayable"},{"type":"function","name":"cancelSchedule","inputs":[],"outputs":[],"stateMutability":"nonpayable"},{"type":"function","name":"createSchedule","inputs":[{"name":"depositAmount","type":"uint256","internalType":"uint256"},{"name":"purchaseAmount","type":"uint256","internalType":"uint256"},{"name":"purchasePeriod","type":"uint256","internalType":"uint256"}],"outputs":[],"stateMutability":"nonpayable"},{"type":"function","name":"depositMore","inputs":[{"name":"amount","type":"uint256","internalType":"uint256"}],"outputs":[],"stateMutability":"nonpayable"},{"type":"function","name":"executeDca","inputs":[{"name":"user","type":"address","internalType":"address"}],"outputs":[],"stateMutability":"nonpayable"},{"type":"function","name":"executeDcaSelf","inputs":[{"name":"user","type":"address","internalType":"address"}],"outputs":[],"stateMutability":"nonpayable"},{"type":"function","name":"feeAccumulated","inputs":[],"outputs":[{"name":"","type":"uint256","internalType":"uint256"}],"stateMutability":"view"},{"type":"function","name":"getDocBalance","inputs":[{"name":"user","type":"address","internalType":"address"}],"outputs":[{"name":"","type":"uint256","internalType":"uint256"}],"stateMutability":"view"},{"type":"function","name":"getDueUsers","inputs":[],"outputs":[{"name":"","type":"address[]","internalType":"address[]"}],"stateMutability":"view"},{"type":"function","name":"getPendingRbtc","inputs":[{"name":"user","type":"address","internalType":"address"}],"outputs":[{"name":"","type":"uint256","internalType":"uint256"}],"stateMutability":"view"},{"type":"function","name":"getSchedule","inputs":[{"name":"user","type":"address","internalType":"address"}],"outputs":[{"name":"","type":"tuple","internalType":"struct SatsPilotDCA.Schedule","components":[{"name":"docBalance","type":"uint256","internalType":"uint256"},{"name":"purchaseAmount","type":"uint256","internalType":"uint256"},{"name":"purchasePeriod","type":"uint256","internalType":"uint256"},{"name":"lastExecution","type":"uint256","internalType":"uint256"},{"name":"accumulatedRbtc","type":"uint256","internalType":"uint256"},{"name":"active","type":"bool","internalType":"bool"}]}],"stateMutability":"view"},{"type":"function","name":"getUserCount","inputs":[],"outputs":[{"name":"","type":"uint256","internalType":"uint256"}],"stateMutability":"view"},{"type":"function","name":"isDue","inputs":[{"name":"user","type":"address","internalType":"address"}],"outputs":[{"name":"","type":"bool","internalType":"bool"}],"stateMutability":"view"},{"type":"function","name":"isUser","inputs":[{"name":"","type":"address","internalType":"address"}],"outputs":[{"name":"","type":"bool","internalType":"bool"}],"stateMutability":"view"},{"type":"function","name":"keeper","inputs":[],"outputs":[{"name":"","type":"address","internalType":"address"}],"stateMutability":"view"},{"type":"function","name":"owner","inputs":[],"outputs":[{"name":"","type":"address","internalType":"address"}],"stateMutability":"view"},{"type":"function","name":"schedules","inputs":[{"name":"","type":"address","internalType":"address"}],"outputs":[{"name":"docBalance","type":"uint256","internalType":"uint256"},{"name":"purchaseAmount","type":"uint256","internalType":"uint256"},{"name":"purchasePeriod","type":"uint256","internalType":"uint256"},{"name":"lastExecution","type":"uint256","internalType":"uint256"},{"name":"accumulatedRbtc","type":"uint256","internalType":"uint256"},{"name":"active","type":"bool","internalType":"bool"}],"stateMutability":"view"},{"type":"function","name":"setKeeper","inputs":[{"name":"_keeper","type":"address","internalType":"address"}],"outputs":[],"stateMutability":"nonpayable"},{"type":"function","name":"transferOwnership","inputs":[{"name":"newOwner","type":"address","internalType":"address"}],"outputs":[],"stateMutability":"nonpayable"},{"type":"function","name":"updateSchedule","inputs":[{"name":"newPurchaseAmount","type":"uint256","internalType":"uint256"},{"name":"newPurchasePeriod","type":"uint256","internalType":"uint256"}],"outputs":[],"stateMutability":"nonpayable"},{"type":"function","name":"users","inputs":[{"name":"","type":"uint256","internalType":"uint256"}],"outputs":[{"name":"","type":"address","internalType":"address"}],"stateMutability":"view"},{"type":"function","name":"withdrawDoc","inputs":[{"name":"amount","type":"uint256","internalType":"uint256"}],"outputs":[],"stateMutability":"nonpayable"},{"type":"function","name":"withdrawFees","inputs":[],"outputs":[],"stateMutability":"nonpayable"},{"type":"function","name":"withdrawRbtc","inputs":[],"outputs":[],"stateMutability":"nonpayable"},{"type":"event","name":"DCAExecuted","inputs":[{"name":"user","type":"address","indexed":true,"internalType":"address"},{"name":"docSpent","type":"uint256","indexed":false,"internalType":"uint256"},{"name":"rbtcReceived","type":"uint256","indexed":false,"internalType":"uint256"},{"name":"fee","type":"uint256","indexed":false,"internalType":"uint256"}],"anonymous":false},{"type":"event","name":"DCAFailed","inputs":[{"name":"user","type":"address","indexed":true,"internalType":"address"},{"name":"reason","type":"bytes","indexed":false,"internalType":"bytes"}],"anonymous":false},{"type":"event","name":"Deposited","inputs":[{"name":"user","type":"address","indexed":true,"internalType":"address"},{"name":"amount","type":"uint256","indexed":false,"internalType":"uint256"}],"anonymous":false},{"type":"event","name":"DocWithdrawn","inputs":[{"name":"user","type":"address","indexed":true,"internalType":"address"},{"name":"amount","type":"uint256","indexed":false,"internalType":"uint256"}],"anonymous":false},{"type":"event","name":"KeeperUpdated","inputs":[{"name":"oldKeeper","type":"address","indexed":true,"internalType":"address"},{"name":"newKeeper","type":"address","indexed":true,"internalType":"address"}],"anonymous":false},{"type":"event","name":"RbtcWithdrawn","inputs":[{"name":"user","type":"address","indexed":true,"internalType":"address"},{"name":"amount","type":"uint256","indexed":false,"internalType":"uint256"}],"anonymous":false},{"type":"event","name":"ScheduleCancelled","inputs":[{"name":"user","type":"address","indexed":true,"internalType":"address"},{"name":"docRefunded","type":"uint256","indexed":false,"internalType":"uint256"}],"anonymous":false},{"type":"event","name":"ScheduleCreated","inputs":[{"name":"user","type":"address","indexed":true,"internalType":"address"},{"name":"depositAmount","type":"uint256","indexed":false,"internalType":"uint256"},{"name":"purchaseAmount","type":"uint256","indexed":false,"internalType":"uint256"},{"name":"purchasePeriod","type":"uint256","indexed":false,"internalType":"uint256"}],"anonymous":false},{"type":"event","name":"ScheduleDeactivated","inputs":[{"name":"user","type":"address","indexed":true,"internalType":"address"}],"anonymous":false},{"type":"event","name":"ScheduleUpdated","inputs":[{"name":"user","type":"address","indexed":true,"internalType":"address"},{"name":"purchaseAmount","type":"uint256","indexed":false,"internalType":"uint256"},{"name":"purchasePeriod","type":"uint256","indexed":false,"internalType":"uint256"}],"anonymous":false}],"bytecode":{"object":"0x608060405234801561000f575f5ffd5b5060405161458e38038061458e83398181016040528101906100319190610115565b3360045f6101000a81548173ffffffffffffffffffffffffffffffffffffffff021916908373ffffffffffffffffffffffffffffffffffffffff1602179055508060055f6101000a81548173ffffffffffffffffffffffffffffffffffffffff021916908373ffffffffffffffffffffffffffffffffffffffff16021790555050610140565b5f5ffd5b5f73ffffffffffffffffffffffffffffffffffffffff82169050919050565b5f6100e4826100bb565b9050919050565b6100f4816100da565b81146100fe575f5ffd5b50565b5f8151905061010f816100eb565b92915050565b5f6020828403121561012a576101296100b7565b5b5f61013784828501610101565b91505092915050565b6144418061014d5f395ff3fe6080604052600436106101cf575f3560e01c806383039d5d116100f6578063b5cb15f711610094578063d39fee3411610063578063d39fee34146106eb578063e6671f9014610727578063ec57eb201461074f578063f2fde38b1461078b5761028e565b8063b5cb15f714610645578063bbccf1541461066f578063bf333f2c14610699578063d27b4f71146106c35761028e565b80639b92e688116100d05780639b92e688146105a1578063a0943142146105c9578063a8bef5ef146105f3578063aced16611461061b5761028e565b806383039d5d14610525578063894fa7211461054d5780638da5cb5b146105775761028e565b80634209fff11161016e5780635baa3a071161013d5780635baa3a07146104685780636d370ff214610492578063748747e6146104bc57806380c3780f146104e45761028e565b80634209fff1146103c4578063476343ee146104005780635294bac81461041657806354545bfb1461043e5761028e565b806323444a04116101aa57806323444a04146102fa578063365b98b21461032457806336954cc71461036057806339ef44841461039c5761028e565b8062112c5d146102925780630a971ecb146102ce5780630c3ccb0e146102e45761028e565b3661028e5773f773b590af754d597770937fa8ea7abdf266837073ffffffffffffffffffffffffffffffffffffffff163373ffffffffffffffffffffffffffffffffffffffff16148061024d57503073ffffffffffffffffffffffffffffffffffffffff163373ffffffffffffffffffffffffffffffffffffffff16145b61028c576040517f08c379a000000000000000000000000000000000000000000000000000000000815260040161028390612e0d565b60405180910390fd5b005b5f5ffd5b34801561029d575f5ffd5b506102b860048036038101906102b39190612e8d565b6107b3565b6040516102c59190612ed0565b60405180910390f35b3480156102d9575f5ffd5b506102e26107fb565b005b3480156102ef575f5ffd5b506102f8610a08565b005b348015610305575f5ffd5b5061030e610d37565b60405161031b9190612f44565b60405180910390f35b34801561032f575f5ffd5b5061034a60048036038101906103459190612f87565b610d4f565b6040516103579190612fc1565b60405180910390f35b34801561036b575f5ffd5b5061038660048036038101906103819190612e8d565b610d8a565b6040516103939190612ed0565b60405180910390f35b3480156103a7575f5ffd5b506103c260048036038101906103bd919061303b565b610dd3565b005b3480156103cf575f5ffd5b506103ea60048036038101906103e59190612e8d565b610fbc565b6040516103f791906130a0565b60405180910390f35b34801561040b575f5ffd5b50610414610fd9565b005b348015610421575f5ffd5b5061043c600480360381019061043791906130b9565b6111a9565b005b348015610449575f5ffd5b50610452611640565b60405161045f9190612ed0565b60405180910390f35b348015610473575f5ffd5b5061047c61164d565b6040516104899190613129565b60405180910390f35b34801561049d575f5ffd5b506104a6611665565b6040516104b39190612ed0565b60405180910390f35b3480156104c7575f5ffd5b506104e260048036038101906104dd9190612e8d565b61166b565b005b3480156104ef575f5ffd5b5061050a60048036038101906105059190612e8d565b611826565b60405161051c96959493929190613142565b60405180910390f35b348015610530575f5ffd5b5061054b60048036038101906105469190612f87565b61186a565b005b348015610558575f5ffd5b50610561611b96565b60405161056e91906131c1565b60405180910390f35b348015610582575f5ffd5b5061058b611bae565b6040516105989190612fc1565b60405180910390f35b3480156105ac575f5ffd5b506105c760048036038101906105c29190612e8d565b611bd3565b005b3480156105d4575f5ffd5b506105dd611c6e565b6040516105ea9190613291565b60405180910390f35b3480156105fe575f5ffd5b5061061960048036038101906106149190612f87565b611e44565b005b348015610626575f5ffd5b5061062f612091565b60405161063c9190612fc1565b60405180910390f35b348015610650575f5ffd5b506106596120b6565b6040516106669190612ed0565b60405180910390f35b34801561067a575f5ffd5b506106836120c2565b6040516106909190612ed0565b60405180910390f35b3480156106a4575f5ffd5b506106ad6120c9565b6040516106ba9190612ed0565b60405180910390f35b3480156106ce575f5ffd5b506106e960048036038101906106e49190612e8d565b6120ce565b005b3480156106f6575f5ffd5b50610711600480360381019061070c9190612e8d565b612148565b60405161071e9190613348565b60405180910390f35b348015610732575f5ffd5b5061074d60048036038101906107489190613361565b6121ea565b005b34801561075a575f5ffd5b5061077560048036038101906107709190612e8d565b6123b9565b60405161078291906130a0565b60405180910390f35b348015610796575f5ffd5b506107b160048036038101906107ac9190612e8d565b6123ca565b005b5f60015f8373ffffffffffffffffffffffffffffffffffffffff1673ffffffffffffffffffffffffffffffffffffffff1681526020019081526020015f205f01549050919050565b5f5f9054906101000a900460ff1615610849576040517f08c379a0000000000000000000000000000000000000000000000000000000008152600401610840906133e9565b60405180910390fd5b60015f5f6101000a81548160ff0219169083151502179055505f60015f3373ffffffffffffffffffffffffffffffffffffffff1673ffffffffffffffffffffffffffffffffffffffff1681526020019081526020015f2090505f816004015490505f81116108ec576040517f08c379a00000000000000000000000000000000000000000000000000000000081526004016108e390613451565b60405180910390fd5b5f82600401819055505f3373ffffffffffffffffffffffffffffffffffffffff168260405161091a9061349c565b5f6040518083038185875af1925050503d805f8114610954576040519150601f19603f3d011682016040523d82523d5f602084013e610959565b606091505b505090508061099d576040517f08c379a0000000000000000000000000000000000000000000000000000000008152600401610994906134fa565b60405180910390fd5b3373ffffffffffffffffffffffffffffffffffffffff167fc02359ae5b9520fe5b9526985687758fac3218ba9521711728056b0abadd3d68836040516109e39190612ed0565b60405180910390a25050505f5f5f6101000a81548160ff021916908315150217905550565b5f5f9054906101000a900460ff1615610a56576040517f08c379a0000000000000000000000000000000000000000000000000000000008152600401610a4d906133e9565b60405180910390fd5b60015f5f6101000a81548160ff0219169083151502179055505f60015f3373ffffffffffffffffffffffffffffffffffffffff1673ffffffffffffffffffffffffffffffffffffffff1681526020019081526020015f209050806005015f9054906101000a900460ff16610aff576040517f08c379a0000000000000000000000000000000000000000000000000000000008152600401610af690613562565b60405180910390fd5b5f815f015490505f826004015490505f836005015f6101000a81548160ff0219169083151502179055505f835f01819055505f83600401819055505f821115610c1a57610b4b8261250a565b73e700691da7b9851f2f35f8b8182c69c53ccad9db73ffffffffffffffffffffffffffffffffffffffff1663a9059cbb33846040518363ffffffff1660e01b8152600401610b9a929190613580565b6020604051808303815f875af1158015610bb6573d5f5f3e3d5ffd5b505050506040513d601f19601f82011682018060405250810190610bda91906135d1565b610c19576040517f08c379a0000000000000000000000000000000000000000000000000000000008152600401610c1090613646565b60405180910390fd5b5b5f811115610ccc575f3373ffffffffffffffffffffffffffffffffffffffff1682604051610c479061349c565b5f6040518083038185875af1925050503d805f8114610c81576040519150601f19603f3d011682016040523d82523d5f602084013e610c86565b606091505b5050905080610cca576040517f08c379a0000000000000000000000000000000000000000000000000000000008152600401610cc1906136ae565b60405180910390fd5b505b3373ffffffffffffffffffffffffffffffffffffffff167faba046ef324ae07859488900d542d47a094f3a89259cd5a3c3fa44f9a12b144a83604051610d129190612ed0565b60405180910390a25050505f5f5f6101000a81548160ff021916908315150217905550565b73f773b590af754d597770937fa8ea7abdf266837081565b60028181548110610d5e575f80fd5b905f5260205f20015f915054906101000a900473ffffffffffffffffffffffffffffffffffffffff1681565b5f60015f8373ffffffffffffffffffffffffffffffffffffffff1673ffffffffffffffffffffffffffffffffffffffff1681526020019081526020015f20600401549050919050565b60055f9054906101000a900473ffffffffffffffffffffffffffffffffffffffff1673ffffffffffffffffffffffffffffffffffffffff163373ffffffffffffffffffffffffffffffffffffffff1614610e62576040517f08c379a0000000000000000000000000000000000000000000000000000000008152600401610e5990613716565b60405180910390fd5b5f5f90505b82829050811015610fb7573073ffffffffffffffffffffffffffffffffffffffff1663d27b4f71848484818110610ea157610ea0613734565b5b9050602002016020810190610eb69190612e8d565b6040518263ffffffff1660e01b8152600401610ed29190612fc1565b5f604051808303815f87803b158015610ee9575f5ffd5b505af1925050508015610efa575060015b610fa9573d805f8114610f28576040519150601f19603f3d011682016040523d82523d5f602084013e610f2d565b606091505b50838383818110610f4157610f40613734565b5b9050602002016020810190610f569190612e8d565b73ffffffffffffffffffffffffffffffffffffffff167ff2432448bd7f4f83571af712c44c366acd66e1c64f00b76f244ffe5d48383e0982604051610f9b91906137d1565b60405180910390a250610faa565b5b8080600101915050610e67565b505050565b6003602052805f5260405f205f915054906101000a900460ff1681565b60045f9054906101000a900473ffffffffffffffffffffffffffffffffffffffff1673ffffffffffffffffffffffffffffffffffffffff163373ffffffffffffffffffffffffffffffffffffffff1614611068576040517f08c379a000000000000000000000000000000000000000000000000000000000815260040161105f9061383b565b60405180910390fd5b5f60065490505f81116110b0576040517f08c379a00000000000000000000000000000000000000000000000000000000081526004016110a7906138a3565b60405180910390fd5b5f60068190555073e700691da7b9851f2f35f8b8182c69c53ccad9db73ffffffffffffffffffffffffffffffffffffffff1663a9059cbb60045f9054906101000a900473ffffffffffffffffffffffffffffffffffffffff16836040518363ffffffff1660e01b8152600401611127929190613580565b6020604051808303815f875af1158015611143573d5f5f3e3d5ffd5b505050506040513d601f19601f8201168201806040525081019061116791906135d1565b6111a6576040517f08c379a000000000000000000000000000000000000000000000000000000000815260040161119d9061390b565b60405180910390fd5b50565b60015f3373ffffffffffffffffffffffffffffffffffffffff1673ffffffffffffffffffffffffffffffffffffffff1681526020019081526020015f206005015f9054906101000a900460ff1615611236576040517f08c379a000000000000000000000000000000000000000000000000000000000815260040161122d90613973565b60405180910390fd5b5f8311611278576040517f08c379a000000000000000000000000000000000000000000000000000000000815260040161126f906139db565b60405180910390fd5b68015af1d78b58c400008210156112c4576040517f08c379a00000000000000000000000000000000000000000000000000000000081526004016112bb90613a69565b60405180910390fd5b6201518081101561130a576040517f08c379a000000000000000000000000000000000000000000000000000000000815260040161130190613ad1565b60405180910390fd5b8282111561134d576040517f08c379a000000000000000000000000000000000000000000000000000000000815260040161134490613b39565b60405180910390fd5b73e700691da7b9851f2f35f8b8182c69c53ccad9db73ffffffffffffffffffffffffffffffffffffffff166323b872dd3330866040518463ffffffff1660e01b815260040161139e93929190613b57565b6020604051808303815f875af11580156113ba573d5f5f3e3d5ffd5b505050506040513d601f19601f820116820180604052508101906113de91906135d1565b61141d576040517f08c379a000000000000000000000000000000000000000000000000000000000815260040161141490613bd6565b60405180910390fd5b611426836125e0565b60035f3373ffffffffffffffffffffffffffffffffffffffff1673ffffffffffffffffffffffffffffffffffffffff1681526020019081526020015f205f9054906101000a900460ff1661152a57600233908060018154018082558091505060019003905f5260205f20015f9091909190916101000a81548173ffffffffffffffffffffffffffffffffffffffff021916908373ffffffffffffffffffffffffffffffffffffffff160217905550600160035f3373ffffffffffffffffffffffffffffffffffffffff1673ffffffffffffffffffffffffffffffffffffffff1681526020019081526020015f205f6101000a81548160ff0219169083151502179055505b6040518060c001604052808481526020018381526020018281526020014281526020015f81526020016001151581525060015f3373ffffffffffffffffffffffffffffffffffffffff1673ffffffffffffffffffffffffffffffffffffffff1681526020019081526020015f205f820151815f01556020820151816001015560408201518160020155606082015181600301556080820151816004015560a0820151816005015f6101000a81548160ff0219169083151502179055509050503373ffffffffffffffffffffffffffffffffffffffff167f5ab0cb75fe24f04dbfe14b847f8579bc91baa153ee5b2758fcfa59f33675b16284848460405161163393929190613bf4565b60405180910390a2505050565b68015af1d78b58c4000081565b73e700691da7b9851f2f35f8b8182c69c53ccad9db81565b60065481565b60045f9054906101000a900473ffffffffffffffffffffffffffffffffffffffff1673ffffffffffffffffffffffffffffffffffffffff163373ffffffffffffffffffffffffffffffffffffffff16146116fa576040517f08c379a00000000000000000000000000000000000000000000000000000000081526004016116f19061383b565b60405180910390fd5b5f73ffffffffffffffffffffffffffffffffffffffff168173ffffffffffffffffffffffffffffffffffffffff1603611768576040517f08c379a000000000000000000000000000000000000000000000000000000000815260040161175f90613c73565b60405180910390fd5b8073ffffffffffffffffffffffffffffffffffffffff1660055f9054906101000a900473ffffffffffffffffffffffffffffffffffffffff1673ffffffffffffffffffffffffffffffffffffffff167f53d3703fe259def57584466f32d1b94c30278008c683c21b04501c4966f13a6960405160405180910390a38060055f6101000a81548173ffffffffffffffffffffffffffffffffffffffff021916908373ffffffffffffffffffffffffffffffffffffffff16021790555050565b6001602052805f5260405f205f91509050805f015490806001015490806002015490806003015490806004015490806005015f9054906101000a900460ff16905086565b5f5f9054906101000a900460ff16156118b8576040517f08c379a00000000000000000000000000000000000000000000000000000000081526004016118af906133e9565b60405180910390fd5b60015f5f6101000a81548160ff0219169083151502179055505f60015f3373ffffffffffffffffffffffffffffffffffffffff1673ffffffffffffffffffffffffffffffffffffffff1681526020019081526020015f209050806005015f9054906101000a900460ff16611961576040517f08c379a000000000000000000000000000000000000000000000000000000000815260040161195890613562565b60405180910390fd5b5f821180156119735750805f01548211155b6119b2576040517f08c379a00000000000000000000000000000000000000000000000000000000081526004016119a990613cdb565b60405180910390fd5b5f82825f01546119c29190613d26565b90505f8114806119d6575081600101548110155b611a15576040517f08c379a0000000000000000000000000000000000000000000000000000000008152600401611a0c90613da3565b60405180910390fd5b611a1e8361250a565b73e700691da7b9851f2f35f8b8182c69c53ccad9db73ffffffffffffffffffffffffffffffffffffffff1663a9059cbb33856040518363ffffffff1660e01b8152600401611a6d929190613580565b6020604051808303815f875af1158015611a89573d5f5f3e3d5ffd5b505050506040513d601f19601f82011682018060405250810190611aad91906135d1565b611aec576040517f08c379a0000000000000000000000000000000000000000000000000000000008152600401611ae390613bd6565b60405180910390fd5b82825f015f828254611afe9190613d26565b925050819055505f825f015403611b2b575f826005015f6101000a81548160ff0219169083151502179055505b3373ffffffffffffffffffffffffffffffffffffffff167f93fb9cc0cf6b85f4aae7dbb495816dfd988aee8c18418e470998deabb855e74f84604051611b719190612ed0565b60405180910390a250505f5f5f6101000a81548160ff02191690831515021790555050565b73544eb90e766b405134b3b3f62b6b4c23fcd5fda281565b60045f9054906101000a900473ffffffffffffffffffffffffffffffffffffffff1681565b60055f9054906101000a900473ffffffffffffffffffffffffffffffffffffffff1673ffffffffffffffffffffffffffffffffffffffff163373ffffffffffffffffffffffffffffffffffffffff1614611c62576040517f08c379a0000000000000000000000000000000000000000000000000000000008152600401611c5990613716565b60405180910390fd5b611c6b81612829565b50565b60605f60028054905090505f5f90505f5f90505b82811015611cef57611cce60028281548110611ca157611ca0613734565b5b905f5260205f20015f9054906101000a900473ffffffffffffffffffffffffffffffffffffffff16612cf5565b15611ce2578180611cde90613dc1565b9250505b8080600101915050611c82565b505f8167ffffffffffffffff811115611d0b57611d0a613e08565b5b604051908082528060200260200182016040528015611d395781602001602082028036833780820191505090505b5090505f5f90505f5f90505b84811015611e3957611d9160028281548110611d6457611d63613734565b5b905f5260205f20015f9054906101000a900473ffffffffffffffffffffffffffffffffffffffff16612cf5565b15611e2c5760028181548110611daa57611da9613734565b5b905f5260205f20015f9054906101000a900473ffffffffffffffffffffffffffffffffffffffff16838380611dde90613dc1565b945081518110611df157611df0613734565b5b602002602001019073ffffffffffffffffffffffffffffffffffffffff16908173ffffffffffffffffffffffffffffffffffffffff16815250505b8080600101915050611d45565b508194505050505090565b60015f3373ffffffffffffffffffffffffffffffffffffffff1673ffffffffffffffffffffffffffffffffffffffff1681526020019081526020015f206005015f9054906101000a900460ff16611ed0576040517f08c379a0000000000000000000000000000000000000000000000000000000008152600401611ec790613562565b60405180910390fd5b5f8111611f12576040517f08c379a0000000000000000000000000000000000000000000000000000000008152600401611f0990613e7f565b60405180910390fd5b73e700691da7b9851f2f35f8b8182c69c53ccad9db73ffffffffffffffffffffffffffffffffffffffff166323b872dd3330846040518463ffffffff1660e01b8152600401611f6393929190613b57565b6020604051808303815f875af1158015611f7f573d5f5f3e3d5ffd5b505050506040513d601f19601f82011682018060405250810190611fa391906135d1565b611fe2576040517f08c379a0000000000000000000000000000000000000000000000000000000008152600401611fd990613bd6565b60405180910390fd5b611feb816125e0565b8060015f3373ffffffffffffffffffffffffffffffffffffffff1673ffffffffffffffffffffffffffffffffffffffff1681526020019081526020015f205f015f8282546120399190613e9d565b925050819055503373ffffffffffffffffffffffffffffffffffffffff167f2da466a7b24304f47e87fa2e1e5a81b9831ce54fec19055ce277ca2f39ba42c4826040516120869190612ed0565b60405180910390a250565b60055f9054906101000a900473ffffffffffffffffffffffffffffffffffffffff1681565b5f600280549050905090565b6201518081565b603281565b3073ffffffffffffffffffffffffffffffffffffffff163373ffffffffffffffffffffffffffffffffffffffff161461213c576040517f08c379a000000000000000000000000000000000000000000000000000000000815260040161213390613f1a565b60405180910390fd5b61214581612829565b50565b612150612d81565b60015f8373ffffffffffffffffffffffffffffffffffffffff1673ffffffffffffffffffffffffffffffffffffffff1681526020019081526020015f206040518060c00160405290815f820154815260200160018201548152602001600282015481526020016003820154815260200160048201548152602001600582015f9054906101000a900460ff1615151515815250509050919050565b5f60015f3373ffffffffffffffffffffffffffffffffffffffff1673ffffffffffffffffffffffffffffffffffffffff1681526020019081526020015f209050806005015f9054906101000a900460ff1661227a576040517f08c379a000000000000000000000000000000000000000000000000000000000815260040161227190613562565b60405180910390fd5b68015af1d78b58c400008310156122c6576040517f08c379a00000000000000000000000000000000000000000000000000000000081526004016122bd90613f82565b60405180910390fd5b6201518082101561230c576040517f08c379a000000000000000000000000000000000000000000000000000000000815260040161230390613fea565b60405180910390fd5b805f0154831115612352576040517f08c379a000000000000000000000000000000000000000000000000000000000815260040161234990614052565b60405180910390fd5b8281600101819055508181600201819055503373ffffffffffffffffffffffffffffffffffffffff167f37b50b476a1c3aad70878aea9298883f0df1f4a4a73a2a1a624fe6be4ad5588384846040516123ac929190614070565b60405180910390a2505050565b5f6123c382612cf5565b9050919050565b60045f9054906101000a900473ffffffffffffffffffffffffffffffffffffffff1673ffffffffffffffffffffffffffffffffffffffff163373ffffffffffffffffffffffffffffffffffffffff1614612459576040517f08c379a00000000000000000000000000000000000000000000000000000000081526004016124509061383b565b60405180910390fd5b5f73ffffffffffffffffffffffffffffffffffffffff168173ffffffffffffffffffffffffffffffffffffffff16036124c7576040517f08c379a00000000000000000000000000000000000000000000000000000000081526004016124be90613c73565b60405180910390fd5b8060045f6101000a81548173ffffffffffffffffffffffffffffffffffffffff021916908373ffffffffffffffffffffffffffffffffffffffff16021790555050565b5f73544eb90e766b405134b3b3f62b6b4c23fcd5fda273ffffffffffffffffffffffffffffffffffffffff1663852a12e3836040518263ffffffff1660e01b81526004016125589190612ed0565b6020604051808303815f875af1158015612574573d5f5f3e3d5ffd5b505050506040513d601f19601f8201168201806040525081019061259891906140ab565b90505f81146125dc576040517f08c379a00000000000000000000000000000000000000000000000000000000081526004016125d390614120565b60405180910390fd5b5050565b5f73e700691da7b9851f2f35f8b8182c69c53ccad9db73ffffffffffffffffffffffffffffffffffffffff1663dd62ed3e3073544eb90e766b405134b3b3f62b6b4c23fcd5fda26040518363ffffffff1660e01b815260040161264492919061413e565b602060405180830381865afa15801561265f573d5f5f3e3d5ffd5b505050506040513d601f19601f8201168201806040525081019061268391906140ab565b9050818110156127525773e700691da7b9851f2f35f8b8182c69c53ccad9db73ffffffffffffffffffffffffffffffffffffffff1663095ea7b373544eb90e766b405134b3b3f62b6b4c23fcd5fda27fffffffffffffffffffffffffffffffffffffffffffffffffffffffffffffffff6040518363ffffffff1660e01b8152600401612710929190613580565b6020604051808303815f875af115801561272c573d5f5f3e3d5ffd5b505050506040513d601f19601f8201168201806040525081019061275091906135d1565b505b5f73544eb90e766b405134b3b3f62b6b4c23fcd5fda273ffffffffffffffffffffffffffffffffffffffff1663a0712d68846040518263ffffffff1660e01b81526004016127a09190612ed0565b6020604051808303815f875af11580156127bc573d5f5f3e3d5ffd5b505050506040513d601f19601f820116820180604052508101906127e091906140ab565b90505f8114612824576040517f08c379a000000000000000000000000000000000000000000000000000000000815260040161281b906141af565b60405180910390fd5b505050565b5f60015f8373ffffffffffffffffffffffffffffffffffffffff1673ffffffffffffffffffffffffffffffffffffffff1681526020019081526020015f209050806005015f9054906101000a900460ff166128b9576040517f08c379a00000000000000000000000000000000000000000000000000000000081526004016128b090614217565b60405180910390fd5b806002015481600301546128cd9190613e9d565b42101561290f576040517f08c379a00000000000000000000000000000000000000000000000000000000081526004016129069061427f565b60405180910390fd5b8060010154815f01541015612959576040517f08c379a0000000000000000000000000000000000000000000000000000000008152600401612950906142e7565b60405180910390fd5b5f8160010154905061296a8161250a565b5f61271060328361297b9190614305565b6129859190614373565b90505f81836129949190613d26565b90508160065f8282546129a79190613e9d565b925050819055505f73e700691da7b9851f2f35f8b8182c69c53ccad9db73ffffffffffffffffffffffffffffffffffffffff1663dd62ed3e3073f773b590af754d597770937fa8ea7abdf26683706040518363ffffffff1660e01b8152600401612a1292919061413e565b602060405180830381865afa158015612a2d573d5f5f3e3d5ffd5b505050506040513d601f19601f82011682018060405250810190612a5191906140ab565b905081811015612b205773e700691da7b9851f2f35f8b8182c69c53ccad9db73ffffffffffffffffffffffffffffffffffffffff1663095ea7b373f773b590af754d597770937fa8ea7abdf26683707fffffffffffffffffffffffffffffffffffffffffffffffffffffffffffffffff6040518363ffffffff1660e01b8152600401612ade929190613580565b6020604051808303815f875af1158015612afa573d5f5f3e3d5ffd5b505050506040513d601f19601f82011682018060405250810190612b1e91906135d1565b505b5f47905073f773b590af754d597770937fa8ea7abdf266837073ffffffffffffffffffffffffffffffffffffffff166350771849846040518263ffffffff1660e01b8152600401612b719190612ed0565b5f604051808303815f87803b158015612b88575f5ffd5b505af1158015612b9a573d5f5f3e3d5ffd5b505050505f8147612bab9190613d26565b90505f8111612bef576040517f08c379a0000000000000000000000000000000000000000000000000000000008152600401612be6906143ed565b60405180910390fd5b85875f015f828254612c019190613d26565b9250508190555080876004015f828254612c1b9190613e9d565b925050819055504287600301819055508660010154875f01541015612c99575f876005015f6101000a81548160ff0219169083151502179055508773ffffffffffffffffffffffffffffffffffffffff167f2d69daea880a48b9ba3d6212ecaf359bcccb6a1d6cd877b45ac710871112379d60405160405180910390a25b8773ffffffffffffffffffffffffffffffffffffffff167f15777b4b303a33d44b8a36b2b09cc7c9470c9a4bf551312cc5c23dd025c0477a878388604051612ce393929190613bf4565b60405180910390a25050505050505050565b5f5f60015f8473ffffffffffffffffffffffffffffffffffffffff1673ffffffffffffffffffffffffffffffffffffffff1681526020019081526020015f209050806005015f9054906101000a900460ff168015612d66575080600201548160030154612d629190613e9d565b4210155b8015612d7957508060010154815f015410155b915050919050565b6040518060c001604052805f81526020015f81526020015f81526020015f81526020015f81526020015f151581525090565b5f82825260208201905092915050565b7f4f6e6c79204d6f430000000000000000000000000000000000000000000000005f82015250565b5f612df7600883612db3565b9150612e0282612dc3565b602082019050919050565b5f6020820190508181035f830152612e2481612deb565b9050919050565b5f5ffd5b5f5ffd5b5f73ffffffffffffffffffffffffffffffffffffffff82169050919050565b5f612e5c82612e33565b9050919050565b612e6c81612e52565b8114612e76575f5ffd5b50565b5f81359050612e8781612e63565b92915050565b5f60208284031215612ea257612ea1612e2b565b5b5f612eaf84828501612e79565b91505092915050565b5f819050919050565b612eca81612eb8565b82525050565b5f602082019050612ee35f830184612ec1565b92915050565b5f819050919050565b5f612f0c612f07612f0284612e33565b612ee9565b612e33565b9050919050565b5f612f1d82612ef2565b9050919050565b5f612f2e82612f13565b9050919050565b612f3e81612f24565b82525050565b5f602082019050612f575f830184612f35565b92915050565b612f6681612eb8565b8114612f70575f5ffd5b50565b5f81359050612f8181612f5d565b92915050565b5f60208284031215612f9c57612f9b612e2b565b5b5f612fa984828501612f73565b91505092915050565b612fbb81612e52565b82525050565b5f602082019050612fd45f830184612fb2565b92915050565b5f5ffd5b5f5ffd5b5f5ffd5b5f5f83601f840112612ffb57612ffa612fda565b5b8235905067ffffffffffffffff81111561301857613017612fde565b5b60208301915083602082028301111561303457613033612fe2565b5b9250929050565b5f5f6020838503121561305157613050612e2b565b5b5f83013567ffffffffffffffff81111561306e5761306d612e2f565b5b61307a85828601612fe6565b92509250509250929050565b5f8115159050919050565b61309a81613086565b82525050565b5f6020820190506130b35f830184613091565b92915050565b5f5f5f606084860312156130d0576130cf612e2b565b5b5f6130dd86828701612f73565b93505060206130ee86828701612f73565b92505060406130ff86828701612f73565b9150509250925092565b5f61311382612f13565b9050919050565b61312381613109565b82525050565b5f60208201905061313c5f83018461311a565b92915050565b5f60c0820190506131555f830189612ec1565b6131626020830188612ec1565b61316f6040830187612ec1565b61317c6060830186612ec1565b6131896080830185612ec1565b61319660a0830184613091565b979650505050505050565b5f6131ab82612f13565b9050919050565b6131bb816131a1565b82525050565b5f6020820190506131d45f8301846131b2565b92915050565b5f81519050919050565b5f82825260208201905092915050565b5f819050602082019050919050565b61320c81612e52565b82525050565b5f61321d8383613203565b60208301905092915050565b5f602082019050919050565b5f61323f826131da565b61324981856131e4565b9350613254836131f4565b805f5b8381101561328457815161326b8882613212565b975061327683613229565b925050600181019050613257565b5085935050505092915050565b5f6020820190508181035f8301526132a98184613235565b905092915050565b6132ba81612eb8565b82525050565b6132c981613086565b82525050565b60c082015f8201516132e35f8501826132b1565b5060208201516132f660208501826132b1565b50604082015161330960408501826132b1565b50606082015161331c60608501826132b1565b50608082015161332f60808501826132b1565b5060a082015161334260a08501826132c0565b50505050565b5f60c08201905061335b5f8301846132cf565b92915050565b5f5f6040838503121561337757613376612e2b565b5b5f61338485828601612f73565b925050602061339585828601612f73565b9150509250929050565b7f5265656e7472616e7400000000000000000000000000000000000000000000005f82015250565b5f6133d3600983612db3565b91506133de8261339f565b602082019050919050565b5f6020820190508181035f830152613400816133c7565b9050919050565b7f4e6f205242544320746f207769746864726177000000000000000000000000005f82015250565b5f61343b601383612db3565b915061344682613407565b602082019050919050565b5f6020820190508181035f8301526134688161342f565b9050919050565b5f81905092915050565b50565b5f6134875f8361346f565b915061349282613479565b5f82019050919050565b5f6134a68261347c565b9150819050919050565b7f52425443207472616e73666572206661696c65640000000000000000000000005f82015250565b5f6134e4601483612db3565b91506134ef826134b0565b602082019050919050565b5f6020820190508181035f830152613511816134d8565b9050919050565b7f4e6f20616374697665207363686564756c6500000000000000000000000000005f82015250565b5f61354c601283612db3565b915061355782613518565b602082019050919050565b5f6020820190508181035f83015261357981613540565b9050919050565b5f6040820190506135935f830185612fb2565b6135a06020830184612ec1565b9392505050565b6135b081613086565b81146135ba575f5ffd5b50565b5f815190506135cb816135a7565b92915050565b5f602082840312156135e6576135e5612e2b565b5b5f6135f3848285016135bd565b91505092915050565b7f444f4320726566756e64206661696c65640000000000000000000000000000005f82015250565b5f613630601183612db3565b915061363b826135fc565b602082019050919050565b5f6020820190508181035f83015261365d81613624565b9050919050565b7f5242544320726566756e64206661696c656400000000000000000000000000005f82015250565b5f613698601283612db3565b91506136a382613664565b602082019050919050565b5f6020820190508181035f8301526136c58161368c565b9050919050565b7f4e6f74206b6565706572000000000000000000000000000000000000000000005f82015250565b5f613700600a83612db3565b915061370b826136cc565b602082019050919050565b5f6020820190508181035f83015261372d816136f4565b9050919050565b7f4e487b71000000000000000000000000000000000000000000000000000000005f52603260045260245ffd5b5f81519050919050565b5f82825260208201905092915050565b8281835e5f83830152505050565b5f601f19601f8301169050919050565b5f6137a382613761565b6137ad818561376b565b93506137bd81856020860161377b565b6137c681613789565b840191505092915050565b5f6020820190508181035f8301526137e98184613799565b905092915050565b7f4e6f74206f776e657200000000000000000000000000000000000000000000005f82015250565b5f613825600983612db3565b9150613830826137f1565b602082019050919050565b5f6020820190508181035f83015261385281613819565b9050919050565b7f4e6f2066656573000000000000000000000000000000000000000000000000005f82015250565b5f61388d600783612db3565b915061389882613859565b602082019050919050565b5f6020820190508181035f8301526138ba81613881565b9050919050565b7f466565207472616e73666572206661696c6564000000000000000000000000005f82015250565b5f6138f5601383612db3565b9150613900826138c1565b602082019050919050565b5f6020820190508181035f830152613922816138e9565b9050919050565b7f5363686564756c6520616c7265616479206578697374730000000000000000005f82015250565b5f61395d601783612db3565b915061396882613929565b602082019050919050565b5f6020820190508181035f83015261398a81613951565b9050919050565b7f4465706f736974206d757374206265203e2030000000000000000000000000005f82015250565b5f6139c5601383612db3565b91506139d082613991565b602082019050919050565b5f6020820190508181035f8301526139f2816139b9565b9050919050565b7f507572636861736520616d6f756e7420746f6f206c6f7720286d696e203235205f8201527f444f432900000000000000000000000000000000000000000000000000000000602082015250565b5f613a53602483612db3565b9150613a5e826139f9565b604082019050919050565b5f6020820190508181035f830152613a8081613a47565b9050919050565b7f506572696f6420746f6f2073686f727420286d696e20312064617929000000005f82015250565b5f613abb601c83612db3565b9150613ac682613a87565b602082019050919050565b5f6020820190508181035f830152613ae881613aaf565b9050919050565b7f507572636861736520616d6f756e74203e206465706f736974000000000000005f82015250565b5f613b23601983612db3565b9150613b2e82613aef565b602082019050919050565b5f6020820190508181035f830152613b5081613b17565b9050919050565b5f606082019050613b6a5f830186612fb2565b613b776020830185612fb2565b613b846040830184612ec1565b949350505050565b7f444f43207472616e73666572206661696c6564000000000000000000000000005f82015250565b5f613bc0601383612db3565b9150613bcb82613b8c565b602082019050919050565b5f6020820190508181035f830152613bed81613bb4565b9050919050565b5f606082019050613c075f830186612ec1565b613c146020830185612ec1565b613c216040830184612ec1565b949350505050565b7f5a65726f206164647265737300000000000000000000000000000000000000005f82015250565b5f613c5d600c83612db3565b9150613c6882613c29565b602082019050919050565b5f6020820190508181035f830152613c8a81613c51565b9050919050565b7f496e76616c696420616d6f756e740000000000000000000000000000000000005f82015250565b5f613cc5600e83612db3565b9150613cd082613c91565b602082019050919050565b5f6020820190508181035f830152613cf281613cb9565b9050919050565b7f4e487b71000000000000000000000000000000000000000000000000000000005f52601160045260245ffd5b5f613d3082612eb8565b9150613d3b83612eb8565b9250828203905081811115613d5357613d52613cf9565b5b92915050565b7f52656d61696e696e6720746f6f206c6f7720666f7220444341000000000000005f82015250565b5f613d8d601983612db3565b9150613d9882613d59565b602082019050919050565b5f6020820190508181035f830152613dba81613d81565b9050919050565b5f613dcb82612eb8565b91507fffffffffffffffffffffffffffffffffffffffffffffffffffffffffffffffff8203613dfd57613dfc613cf9565b5b600182019050919050565b7f4e487b71000000000000000000000000000000000000000000000000000000005f52604160045260245ffd5b7f416d6f756e74206d757374206265203e203000000000000000000000000000005f82015250565b5f613e69601283612db3565b9150613e7482613e35565b602082019050919050565b5f6020820190508181035f830152613e9681613e5d565b9050919050565b5f613ea782612eb8565b9150613eb283612eb8565b9250828201905080821115613eca57613ec9613cf9565b5b92915050565b7f4f6e6c792073656c6600000000000000000000000000000000000000000000005f82015250565b5f613f04600983612db3565b9150613f0f82613ed0565b602082019050919050565b5f6020820190508181035f830152613f3181613ef8565b9050919050565b7f507572636861736520616d6f756e7420746f6f206c6f770000000000000000005f82015250565b5f613f6c601783612db3565b9150613f7782613f38565b602082019050919050565b5f6020820190508181035f830152613f9981613f60565b9050919050565b7f506572696f6420746f6f2073686f7274000000000000000000000000000000005f82015250565b5f613fd4601083612db3565b9150613fdf82613fa0565b602082019050919050565b5f6020820190508181035f83015261400181613fc8565b9050919050565b7f507572636861736520616d6f756e74203e2062616c616e6365000000000000005f82015250565b5f61403c601983612db3565b915061404782614008565b602082019050919050565b5f6020820190508181035f83015261406981614030565b9050919050565b5f6040820190506140835f830185612ec1565b6140906020830184612ec1565b9392505050565b5f815190506140a581612f5d565b92915050565b5f602082840312156140c0576140bf612e2b565b5b5f6140cd84828501614097565b91505092915050565b7f6b444f432072656465656d206661696c656400000000000000000000000000005f82015250565b5f61410a601283612db3565b9150614115826140d6565b602082019050919050565b5f6020820190508181035f830152614137816140fe565b9050919050565b5f6040820190506141515f830185612fb2565b61415e6020830184612fb2565b9392505050565b7f6b444f43206d696e74206661696c6564000000000000000000000000000000005f82015250565b5f614199601083612db3565b91506141a482614165565b602082019050919050565b5f6020820190508181035f8301526141c68161418d565b9050919050565b7f5363686564756c65206e6f7420616374697665000000000000000000000000005f82015250565b5f614201601383612db3565b915061420c826141cd565b602082019050919050565b5f6020820190508181035f83015261422e816141f5565b9050919050565b7f546f6f206561726c7900000000000000000000000000000000000000000000005f82015250565b5f614269600983612db3565b915061427482614235565b602082019050919050565b5f6020820190508181035f8301526142968161425d565b9050919050565b7f496e73756666696369656e7420444f43000000000000000000000000000000005f82015250565b5f6142d1601083612db3565b91506142dc8261429d565b602082019050919050565b5f6020820190508181035f8301526142fe816142c5565b9050919050565b5f61430f82612eb8565b915061431a83612eb8565b925082820261432881612eb8565b9150828204841483151761433f5761433e613cf9565b5b5092915050565b7f4e487b71000000000000000000000000000000000000000000000000000000005f52601260045260245ffd5b5f61437d82612eb8565b915061438883612eb8565b92508261439857614397614346565b5b828204905092915050565b7f4d6f4320726564656d7074696f6e2072657475726e65642030000000000000005f82015250565b5f6143d7601983612db3565b91506143e2826143a3565b602082019050919050565b5f6020820190508181035f830152614404816143cb565b905091905056fea26469706673582212206d84afab683cc2214554e2092248d928e71df24bed5b3b30c92f87d50c2161ff64736f6c634300081e0033","linkReferences":{}},"methodIdentifiers":{"DOC()":"5baa3a07","FEE_BPS()":"bf333f2c","KDOC()":"894fa721","MIN_PERIOD()":"bbccf154","MIN_PURCHASE_AMOUNT()":"54545bfb","MOC()":"23444a04","batchExecuteDca(address[])":"39ef4484","cancelSchedule()":"0c3ccb0e","createSchedule(uint256,uint256,uint256)":"5294bac8","depositMore(uint256)":"a8bef5ef","executeDca(address)":"9b92e688","executeDcaSelf(address)":"d27b4f71","feeAccumulated()":"6d370ff2","getDocBalance(address)":"00112c5d","getDueUsers()":"a0943142","getPendingRbtc(address)":"36954cc7","getSchedule(address)":"d39fee34","getUserCount()":"b5cb15f7","isDue(address)":"ec57eb20","isUser(address)":"4209fff1","keeper()":"aced1661","owner()":"8da5cb5b","schedules(address)":"80c3780f","setKeeper(address)":"748747e6","transferOwnership(address)":"f2fde38b","updateSchedule(uint256,uint256)":"e6671f90","users(uint256)":"365b98b2","withdrawDoc(uint256)":"83039d5d","withdrawFees()":"476343ee","withdrawRbtc()":"0a971ecb"},"id":16}