{"abi":[{"type":"constructor","inputs":[{"name":"_keeper","type":"address","internalType":"address"}],"stateMutability":"nonpayable"},{"type":"receive","stateMutability":"payable"},{"type":"function","name":"DOC","inputs":[],"outputs":[{"name":"","type":"address","internalType":"contract IERC20"}],"stateMutability":"view"},{"type":"function","name":"FEE_BPS","inputs":[],"outputs":[{"name":"","type":"uint256","internalType":"uint256"}],"stateMutability":"view"},{"type":"function","name":"KDOC","inputs":[],"outputs":[{"name":"","type":"address","internalType":"contract ICToken"}],"stateMutability":"view"},{"type":"function","name":"MIN_PERIOD","inputs":[],"outputs":[{"name":"","type":"uint256","internalType":"uint256"}],"stateMutability":"view"},{"type":"function","name":"MIN_PURCHASE_AMOUNT","inputs":[],"outputs":[{"name":"","type":"uint256","internalType":"uint256"}],"stateMutability":"view"},{"type":"function","name":"MOC","inputs":[],"outputs":[{"name":"","type":"address","internalType":"contract IMoC"}],"stateMutability":"view"},{"type":"function","name":"batchExecuteDca","inputs":[{"name":"_users","type":"address[]","internalType":"address[]"}],"outputs":[],"stateMutability":"nonpayable"},{"type":"function","name":"cancelSchedule","inputs":[],"outputs":[],"stateMutability":"nonpayable"},{"type":"function","name":"createSchedule","inputs":[{"name":"depositAmount","type":"uint256","internalType":"uint256"},{"name":"purchaseAmount","type":"uint256","internalType":"uint256"},{"name":"purchasePeriod","type":"uint256","internalType":"uint256"}],"outputs":[],"stateMutability":"nonpayable"},{"type":"function","name":"depositMore","inputs":[{"name":"amount","type":"uint256","internalType":"uint256"}],"outputs":[],"stateMutability":"nonpayable"},{"type":"function","name":"executeDca","inputs":[{"name":"user","type":"address","internalType":"address"}],"outputs":[],"stateMutability":"nonpayable"},{"type":"function","name":"executeDcaSelf","inputs":[{"name":"user","type":"address","internalType":"address"}],"outputs":[],"stateMutability":"nonpayable"},{"type":"function","name":"feeAccumulated","inputs":[],"outputs":[{"name":"","type":"uint256","internalType":"uint256"}],"stateMutability":"view"},{"type":"function","name":"getDocBalance","inputs":[{"name":"user","type":"address","internalType":"address"}],"outputs":[{"name":"","type":"uint256","internalType":"uint256"}],"stateMutability":"view"},{"type":"function","name":"getDueUsers","inputs":[],"outputs":[{"name":"","type":"address[]","internalType":"address[]"}],"stateMutability":"view"},{"type":"function","name":"getPendingRbtc","inputs":[{"name":"user","type":"address","internalType":"address"}],"outputs":[{"name":"","type":"uint256","internalType":"uint256"}],"stateMutability":"view"},{"type":"function","name":"getSchedule","inputs":[{"name":"user","type":"address","internalType":"address"}],"outputs":[{"name":"","type":"tuple","internalType":"struct SatsPilotDCA.Schedule","components":[{"name":"docBalance","type":"uint256","internalType":"uint256"},{"name":"purchaseAmount","type":"uint256","internalType":"uint256"},{"name":"purchasePeriod","type":"uint256","internalType":"uint256"},{"name":"lastExecution","type":"uint256","internalType":"uint256"},{"name":"accumulatedRbtc","type":"uint256","internalType":"uint256"},{"name":"active","type":"bool","internalType":"bool"}]}],"stateMutability":"view"},{"type":"function","name":"getUserCount","inputs":[],"outputs":[{"name":"","type":"uint256","internalType":"uint256"}],"stateMutability":"view"},{"type":"function","name":"isDue","inputs":[{"name":"user","type":"address","internalType":"address"}],"outputs":[{"name":"","type":"bool","internalType":"bool"}],"stateMutability":"view"},{"type":"function","name":"isUser","inputs":[{"name":"","type":"address","internalType":"address"}],"outputs":[{"name":"","type":"bool","internalType":"bool"}],"stateMutability":"view"},{"type":"function","name":"keeper","inputs":[],"outputs":[{"name":"","type":"address","internalType":"address"}],"stateMutability":"view"},{"type":"function","name":"owner","inputs":[],"outputs":[{"name":"","type":"address","internalType":"address"}],"stateMutability":"view"},{"type":"function","name":"schedules","inputs":[{"name":"","type":"address","internalType":"address"}],"outputs":[{"name":"docBalance","type":"uint256","internalType":"uint256"},{"name":"purchaseAmount","type":"uint256","internalType":"uint256"},{"name":"purchasePeriod","type":"uint256","internalType":"uint256"},{"name":"lastExecution","type":"uint256","internalType":"uint256"},{"name":"accumulatedRbtc","type":"uint256","internalType":"uint256"},{"name":"active","type":"bool","internalType":"bool"}],"stateMutability":"view"},{"type":"function","name":"setKeeper","inputs":[{"name":"_keeper","type":"address","internalType":"address"}],"outputs":[],"stateMutability":"nonpayable"},{"type":"function","name":"transferOwnership","inputs":[{"name":"newOwner","type":"address","internalType":"address"}],"outputs":[],"stateMutability":"nonpayable"},{"type":"function","name":"updateSchedule","inputs":[{"name":"newPurchaseAmount","type":"uint256","internalType":"uint256"},{"name":"newPurchasePeriod","type":"uint256","internalType":"uint256"}],"outputs":[],"stateMutability":"nonpayable"},{"type":"function","name":"users","inputs":[{"name":"","type":"uint256","internalType":"uint256"}],"outputs":[{"name":"","type":"address","internalType":"address"}],"stateMutability":"view"},{"type":"function","name":"withdrawDoc","inputs":[{"name":"amount","type":"uint256","internalType":"uint256"}],"outputs":[],"stateMutability":"nonpayable"},{"type":"function","name":"withdrawFees","inputs":[],"outputs":[],"stateMutability":"nonpayable"},{"type":"function","name":"withdrawRbtc","inputs":[],"outputs":[],"stateMutability":"nonpayable"},{"type":"event","name":"DCAExecuted","inputs":[{"name":"user","type":"address","indexed":true,"internalType":"address"},{"name":"docSpent","type":"uint256","indexed":false,"internalType":"uint256"},{"name":"rbtcReceived","type":"uint256","indexed":false,"internalType":"uint256"},{"name":"fee","type":"uint256","indexed":false,"internalType":"uint256"}],"anonymous":false},{"type":"event","name":"DCAFailed","inputs":[{"name":"user","type":"address","indexed":true,"internalType":"address"},{"name":"reason","type":"bytes","indexed":false,"internalType":"bytes"}],"anonymous":false},{"type":"event","name":"Deposited","inputs":[{"name":"user","type":"address","indexed":true,"internalType":"address"},{"name":"amount","type":"uint256","indexed":false,"internalType":"uint256"}],"anonymous":false},{"type":"event","name":"DocWithdrawn","inputs":[{"name":"user","type":"address","indexed":true,"internalType":"address"},{"name":"amount","type":"uint256","indexed":false,"internalType":"uint256"}],"anonymous":false},{"type":"event","name":"KeeperUpdated","inputs":[{"name":"oldKeeper","type":"address","indexed":true,"internalType":"address"},{"name":"newKeeper","type":"address","indexed":true,"internalType":"address"}],"anonymous":false},{"type":"event","name":"RbtcWithdrawn","inputs":[{"name":"user","type":"address","indexed":true,"internalType":"address"},{"name":"amount","type":"uint256","indexed":false,"internalType":"uint256"}],"anonymous":false},{"type":"event","name":"ScheduleCancelled","inputs":[{"name":"user","type":"address","indexed":true,"internalType":"address"},{"name":"docRefunded","type":"uint256","indexed":false,"internalType":"uint256"}],"anonymous":false},{"type":"event","name":"ScheduleCreated","inputs":[{"name":"user","type":"address","indexed":true,"internalType":"address"},{"name":"depositAmount","type":"uint256","indexed":false,"internalType":"uint256"},{"name":"purchaseAmount","type":"uint256","indexed":false,"internalType":"uint256"},{"name":"purchasePeriod","type":"uint256","indexed":false,"internalType":"uint256"}],"anonymous":false},{"type":"event","name":"ScheduleDeactivated","inputs":[{"name":"user","type":"address","indexed":true,"internalType":"address"}],"anonymous":false},{"type":"event","name":"ScheduleUpdated","inputs":[{"name":"user","type":"address","indexed":true,"internalType":"address"},{"name":"purchaseAmount","type":"uint256","indexed":false,"internalType":"uint256"},{"name":"purchasePeriod","type":"uint256","indexed":false,"internalType":"uint256"}],"anonymous":false}],"bytecode":{"object":"0x608060405234801561000f575f5ffd5b5060405161455b38038061455b83398181016040528101906100319190610115565b3360045f6101000a81548173ffffffffffffffffffffffffffffffffffffffff021916908373ffffffffffffffffffffffffffffffffffffffff1602179055508060055f6101000a81548173ffffffffffffffffffffffffffffffffffffffff021916908373ffffffffffffffffffffffffffffffffffffffff16021790555050610140565b5f5ffd5b5f73ffffffffffffffffffffffffffffffffffffffff82169050919050565b5f6100e4826100bb565b9050919050565b6100f4816100da565b81146100fe575f5ffd5b50565b5f8151905061010f816100eb565b92915050565b5f6020828403121561012a576101296100b7565b5b5f61013784828501610101565b91505092915050565b61440e8061014d5f395ff3fe6080604052600436106101cf575f3560e01c806383039d5d116100f6578063b5cb15f711610094578063d39fee3411610063578063d39fee34146106eb578063e6671f9014610727578063ec57eb201461074f578063f2fde38b1461078b5761028e565b8063b5cb15f714610645578063bbccf1541461066f578063bf333f2c14610699578063d27b4f71146106c35761028e565b80639b92e688116100d05780639b92e688146105a1578063a0943142146105c9578063a8bef5ef146105f3578063aced16611461061b5761028e565b806383039d5d14610525578063894fa7211461054d5780638da5cb5b146105775761028e565b80634209fff11161016e5780635baa3a071161013d5780635baa3a07146104685780636d370ff214610492578063748747e6146104bc57806380c3780f146104e45761028e565b80634209fff1146103c4578063476343ee146104005780635294bac81461041657806354545bfb1461043e5761028e565b806323444a04116101aa57806323444a04146102fa578063365b98b21461032457806336954cc71461036057806339ef44841461039c5761028e565b8062112c5d146102925780630a971ecb146102ce5780630c3ccb0e146102e45761028e565b3661028e5773f773b590af754d597770937fa8ea7abdf266837073ffffffffffffffffffffffffffffffffffffffff163373ffffffffffffffffffffffffffffffffffffffff16148061024d57503073ffffffffffffffffffffffffffffffffffffffff163373ffffffffffffffffffffffffffffffffffffffff16145b61028c576040517f08c379a000000000000000000000000000000000000000000000000000000000815260040161028390612dda565b60405180910390fd5b005b5f5ffd5b34801561029d575f5ffd5b506102b860048036038101906102b39190612e5a565b6107b3565b6040516102c59190612e9d565b60405180910390f35b3480156102d9575f5ffd5b506102e26107fb565b005b3480156102ef575f5ffd5b506102f8610a08565b005b348015610305575f5ffd5b5061030e610d37565b60405161031b9190612f11565b60405180910390f35b34801561032f575f5ffd5b5061034a60048036038101906103459190612f54565b610d4f565b6040516103579190612f8e565b60405180910390f35b34801561036b575f5ffd5b5061038660048036038101906103819190612e5a565b610d8a565b6040516103939190612e9d565b60405180910390f35b3480156103a7575f5ffd5b506103c260048036038101906103bd9190613008565b610dd3565b005b3480156103cf575f5ffd5b506103ea60048036038101906103e59190612e5a565b610fbc565b6040516103f7919061306d565b60405180910390f35b34801561040b575f5ffd5b50610414610fd9565b005b348015610421575f5ffd5b5061043c60048036038101906104379190613086565b6111a9565b005b348015610449575f5ffd5b50610452611640565b60405161045f9190612e9d565b60405180910390f35b348015610473575f5ffd5b5061047c61164d565b60405161048991906130f6565b60405180910390f35b34801561049d575f5ffd5b506104a6611665565b6040516104b39190612e9d565b60405180910390f35b3480156104c7575f5ffd5b506104e260048036038101906104dd9190612e5a565b61166b565b005b3480156104ef575f5ffd5b5061050a60048036038101906105059190612e5a565b611826565b60405161051c9695949392919061310f565b60405180910390f35b348015610530575f5ffd5b5061054b60048036038101906105469190612f54565b61186a565b005b348015610558575f5ffd5b50610561611b96565b60405161056e919061318e565b60405180910390f35b348015610582575f5ffd5b5061058b611bae565b6040516105989190612f8e565b60405180910390f35b3480156105ac575f5ffd5b506105c760048036038101906105c29190612e5a565b611bd3565b005b3480156105d4575f5ffd5b506105dd611c6e565b6040516105ea919061325e565b60405180910390f35b3480156105fe575f5ffd5b5061061960048036038101906106149190612f54565b611e44565b005b348015610626575f5ffd5b5061062f612091565b60405161063c9190612f8e565b60405180910390f35b348015610650575f5ffd5b506106596120b6565b6040516106669190612e9d565b60405180910390f35b34801561067a575f5ffd5b506106836120c2565b6040516106909190612e9d565b60405180910390f35b3480156106a4575f5ffd5b506106ad6120c9565b6040516106ba9190612e9d565b60405180910390f35b3480156106ce575f5ffd5b506106e960048036038101906106e49190612e5a565b6120ce565b005b3480156106f6575f5ffd5b50610711600480360381019061070c9190612e5a565b612148565b60405161071e9190613315565b60405180910390f35b348015610732575f5ffd5b5061074d6004803603810190610748919061332e565b6121ea565b005b34801561075a575f5ffd5b5061077560048036038101906107709190612e5a565b6123b9565b604051610782919061306d565b60405180910390f35b348015610796575f5ffd5b506107b160048036038101906107ac9190612e5a565b6123ca565b005b5f60015f8373ffffffffffffffffffffffffffffffffffffffff1673ffffffffffffffffffffffffffffffffffffffff1681526020019081526020015f205f01549050919050565b5f5f9054906101000a900460ff1615610849576040517f08c379a0000000000000000000000000000000000000000000000000000000008152600401610840906133b6565b60405180910390fd5b60015f5f6101000a81548160ff0219169083151502179055505f60015f3373ffffffffffffffffffffffffffffffffffffffff1673ffffffffffffffffffffffffffffffffffffffff1681526020019081526020015f2090505f816004015490505f81116108ec576040517f08c379a00000000000000000000000000000000000000000000000000000000081526004016108e39061341e565b60405180910390fd5b5f82600401819055505f3373ffffffffffffffffffffffffffffffffffffffff168260405161091a90613469565b5f6040518083038185875af1925050503d805f8114610954576040519150601f19603f3d011682016040523d82523d5f602084013e610959565b606091505b505090508061099d576040517f08c379a0000000000000000000000000000000000000000000000000000000008152600401610994906134c7565b60405180910390fd5b3373ffffffffffffffffffffffffffffffffffffffff167fc02359ae5b9520fe5b9526985687758fac3218ba9521711728056b0abadd3d68836040516109e39190612e9d565b60405180910390a25050505f5f5f6101000a81548160ff021916908315150217905550565b5f5f9054906101000a900460ff1615610a56576040517f08c379a0000000000000000000000000000000000000000000000000000000008152600401610a4d906133b6565b60405180910390fd5b60015f5f6101000a81548160ff0219169083151502179055505f60015f3373ffffffffffffffffffffffffffffffffffffffff1673ffffffffffffffffffffffffffffffffffffffff1681526020019081526020015f209050806005015f9054906101000a900460ff16610aff576040517f08c379a0000000000000000000000000000000000000000000000000000000008152600401610af69061352f565b60405180910390fd5b5f815f015490505f826004015490505f836005015f6101000a81548160ff0219169083151502179055505f835f01819055505f83600401819055505f821115610c1a57610b4b8261250a565b73e700691da7b9851f2f35f8b8182c69c53ccad9db73ffffffffffffffffffffffffffffffffffffffff1663a9059cbb33846040518363ffffffff1660e01b8152600401610b9a92919061354d565b6020604051808303815f875af1158015610bb6573d5f5f3e3d5ffd5b505050506040513d601f19601f82011682018060405250810190610bda919061359e565b610c19576040517f08c379a0000000000000000000000000000000000000000000000000000000008152600401610c1090613613565b60405180910390fd5b5b5f811115610ccc575f3373ffffffffffffffffffffffffffffffffffffffff1682604051610c4790613469565b5f6040518083038185875af1925050503d805f8114610c81576040519150601f19603f3d011682016040523d82523d5f602084013e610c86565b606091505b5050905080610cca576040517f08c379a0000000000000000000000000000000000000000000000000000000008152600401610cc19061367b565b60405180910390fd5b505b3373ffffffffffffffffffffffffffffffffffffffff167faba046ef324ae07859488900d542d47a094f3a89259cd5a3c3fa44f9a12b144a83604051610d129190612e9d565b60405180910390a25050505f5f5f6101000a81548160ff021916908315150217905550565b73f773b590af754d597770937fa8ea7abdf266837081565b60028181548110610d5e575f80fd5b905f5260205f20015f915054906101000a900473ffffffffffffffffffffffffffffffffffffffff1681565b5f60015f8373ffffffffffffffffffffffffffffffffffffffff1673ffffffffffffffffffffffffffffffffffffffff1681526020019081526020015f20600401549050919050565b60055f9054906101000a900473ffffffffffffffffffffffffffffffffffffffff1673ffffffffffffffffffffffffffffffffffffffff163373ffffffffffffffffffffffffffffffffffffffff1614610e62576040517f08c379a0000000000000000000000000000000000000000000000000000000008152600401610e59906136e3565b60405180910390fd5b5f5f90505b82829050811015610fb7573073ffffffffffffffffffffffffffffffffffffffff1663d27b4f71848484818110610ea157610ea0613701565b5b9050602002016020810190610eb69190612e5a565b6040518263ffffffff1660e01b8152600401610ed29190612f8e565b5f604051808303815f87803b158015610ee9575f5ffd5b505af1925050508015610efa575060015b610fa9573d805f8114610f28576040519150601f19603f3d011682016040523d82523d5f602084013e610f2d565b606091505b50838383818110610f4157610f40613701565b5b9050602002016020810190610f569190612e5a565b73ffffffffffffffffffffffffffffffffffffffff167ff2432448bd7f4f83571af712c44c366acd66e1c64f00b76f244ffe5d48383e0982604051610f9b919061379e565b60405180910390a250610faa565b5b8080600101915050610e67565b505050565b6003602052805f5260405f205f915054906101000a900460ff1681565b60045f9054906101000a900473ffffffffffffffffffffffffffffffffffffffff1673ffffffffffffffffffffffffffffffffffffffff163373ffffffffffffffffffffffffffffffffffffffff1614611068576040517f08c379a000000000000000000000000000000000000000000000000000000000815260040161105f90613808565b60405180910390fd5b5f60065490505f81116110b0576040517f08c379a00000000000000000000000000000000000000000000000000000000081526004016110a790613870565b60405180910390fd5b5f60068190555073e700691da7b9851f2f35f8b8182c69c53ccad9db73ffffffffffffffffffffffffffffffffffffffff1663a9059cbb60045f9054906101000a900473ffffffffffffffffffffffffffffffffffffffff16836040518363ffffffff1660e01b815260040161112792919061354d565b6020604051808303815f875af1158015611143573d5f5f3e3d5ffd5b505050506040513d601f19601f82011682018060405250810190611167919061359e565b6111a6576040517f08c379a000000000000000000000000000000000000000000000000000000000815260040161119d906138d8565b60405180910390fd5b50565b60015f3373ffffffffffffffffffffffffffffffffffffffff1673ffffffffffffffffffffffffffffffffffffffff1681526020019081526020015f206005015f9054906101000a900460ff1615611236576040517f08c379a000000000000000000000000000000000000000000000000000000000815260040161122d90613940565b60405180910390fd5b5f8311611278576040517f08c379a000000000000000000000000000000000000000000000000000000000815260040161126f906139a8565b60405180910390fd5b68015af1d78b58c400008210156112c4576040517f08c379a00000000000000000000000000000000000000000000000000000000081526004016112bb90613a36565b60405180910390fd5b6201518081101561130a576040517f08c379a000000000000000000000000000000000000000000000000000000000815260040161130190613a9e565b60405180910390fd5b8282111561134d576040517f08c379a000000000000000000000000000000000000000000000000000000000815260040161134490613b06565b60405180910390fd5b73e700691da7b9851f2f35f8b8182c69c53ccad9db73ffffffffffffffffffffffffffffffffffffffff166323b872dd3330866040518463ffffffff1660e01b815260040161139e93929190613b24565b6020604051808303815f875af11580156113ba573d5f5f3e3d5ffd5b505050506040513d601f19601f820116820180604052508101906113de919061359e565b61141d576040517f08c379a000000000000000000000000000000000000000000000000000000000815260040161141490613ba3565b60405180910390fd5b611426836125e0565b60035f3373ffffffffffffffffffffffffffffffffffffffff1673ffffffffffffffffffffffffffffffffffffffff1681526020019081526020015f205f9054906101000a900460ff1661152a57600233908060018154018082558091505060019003905f5260205f20015f9091909190916101000a81548173ffffffffffffffffffffffffffffffffffffffff021916908373ffffffffffffffffffffffffffffffffffffffff160217905550600160035f3373ffffffffffffffffffffffffffffffffffffffff1673ffffffffffffffffffffffffffffffffffffffff1681526020019081526020015f205f6101000a81548160ff0219169083151502179055505b6040518060c001604052808481526020018381526020018281526020014281526020015f81526020016001151581525060015f3373ffffffffffffffffffffffffffffffffffffffff1673ffffffffffffffffffffffffffffffffffffffff1681526020019081526020015f205f820151815f01556020820151816001015560408201518160020155606082015181600301556080820151816004015560a0820151816005015f6101000a81548160ff0219169083151502179055509050503373ffffffffffffffffffffffffffffffffffffffff167f5ab0cb75fe24f04dbfe14b847f8579bc91baa153ee5b2758fcfa59f33675b16284848460405161163393929190613bc1565b60405180910390a2505050565b68015af1d78b58c4000081565b73e700691da7b9851f2f35f8b8182c69c53ccad9db81565b60065481565b60045f9054906101000a900473ffffffffffffffffffffffffffffffffffffffff1673ffffffffffffffffffffffffffffffffffffffff163373ffffffffffffffffffffffffffffffffffffffff16146116fa576040517f08c379a00000000000000000000000000000000000000000000000000000000081526004016116f190613808565b60405180910390fd5b5f73ffffffffffffffffffffffffffffffffffffffff168173ffffffffffffffffffffffffffffffffffffffff1603611768576040517f08c379a000000000000000000000000000000000000000000000000000000000815260040161175f90613c40565b60405180910390fd5b8073ffffffffffffffffffffffffffffffffffffffff1660055f9054906101000a900473ffffffffffffffffffffffffffffffffffffffff1673ffffffffffffffffffffffffffffffffffffffff167f53d3703fe259def57584466f32d1b94c30278008c683c21b04501c4966f13a6960405160405180910390a38060055f6101000a81548173ffffffffffffffffffffffffffffffffffffffff021916908373ffffffffffffffffffffffffffffffffffffffff16021790555050565b6001602052805f5260405f205f91509050805f015490806001015490806002015490806003015490806004015490806005015f9054906101000a900460ff16905086565b5f5f9054906101000a900460ff16156118b8576040517f08c379a00000000000000000000000000000000000000000000000000000000081526004016118af906133b6565b60405180910390fd5b60015f5f6101000a81548160ff0219169083151502179055505f60015f3373ffffffffffffffffffffffffffffffffffffffff1673ffffffffffffffffffffffffffffffffffffffff1681526020019081526020015f209050806005015f9054906101000a900460ff16611961576040517f08c379a00000000000000000000000000000000000000000000000000000000081526004016119589061352f565b60405180910390fd5b5f821180156119735750805f01548211155b6119b2576040517f08c379a00000000000000000000000000000000000000000000000000000000081526004016119a990613ca8565b60405180910390fd5b5f82825f01546119c29190613cf3565b90505f8114806119d6575081600101548110155b611a15576040517f08c379a0000000000000000000000000000000000000000000000000000000008152600401611a0c90613d70565b60405180910390fd5b611a1e8361250a565b73e700691da7b9851f2f35f8b8182c69c53ccad9db73ffffffffffffffffffffffffffffffffffffffff1663a9059cbb33856040518363ffffffff1660e01b8152600401611a6d92919061354d565b6020604051808303815f875af1158015611a89573d5f5f3e3d5ffd5b505050506040513d601f19601f82011682018060405250810190611aad919061359e565b611aec576040517f08c379a0000000000000000000000000000000000000000000000000000000008152600401611ae390613ba3565b60405180910390fd5b82825f015f828254611afe9190613cf3565b925050819055505f825f015403611b2b575f826005015f6101000a81548160ff0219169083151502179055505b3373ffffffffffffffffffffffffffffffffffffffff167f93fb9cc0cf6b85f4aae7dbb495816dfd988aee8c18418e470998deabb855e74f84604051611b719190612e9d565b60405180910390a250505f5f5f6101000a81548160ff02191690831515021790555050565b73544eb90e766b405134b3b3f62b6b4c23fcd5fda281565b60045f9054906101000a900473ffffffffffffffffffffffffffffffffffffffff1681565b60055f9054906101000a900473ffffffffffffffffffffffffffffffffffffffff1673ffffffffffffffffffffffffffffffffffffffff163373ffffffffffffffffffffffffffffffffffffffff1614611c62576040517f08c379a0000000000000000000000000000000000000000000000000000000008152600401611c59906136e3565b60405180910390fd5b611c6b81612829565b50565b60605f60028054905090505f5f90505f5f90505b82811015611cef57611cce60028281548110611ca157611ca0613701565b5b905f5260205f20015f9054906101000a900473ffffffffffffffffffffffffffffffffffffffff16612cc2565b15611ce2578180611cde90613d8e565b9250505b8080600101915050611c82565b505f8167ffffffffffffffff811115611d0b57611d0a613dd5565b5b604051908082528060200260200182016040528015611d395781602001602082028036833780820191505090505b5090505f5f90505f5f90505b84811015611e3957611d9160028281548110611d6457611d63613701565b5b905f5260205f20015f9054906101000a900473ffffffffffffffffffffffffffffffffffffffff16612cc2565b15611e2c5760028181548110611daa57611da9613701565b5b905f5260205f20015f9054906101000a900473ffffffffffffffffffffffffffffffffffffffff16838380611dde90613d8e565b945081518110611df157611df0613701565b5b602002602001019073ffffffffffffffffffffffffffffffffffffffff16908173ffffffffffffffffffffffffffffffffffffffff16815250505b8080600101915050611d45565b508194505050505090565b60015f3373ffffffffffffffffffffffffffffffffffffffff1673ffffffffffffffffffffffffffffffffffffffff1681526020019081526020015f206005015f9054906101000a900460ff16611ed0576040517f08c379a0000000000000000000000000000000000000000000000000000000008152600401611ec79061352f565b60405180910390fd5b5f8111611f12576040517f08c379a0000000000000000000000000000000000000000000000000000000008152600401611f0990613e4c565b60405180910390fd5b73e700691da7b9851f2f35f8b8182c69c53ccad9db73ffffffffffffffffffffffffffffffffffffffff166323b872dd3330846040518463ffffffff1660e01b8152600401611f6393929190613b24565b6020604051808303815f875af1158015611f7f573d5f5f3e3d5ffd5b505050506040513d601f19601f82011682018060405250810190611fa3919061359e565b611fe2576040517f08c379a0000000000000000000000000000000000000000000000000000000008152600401611fd990613ba3565b60405180910390fd5b611feb816125e0565b8060015f3373ffffffffffffffffffffffffffffffffffffffff1673ffffffffffffffffffffffffffffffffffffffff1681526020019081526020015f205f015f8282546120399190613e6a565b925050819055503373ffffffffffffffffffffffffffffffffffffffff167f2da466a7b24304f47e87fa2e1e5a81b9831ce54fec19055ce277ca2f39ba42c4826040516120869190612e9d565b60405180910390a250565b60055f9054906101000a900473ffffffffffffffffffffffffffffffffffffffff1681565b5f600280549050905090565b6201518081565b603281565b3073ffffffffffffffffffffffffffffffffffffffff163373ffffffffffffffffffffffffffffffffffffffff161461213c576040517f08c379a000000000000000000000000000000000000000000000000000000000815260040161213390613ee7565b60405180910390fd5b61214581612829565b50565b612150612d4e565b60015f8373ffffffffffffffffffffffffffffffffffffffff1673ffffffffffffffffffffffffffffffffffffffff1681526020019081526020015f206040518060c00160405290815f820154815260200160018201548152602001600282015481526020016003820154815260200160048201548152602001600582015f9054906101000a900460ff1615151515815250509050919050565b5f60015f3373ffffffffffffffffffffffffffffffffffffffff1673ffffffffffffffffffffffffffffffffffffffff1681526020019081526020015f209050806005015f9054906101000a900460ff1661227a576040517f08c379a00000000000000000000000000000000000000000000000000000000081526004016122719061352f565b60405180910390fd5b68015af1d78b58c400008310156122c6576040517f08c379a00000000000000000000000000000000000000000000000000000000081526004016122bd90613f4f565b60405180910390fd5b6201518082101561230c576040517f08c379a000000000000000000000000000000000000000000000000000000000815260040161230390613fb7565b60405180910390fd5b805f0154831115612352576040517f08c379a00000000000000000000000000000000000000000000000000000000081526004016123499061401f565b60405180910390fd5b8281600101819055508181600201819055503373ffffffffffffffffffffffffffffffffffffffff167f37b50b476a1c3aad70878aea9298883f0df1f4a4a73a2a1a624fe6be4ad5588384846040516123ac92919061403d565b60405180910390a2505050565b5f6123c382612cc2565b9050919050565b60045f9054906101000a900473ffffffffffffffffffffffffffffffffffffffff1673ffffffffffffffffffffffffffffffffffffffff163373ffffffffffffffffffffffffffffffffffffffff1614612459576040517f08c379a000000000000000000000000000000000000000000000000000000000815260040161245090613808565b60405180910390fd5b5f73ffffffffffffffffffffffffffffffffffffffff168173ffffffffffffffffffffffffffffffffffffffff16036124c7576040517f08c379a00000000000000000000000000000000000000000000000000000000081526004016124be90613c40565b60405180910390fd5b8060045f6101000a81548173ffffffffffffffffffffffffffffffffffffffff021916908373ffffffffffffffffffffffffffffffffffffffff16021790555050565b5f73544eb90e766b405134b3b3f62b6b4c23fcd5fda273ffffffffffffffffffffffffffffffffffffffff1663852a12e3836040518263ffffffff1660e01b81526004016125589190612e9d565b6020604051808303815f875af1158015612574573d5f5f3e3d5ffd5b505050506040513d601f19601f820116820180604052508101906125989190614078565b90505f81146125dc576040517f08c379a00000000000000000000000000000000000000000000000000000000081526004016125d3906140ed565b60405180910390fd5b5050565b5f73e700691da7b9851f2f35f8b8182c69c53ccad9db73ffffffffffffffffffffffffffffffffffffffff1663dd62ed3e3073544eb90e766b405134b3b3f62b6b4c23fcd5fda26040518363ffffffff1660e01b815260040161264492919061410b565b602060405180830381865afa15801561265f573d5f5f3e3d5ffd5b505050506040513d601f19601f820116820180604052508101906126839190614078565b9050818110156127525773e700691da7b9851f2f35f8b8182c69c53ccad9db73ffffffffffffffffffffffffffffffffffffffff1663095ea7b373544eb90e766b405134b3b3f62b6b4c23fcd5fda27fffffffffffffffffffffffffffffffffffffffffffffffffffffffffffffffff6040518363ffffffff1660e01b815260040161271092919061354d565b6020604051808303815f875af115801561272c573d5f5f3e3d5ffd5b505050506040513d601f19601f82011682018060405250810190612750919061359e565b505b5f73544eb90e766b405134b3b3f62b6b4c23fcd5fda273ffffffffffffffffffffffffffffffffffffffff1663a0712d68846040518263ffffffff1660e01b81526004016127a09190612e9d565b6020604051808303815f875af11580156127bc573d5f5f3e3d5ffd5b505050506040513d601f19601f820116820180604052508101906127e09190614078565b90505f8114612824576040517f08c379a000000000000000000000000000000000000000000000000000000000815260040161281b9061417c565b60405180910390fd5b505050565b5f60015f8373ffffffffffffffffffffffffffffffffffffffff1673ffffffffffffffffffffffffffffffffffffffff1681526020019081526020015f209050806005015f9054906101000a900460ff166128b9576040517f08c379a00000000000000000000000000000000000000000000000000000000081526004016128b0906141e4565b60405180910390fd5b806002015481600301546128cd9190613e6a565b42101561290f576040517f08c379a00000000000000000000000000000000000000000000000000000000081526004016129069061424c565b60405180910390fd5b8060010154815f01541015612959576040517f08c379a0000000000000000000000000000000000000000000000000000000008152600401612950906142b4565b60405180910390fd5b5f8160010154905061296a8161250a565b5f61271060328361297b91906142d2565b6129859190614340565b90505f81836129949190613cf3565b90508160065f8282546129a79190613e6a565b925050819055505f73e700691da7b9851f2f35f8b8182c69c53ccad9db73ffffffffffffffffffffffffffffffffffffffff166370a08231306040518263ffffffff1660e01b81526004016129fc9190612f8e565b602060405180830381865afa158015612a17573d5f5f3e3d5ffd5b505050506040513d601f19601f82011682018060405250810190612a3b9190614078565b90505f47905073f773b590af754d597770937fa8ea7abdf266837073ffffffffffffffffffffffffffffffffffffffff166350771849846040518263ffffffff1660e01b8152600401612a8e9190612e9d565b5f604051808303815f87803b158015612aa5575f5ffd5b505af1158015612ab7573d5f5f3e3d5ffd5b505050505f73e700691da7b9851f2f35f8b8182c69c53ccad9db73ffffffffffffffffffffffffffffffffffffffff166370a08231306040518263ffffffff1660e01b8152600401612b099190612f8e565b602060405180830381865afa158015612b24573d5f5f3e3d5ffd5b505050506040513d601f19601f82011682018060405250810190612b489190614078565b90505f8247612b579190613cf3565b90505f8285612b669190613cf3565b90505f8211612baa576040517f08c379a0000000000000000000000000000000000000000000000000000000008152600401612ba1906143ba565b60405180910390fd5b5f8782612bb79190613e6a565b9050808a5f015f828254612bcb9190613cf3565b92505081905550828a6004015f828254612be59190613e6a565b92505081905550428a6003018190555089600101548a5f01541015612c63575f8a6005015f6101000a81548160ff0219169083151502179055508a73ffffffffffffffffffffffffffffffffffffffff167f2d69daea880a48b9ba3d6212ecaf359bcccb6a1d6cd877b45ac710871112379d60405160405180910390a25b8a73ffffffffffffffffffffffffffffffffffffffff167f15777b4b303a33d44b8a36b2b09cc7c9470c9a4bf551312cc5c23dd025c0477a8a858b604051612cad93929190613bc1565b60405180910390a25050505050505050505050565b5f5f60015f8473ffffffffffffffffffffffffffffffffffffffff1673ffffffffffffffffffffffffffffffffffffffff1681526020019081526020015f209050806005015f9054906101000a900460ff168015612d33575080600201548160030154612d2f9190613e6a565b4210155b8015612d4657508060010154815f015410155b915050919050565b6040518060c001604052805f81526020015f81526020015f81526020015f81526020015f81526020015f151581525090565b5f82825260208201905092915050565b7f4f6e6c79204d6f430000000000000000000000000000000000000000000000005f82015250565b5f612dc4600883612d80565b9150612dcf82612d90565b602082019050919050565b5f6020820190508181035f830152612df181612db8565b9050919050565b5f5ffd5b5f5ffd5b5f73ffffffffffffffffffffffffffffffffffffffff82169050919050565b5f612e2982612e00565b9050919050565b612e3981612e1f565b8114612e43575f5ffd5b50565b5f81359050612e5481612e30565b92915050565b5f60208284031215612e6f57612e6e612df8565b5b5f612e7c84828501612e46565b91505092915050565b5f819050919050565b612e9781612e85565b82525050565b5f602082019050612eb05f830184612e8e565b92915050565b5f819050919050565b5f612ed9612ed4612ecf84612e00565b612eb6565b612e00565b9050919050565b5f612eea82612ebf565b9050919050565b5f612efb82612ee0565b9050919050565b612f0b81612ef1565b82525050565b5f602082019050612f245f830184612f02565b92915050565b612f3381612e85565b8114612f3d575f5ffd5b50565b5f81359050612f4e81612f2a565b92915050565b5f60208284031215612f6957612f68612df8565b5b5f612f7684828501612f40565b91505092915050565b612f8881612e1f565b82525050565b5f602082019050612fa15f830184612f7f565b92915050565b5f5ffd5b5f5ffd5b5f5ffd5b5f5f83601f840112612fc857612fc7612fa7565b5b8235905067ffffffffffffffff811115612fe557612fe4612fab565b5b60208301915083602082028301111561300157613000612faf565b5b9250929050565b5f5f6020838503121561301e5761301d612df8565b5b5f83013567ffffffffffffffff81111561303b5761303a612dfc565b5b61304785828601612fb3565b92509250509250929050565b5f8115159050919050565b61306781613053565b82525050565b5f6020820190506130805f83018461305e565b92915050565b5f5f5f6060848603121561309d5761309c612df8565b5b5f6130aa86828701612f40565b93505060206130bb86828701612f40565b92505060406130cc86828701612f40565b9150509250925092565b5f6130e082612ee0565b9050919050565b6130f0816130d6565b82525050565b5f6020820190506131095f8301846130e7565b92915050565b5f60c0820190506131225f830189612e8e565b61312f6020830188612e8e565b61313c6040830187612e8e565b6131496060830186612e8e565b6131566080830185612e8e565b61316360a083018461305e565b979650505050505050565b5f61317882612ee0565b9050919050565b6131888161316e565b82525050565b5f6020820190506131a15f83018461317f565b92915050565b5f81519050919050565b5f82825260208201905092915050565b5f819050602082019050919050565b6131d981612e1f565b82525050565b5f6131ea83836131d0565b60208301905092915050565b5f602082019050919050565b5f61320c826131a7565b61321681856131b1565b9350613221836131c1565b805f5b8381101561325157815161323888826131df565b9750613243836131f6565b925050600181019050613224565b5085935050505092915050565b5f6020820190508181035f8301526132768184613202565b905092915050565b61328781612e85565b82525050565b61329681613053565b82525050565b60c082015f8201516132b05f85018261327e565b5060208201516132c3602085018261327e565b5060408201516132d6604085018261327e565b5060608201516132e9606085018261327e565b5060808201516132fc608085018261327e565b5060a082015161330f60a085018261328d565b50505050565b5f60c0820190506133285f83018461329c565b92915050565b5f5f6040838503121561334457613343612df8565b5b5f61335185828601612f40565b925050602061336285828601612f40565b9150509250929050565b7f5265656e7472616e7400000000000000000000000000000000000000000000005f82015250565b5f6133a0600983612d80565b91506133ab8261336c565b602082019050919050565b5f6020820190508181035f8301526133cd81613394565b9050919050565b7f4e6f205242544320746f207769746864726177000000000000000000000000005f82015250565b5f613408601383612d80565b9150613413826133d4565b602082019050919050565b5f6020820190508181035f830152613435816133fc565b9050919050565b5f81905092915050565b50565b5f6134545f8361343c565b915061345f82613446565b5f82019050919050565b5f61347382613449565b9150819050919050565b7f52425443207472616e73666572206661696c65640000000000000000000000005f82015250565b5f6134b1601483612d80565b91506134bc8261347d565b602082019050919050565b5f6020820190508181035f8301526134de816134a5565b9050919050565b7f4e6f20616374697665207363686564756c6500000000000000000000000000005f82015250565b5f613519601283612d80565b9150613524826134e5565b602082019050919050565b5f6020820190508181035f8301526135468161350d565b9050919050565b5f6040820190506135605f830185612f7f565b61356d6020830184612e8e565b9392505050565b61357d81613053565b8114613587575f5ffd5b50565b5f8151905061359881613574565b92915050565b5f602082840312156135b3576135b2612df8565b5b5f6135c08482850161358a565b91505092915050565b7f444f4320726566756e64206661696c65640000000000000000000000000000005f82015250565b5f6135fd601183612d80565b9150613608826135c9565b602082019050919050565b5f6020820190508181035f83015261362a816135f1565b9050919050565b7f5242544320726566756e64206661696c656400000000000000000000000000005f82015250565b5f613665601283612d80565b915061367082613631565b602082019050919050565b5f6020820190508181035f83015261369281613659565b9050919050565b7f4e6f74206b6565706572000000000000000000000000000000000000000000005f82015250565b5f6136cd600a83612d80565b91506136d882613699565b602082019050919050565b5f6020820190508181035f8301526136fa816136c1565b9050919050565b7f4e487b71000000000000000000000000000000000000000000000000000000005f52603260045260245ffd5b5f81519050919050565b5f82825260208201905092915050565b8281835e5f83830152505050565b5f601f19601f8301169050919050565b5f6137708261372e565b61377a8185613738565b935061378a818560208601613748565b61379381613756565b840191505092915050565b5f6020820190508181035f8301526137b68184613766565b905092915050565b7f4e6f74206f776e657200000000000000000000000000000000000000000000005f82015250565b5f6137f2600983612d80565b91506137fd826137be565b602082019050919050565b5f6020820190508181035f83015261381f816137e6565b9050919050565b7f4e6f2066656573000000000000000000000000000000000000000000000000005f82015250565b5f61385a600783612d80565b915061386582613826565b602082019050919050565b5f6020820190508181035f8301526138878161384e565b9050919050565b7f466565207472616e73666572206661696c6564000000000000000000000000005f82015250565b5f6138c2601383612d80565b91506138cd8261388e565b602082019050919050565b5f6020820190508181035f8301526138ef816138b6565b9050919050565b7f5363686564756c6520616c7265616479206578697374730000000000000000005f82015250565b5f61392a601783612d80565b9150613935826138f6565b602082019050919050565b5f6020820190508181035f8301526139578161391e565b9050919050565b7f4465706f736974206d757374206265203e2030000000000000000000000000005f82015250565b5f613992601383612d80565b915061399d8261395e565b602082019050919050565b5f6020820190508181035f8301526139bf81613986565b9050919050565b7f507572636861736520616d6f756e7420746f6f206c6f7720286d696e203235205f8201527f444f432900000000000000000000000000000000000000000000000000000000602082015250565b5f613a20602483612d80565b9150613a2b826139c6565b604082019050919050565b5f6020820190508181035f830152613a4d81613a14565b9050919050565b7f506572696f6420746f6f2073686f727420286d696e20312064617929000000005f82015250565b5f613a88601c83612d80565b9150613a9382613a54565b602082019050919050565b5f6020820190508181035f830152613ab581613a7c565b9050919050565b7f507572636861736520616d6f756e74203e206465706f736974000000000000005f82015250565b5f613af0601983612d80565b9150613afb82613abc565b602082019050919050565b5f6020820190508181035f830152613b1d81613ae4565b9050919050565b5f606082019050613b375f830186612f7f565b613b446020830185612f7f565b613b516040830184612e8e565b949350505050565b7f444f43207472616e73666572206661696c6564000000000000000000000000005f82015250565b5f613b8d601383612d80565b9150613b9882613b59565b602082019050919050565b5f6020820190508181035f830152613bba81613b81565b9050919050565b5f606082019050613bd45f830186612e8e565b613be16020830185612e8e565b613bee6040830184612e8e565b949350505050565b7f5a65726f206164647265737300000000000000000000000000000000000000005f82015250565b5f613c2a600c83612d80565b9150613c3582613bf6565b602082019050919050565b5f6020820190508181035f830152613c5781613c1e565b9050919050565b7f496e76616c696420616d6f756e740000000000000000000000000000000000005f82015250565b5f613c92600e83612d80565b9150613c9d82613c5e565b602082019050919050565b5f6020820190508181035f830152613cbf81613c86565b9050919050565b7f4e487b71000000000000000000000000000000000000000000000000000000005f52601160045260245ffd5b5f613cfd82612e85565b9150613d0883612e85565b9250828203905081811115613d2057613d1f613cc6565b5b92915050565b7f52656d61696e696e6720746f6f206c6f7720666f7220444341000000000000005f82015250565b5f613d5a601983612d80565b9150613d6582613d26565b602082019050919050565b5f6020820190508181035f830152613d8781613d4e565b9050919050565b5f613d9882612e85565b91507fffffffffffffffffffffffffffffffffffffffffffffffffffffffffffffffff8203613dca57613dc9613cc6565b5b600182019050919050565b7f4e487b71000000000000000000000000000000000000000000000000000000005f52604160045260245ffd5b7f416d6f756e74206d757374206265203e203000000000000000000000000000005f82015250565b5f613e36601283612d80565b9150613e4182613e02565b602082019050919050565b5f6020820190508181035f830152613e6381613e2a565b9050919050565b5f613e7482612e85565b9150613e7f83612e85565b9250828201905080821115613e9757613e96613cc6565b5b92915050565b7f4f6e6c792073656c6600000000000000000000000000000000000000000000005f82015250565b5f613ed1600983612d80565b9150613edc82613e9d565b602082019050919050565b5f6020820190508181035f830152613efe81613ec5565b9050919050565b7f507572636861736520616d6f756e7420746f6f206c6f770000000000000000005f82015250565b5f613f39601783612d80565b9150613f4482613f05565b602082019050919050565b5f6020820190508181035f830152613f6681613f2d565b9050919050565b7f506572696f6420746f6f2073686f7274000000000000000000000000000000005f82015250565b5f613fa1601083612d80565b9150613fac82613f6d565b602082019050919050565b5f6020820190508181035f830152613fce81613f95565b9050919050565b7f507572636861736520616d6f756e74203e2062616c616e6365000000000000005f82015250565b5f614009601983612d80565b915061401482613fd5565b602082019050919050565b5f6020820190508181035f83015261403681613ffd565b9050919050565b5f6040820190506140505f830185612e8e565b61405d6020830184612e8e565b9392505050565b5f8151905061407281612f2a565b92915050565b5f6020828403121561408d5761408c612df8565b5b5f61409a84828501614064565b91505092915050565b7f6b444f432072656465656d206661696c656400000000000000000000000000005f82015250565b5f6140d7601283612d80565b91506140e2826140a3565b602082019050919050565b5f6020820190508181035f830152614104816140cb565b9050919050565b5f60408201905061411e5f830185612f7f565b61412b6020830184612f7f565b9392505050565b7f6b444f43206d696e74206661696c6564000000000000000000000000000000005f82015250565b5f614166601083612d80565b915061417182614132565b602082019050919050565b5f6020820190508181035f8301526141938161415a565b9050919050565b7f5363686564756c65206e6f7420616374697665000000000000000000000000005f82015250565b5f6141ce601383612d80565b91506141d98261419a565b602082019050919050565b5f6020820190508181035f8301526141fb816141c2565b9050919050565b7f546f6f206561726c7900000000000000000000000000000000000000000000005f82015250565b5f614236600983612d80565b915061424182614202565b602082019050919050565b5f6020820190508181035f8301526142638161422a565b9050919050565b7f496e73756666696369656e7420444f43000000000000000000000000000000005f82015250565b5f61429e601083612d80565b91506142a98261426a565b602082019050919050565b5f6020820190508181035f8301526142cb81614292565b9050919050565b5f6142dc82612e85565b91506142e783612e85565b92508282026142f581612e85565b9150828204841483151761430c5761430b613cc6565b5b5092915050565b7f4e487b71000000000000000000000000000000000000000000000000000000005f52601260045260245ffd5b5f61434a82612e85565b915061435583612e85565b92508261436557614364614313565b5b828204905092915050565b7f4d6f4320726564656d7074696f6e2072657475726e65642030000000000000005f82015250565b5f6143a4601983612d80565b91506143af82614370565b602082019050919050565b5f6020820190508181035f8301526143d181614398565b905091905056fea2646970667358221220d39106c18803de9acd67838d496f2161fcc1007c3dee7f841016e924b285e8aa64736f6c634300081e0033","linkReferences":{}},"methodIdentifiers":{"DOC()":"5baa3a07","FEE_BPS()":"bf333f2c","KDOC()":"894fa721","MIN_PERIOD()":"bbccf154","MIN_PURCHASE_AMOUNT()":"54545bfb","MOC()":"23444a04","batchExecuteDca(address[])":"39ef4484","cancelSchedule()":"0c3ccb0e","createSchedule(uint256,uint256,uint256)":"5294bac8","depositMore(uint256)":"a8bef5ef","executeDca(address)":"9b92e688","executeDcaSelf(address)":"d27b4f71","feeAccumulated()":"6d370ff2","getDocBalance(address)":"00112c5d","getDueUsers()":"a0943142","getPendingRbtc(address)":"36954cc7","getSchedule(address)":"d39fee34","getUserCount()":"b5cb15f7","isDue(address)":"ec57eb20","isUser(address)":"4209fff1","keeper()":"aced1661","owner()":"8da5cb5b","schedules(address)":"80c3780f","setKeeper(address)":"748747e6","transferOwnership(address)":"f2fde38b","updateSchedule(uint256,uint256)":"e6671f90","users(uint256)":"365b98b2","withdrawDoc(uint256)":"83039d5d","withdrawFees()":"476343ee","withdrawRbtc()":"0a971ecb"},"id":16}